:100000000C94E4010C942B020C942B020C942B0204
:100010000C942B020C942B020C942B020C942B02AC
:100020000C942B020C942B020C94CE250C94A1263C
:100030000C942F1C0C942B020C942B020C942B026E
:100040000C942B020C942B020C942B020C942B027C
:100050000C942B020C949A1C0C942B020C942B02E3
:100060000C942B020C942B020C942B020C942B025C
:100070000C942B020C942B020C942B020C942B024C
:100080000C942B020C942B020C942B020C942B023C
:100090000C942B020C942B020C942B020C942B022C
:1000A0000C942B020C942B020C942B022F5CBA5C48
:1000B000BB5C365C315C9D5C9E5C385C335C905C08
:1000C000915C3A5C345C815C825C2F5C0000015185
:1000D00002510000305C01000100375C325C01001D
:1000E0000100395C345C010001002F5C355C0100CB
:1000F0000100305C00000100010000003A5C0100DA
:100100000100355C305C01000100375C325C0100AD
:100110000100395C335C010001003A5C0000010021
:100120000100000000000000000000002A2B280051
:100130000000000000000000000000000000002996
:10014000000000002C1E3420212224342627252ED6
:10015000362D3738271E1F2021222324252633330E
:10016000362E37381F0405060708090A0B0C0D0E3A
:100170000F101112131415161718191A1B1C1D2F06
:100180003130232D350405060708090A0B0C0D0E26
:100190000F101112131415161718191A1B1C1D2FE6
:1001A0003130354C0000000000000000000000006D
:1001B000000000000000000000000000000000003F
:1001C00000000000000000007E0F00D4FFFFFFC70A
:1001D000000000782A03740065006D0070006F0055
:1001E0005F0074007500720074006C0065002F00E1
:1001F0006200720061006400700061006400000031
:100200001A034D0041004E005500460041004300D6
:100210005400550052004500520000000403090438
:1002200009029F00040100A0FA0904000001030173
:100230000100092111010001224000070581030886
:10024000000A090401000103000000092111010056
:100250000122B6000705820320000A080B020201F2
:10026000010000090402000001010000092401004E
:10027000010900010309040300020103000007242F
:1002800001000141000624020101000624020202CD
:1002900000092403010301020100092403020401EF
:1002A00001010009050402400005000005250101C7
:1002B0000109058302400005000005250101031224
:1002C0000110010000000874747062010001020056
:1002D0000105010902A10185020901A10005091911
:1002E00001290815002501950875018102050109FC
:1002F0003009311581257F95027508810609381569
:1003000081257F950175088106050C0A3802158143
:10031000257F950175088106C0C005010980A101EE
:10032000850319012AB700150126B700950175103C
:100330008100C0050C0901A101850419012AA00250
:10034000150126A002950175108100C0050109065E
:10035000A1018505050719E029E715002501950884
:10036000750181020507190029EF1500250195F097
:10037000750181020508190129059505750191028C
:10038000950175039101C005010906A10105071931
:10039000E029E71500250195087501810295017591
:1003A0000881010507190029FF150026FF009506A1
:1003B0007508810005081901290595057501910247
:1003C000950175039101C00011241FBECFEFDAE043
:1003D000DEBFCDBF04B603FE27C08091010490911B
:1003E0000204A0910304B09104048730904BA7400D
:1003F000B04BD1F410920104109202041092030445
:100400001092040414BE84B7877F84BF0FB6F8949B
:10041000A8958091600088618093600010926000D0
:100420000FBEE0E0F8E3099511E0A0E0B1E0ECE8F0
:10043000F2E502C005900D92A639B107D9F724E084
:10044000A6E9B1E001C01D92A130B207E1F70E9418
:10045000B9220C94C9280C940000CF93DF939C011F
:10046000FB019A9581159F4160F5E901CC27D17078
:10047000D901AA27B270B90166277470A90144276F
:10048000587034FF10C080E1CD2B09F480E0AB2B15
:1004900009F08062672B09F08064452B09F08068C1
:1004A000DF91CF91099481E0CD2B09F480E0AB2B53
:1004B00009F08260672B09F08460452B89F388601E
:1004C000EFCFDF91CF910895CF93DF93EC01805E62
:1004D0009109089720F06BE573E1209711F460EB28
:1004E00070E1CE010E942D028C2FDF91CF910C94F0
:1004F0001510CF93DF93EC010E946210CE01805E55
:100500009109089720F062E673E1209711F467EBF8
:1005100070E1CE01DF91CF910C942D02CF93DF9348
:10052000D82FC92F0E9464028D2F9C2FDF91CF916D
:100530000C94790281E0089581E008950C949C0266
:1005400008950C94A0021F93CF93DF9300D000D0A6
:100550000F92CDB7DEB749835A836B833091540233
:1005600089819A8131111DC06623B9F02223A9F037
:100570000E941E19182F682F89819A810E94C9181C
:1005800069817A81812F0F900F900F900F900F90BB
:10059000DF91CF911F910C94D3030E94F618182F6E
:1005A000EFCF0E941E1969817A81EDCFFC01262FC1
:1005B000408151816281738184810C94A302CF9325
:1005C000DF93D82FC92F60E00E94D6026D2F7C2FB9
:1005D000DF91CF910C94A1020E94721A811102C086
:1005E0000E94161B0E94340C0C94DD050C94E0054F
:1005F00008950E947F130E94F8022FEF84E39CE08D
:10060000215080409040E1F700C000000C94BE1CD7
:100610000F931F93CF93DF93EC0161E00E94D6020A
:100620008C01BE010E949E02882389F1BE01C8018F
:100630000E942D07882359F1BE01C8010E94BD0CFC
:10064000882329F1BE01C8010E94470D8823F9F0D3
:10065000BE01C8010E949C0D8823C9F0BE01C801DB
:100660000E946F0E882399F08A81882339F0011542
:100670008CE5180751F00F3D1C4579F0CE01DF9154
:10068000CF911F910F910C949A020E94F90280E081
:10069000DF91CF911F910F9108950E94161BF7CF04
:1006A000DF92EF92FF920F931F93CF93DF93E82F88
:1006B000F0E0EC5DFE4FD490282F269526952695E8
:1006C00030E0F901EC53FE4F0491877010E0082EE2
:1006D00002C0159507950A94E2F701701127F901F8
:1006E000EC54FE4FE490F12C082E02C0F594E794F0
:1006F0000A94E2F791E0E922FF24F901EC55FE4F5C
:10070000C491D0E002C0D595C7958A95E2F7C17033
:10071000DD270115110519F081EE0E941510E11475
:10072000F10419F086EE0E9415108D2D0E94A8107C
:10073000EF2819F086EE0E946210012B19F081EE6D
:100740000E946210CD2B51F08CE2DF91CF911F916E
:100750000F91FF90EF90DF900C94A810DF91CF9154
:100760001F910F91FF90EF90DF900895982F9F7049
:100770009A50963018F0805D0C945003895AFCCF43
:1007800008950C94C00381E008950C94C303CF93A3
:10079000C82F0E94C1038C2FCF910C94C50390E009
:1007A00080E008950895E72FF0E095E0899FE00D3F
:1007B000F11D1124EE0FFF1FEE0FFF1FE60FF11DBD
:1007C000EE0FFF1FE455FF4F859194910895FC01B2
:1007D000EE0FFF1FEC52FE4F859194910895CF9339
:1007E000DF930E94D3030E940105EC01811520E5EF
:1007F000920708F04BC0811530E4930708F0B2C0AF
:10080000803E910518F5803C910508F09FC0883A1C
:10081000910570F4853A910508F095C081309105F5
:1008200029F10497813A910508F1D0E0C0E01EC09B
:100830008F3B9105D1F3C85AD0E0CC0FDD1FCF5DBF
:10084000DE4F0990D881C02DD46410C0811540E2DC
:10085000940780F48F3F910509F040F4883E91059C
:1008600028F08D5E9109D0654397F8F6CE01DF91AF
:10087000CF910895C11580E3D80708F46DC0CE016B
:100880009927D3FD6CC0EC01D06CF0CFC11595E574
:10089000D90760F5C11524E5D20708F094C0C11549
:1008A00033E5D30778F4C11542E5D40708F07AC0E0
:1008B000C11581E5D80708F458C0DC2FCC27C16FDB
:1008C000D06AD4CFCE018370992721E030E002C0F6
:1008D000220F331F8A95E2F7C695C69590E2C99F0D
:1008E000E0011124C22BD32BDA68C0CFC1152AE551
:1008F000D207B0F4C11539E5D30708F074C0C115AB
:1009000046E5D40708F464C0CE0198558F3F9105A1
:1009100011F008F08ACFDC2FCC27C06FD06AA6CFA9
:10092000CE0190568115904208F07FCF8D2F8F71A8
:100930000E94990590E0982F882788279F719C0135
:100940002C2BE9014EC0A497D06490CF805C910914
:100950000E94E703EC018ACFCE019F70F9CFEC0132
:10096000D86C84CFDF70D06A81CFCE0174E09695C9
:1009700087957A95E1F783702C2F2695269523701D
:1009800040E2249F90011124382B8C2F8370C1E00A
:10099000D0E002C0CC0FDD1F8A95E2F7C22BD32B2B
:1009A000DC6864CFCE018370992721E030E002C07B
:1009B000220F331F8A95E2F7C695C69580E2C89F3D
:1009C000E0011124EBCFDC2FCC27C46FD06A4ECFCF
:1009D0008C2F0E949905C82FD0E0DC2FCC27CC2784
:1009E000DF71D06243CF8C2F8F700E94990534E065
:1009F000D695C7953A95E1F7CF70DC2FC82FD0690F
:100A000035CF803E910599F1C8F48133910509F401
:100A100076C048F48932910509F46AC08A3291059A
:100A200009F474C0089589339105D1F08238910595
:100A3000B9F08533910509F454C00895843E9105B9
:100A400099F138F4823E9105F9F0833E910509F160
:100A50000895863E910599F1873E9105B9F1089573
:100A6000209105032370A1F080EE90E0089520917D
:100A7000050320FD52C03091060330FF09C024FF5A
:100A80004FC090E080E004C02091050322FDF7CF25
:100A900008952091050322FD46C03091060330FDE4
:100AA000E3CF24FFF5CFEDCF2091060321FFF0CF58
:100AB0008091050384FDE5CF87EE90E008952091B5
:100AC000050323FFE5CF24FDDCCFF6CF20910503FE
:100AD00023FD2CC03091060331FFE3CF84EE90E07C
:100AE00008952091050325FFD3CF89E290E0089572
:100AF0002091050325FFCCCF85E390E00895209158
:100B0000050326FFC5CF8AE290E0089520910503F2
:100B100026FFBECF81E390E0089589E390E0089539
:100B200083EE90E0089582EE90E0089586EE90E0E6
:100B300008959091050392FF06C0282F2871283050
:100B4000F9F4877F846093FF06C0282F287128312D
:100B5000F1F4877E84612091060320FF06C0382FC0
:100B600038713830D9F4877F816021FF06C0282F83
:100B700028712831D1F4877E816194FD877E0895A4
:100B8000282F24712430F9F68B7F8860DCCF282F42
:100B90002471243101F78B7E8861DDCF382F3171CC
:100BA000313019F78E7F8860E0CF282F21712131F5
:100BB00021F78E7E8861E1CF08950C94DC050895BD
:100BC0000C94DF05E82FF0E0EE50FD4F8081089592
:100BD000089580EA8A95F1F7089500C008950C946D
:100BE000E905F894E82FE295EF70A1E2AE0FB0E0CE
:100BF0004C918F7021E030E0B90102C0660F771F81
:100C00008A95E2F7CB01962F909594239C93EE5D05
:100C1000F0E09081892B80837894089587E90E9481
:100C2000F10586EC0E94F10584E30E94F10581EF55
:100C30000E94F10587E30E94F10585E90E94F10514
:100C400087E60E94F10582E90E94F10583E90E948E
:100C5000F10585E0EDEEF2E0DF01982F1D929A9507
:100C6000E9F7E2EFF2E0DF011D928A95E9F785E00E
:100C70000E94C5060C94EC02AF92BF92CF92DF9215
:100C8000EF92FF920F931F93CF93DF930FE411E046
:100C9000D0E0C0E0B12CEE24E394F12C92EFC92E09
:100CA00092E0D92EF80181918F01F894E82FE29516
:100CB000EF70A1E2AE0FB0E02C918F70A70102C0DF
:100CC000440F551F8A95E2F7CA01922F982B9C93E7
:100CD000EE5DF0E0908180958923808378940E9476
:100CE000ED05C7010C2E01C0880F0A94EAF7782F92
:100CF000682F6095ADEEB2E023E531E0A12C9D9127
:100D0000F90181919F01E82FE295EF70E05EF0E03C
:100D1000408150E08F7002C0559547958A95E2F763
:100D2000872F892B40FF02C0862F8923981729F02F
:100D3000FD0131978083AA24A394CA16DB06F9F635
:100D4000F801319780810E94F105C33011F00E94B3
:100D5000EF05BA282196C430D10509F0A3CF2B2D79
:100D600045E062EF72E08DEE92E00E94C6060E94BE
:100D7000F6028B2DDF91CF911F910F91FF90EF9095
:100D8000DF90CF90BF90AF9008950895FF920F939A
:100D90001F93CF93DF93F82E092F162FD72FC42F31
:100DA000222349F081E080939A010E945F1C909376
:100DB00099018093980180919A018823A1F08091F4
:100DC0009801909199010E948B1C069760F0EF2D7D
:100DD000F02FA12FBD2FCF018C0F911DE817F90720
:100DE00041F410929A01DF91CF911F910F91FF90E2
:100DF000089521912D93F2CFE7EFF2E084E0808314
:100E00008FE78183828180788064828348E450E028
:100E10006FEF70E08FE991E00E948028E7EEF1E04B
:100E200088E4DF011D928A95E9F710929E011092E5
:100E30009D0110929C0110929B0108959091F702E0
:100E4000292F2F7095959595959595959F523CE0F6
:100E5000239F900D1124890F08950F931F93CF9313
:100E6000DF9300D00F92CDB7DEB7DB0187372CE5DB
:100E70009207B0F48F324CE59407D8F481E08A836E
:100E80008A810F900F900F90DF91CF911F910F915A
:100E90000895E553F74D12962C912A830C947A28E5
:100EA000FC01E757FC45E534F10598F341E04A833E
:100EB000E7CF2091F802322F331F3327331FE09101
:100EC000F902E770EE0FE32BEB832F77298312965D
:100ED000FC91FA8301ED080F10E001561E4FFF232D
:100EE000C9F00E941E078A832981482F6B8187E001
:100EF00093E00E94591DF801E85BFF4F80818F5FEE
:100F00008083F80180818F3F11F01A82B9CF2A8146
:100F10002083FBCFF8014081E85BFF4F8081815047
:100F200080838111F2CF29816B8187E093E00E9459
:100F3000691D8FEFF8018083A3CF2A81222329F333
:100F40008757982F9F708091F702807F892B80931D
:100F5000F702DBCF4A814423C1F28091F702982F38
:100F60009F7099F2915F9F70F0CF8A81882369F218
:100F70008091F702982F9F70993038F69F5FF3CFDA
:100F80002A81222311F28958982F9295907F80917F
:100F9000F7028F70DBCF4A81442309F4B6CF8091EA
:100FA000F702982F9595959595959595803B0CF41E
:100FB000ACCF915F9295907FECCF8A81882309F422
:100FC000A4CF8091F702282F259525952595259565
:100FD00080360CF09ACF91E0920F9295907F959584
:100FE000959595959595392F3295307F8F70832BF8
:100FF0008093F70212160CF088CF97FF86CF2295C8
:10100000207F8F70822BA3CF2A81222309F47DCFEA
:1010100082599CE0899F902D11249F778091F8023E
:10102000807815C04A81442309F46FCF8091F8027B
:10103000982F9F7709F469CF80789F3721F48567CF
:101040008093F80262CF9D30D8F39D509F77892B13
:10105000F7CF8A81882309F458CF8091F802982F1E
:101060009F779F3709F451CF933718F4935F9F7799
:10107000D7CF8F67E5CF2A81222309F446CF8F5936
:101080009091F80280FB97F99093F802869587700B
:101090009091F902987F892BB3C04A81442309F4C7
:1010A00034CF2091F802322F331F3327331F909112
:1010B000F902892F8770880F832B815F382F3F704B
:1010C00080FB27F92093F802832F8695987F982B31
:1010D0009093F9021ACF8A81882309F416CF2091C0
:1010E000F802322F331F3327331F9091F902892FD3
:1010F0008770880F832B8F5FE1CF2A81222309F429
:1011000004CF6091F802862F881F8827881F60917E
:10111000F9026770660F682B20E04BE787E093E0E9
:101120000E94491DF2CE4A8120E041112FE76091D3
:10113000F802862F881F8827881F6091F902677040
:10114000660F682B40E4EACF8A8120E081112FE707
:101150006091F802862F881F8827881F6091F90206
:101160006770660F682B41E4D9CF2A8121112FE7E0
:101170006091F802862F881F8827881F6091F902E6
:101180006770660F682B42E4C9CF4A81411111C0D4
:1011900020E06091F802862F881F8827881F6091C1
:1011A000F9026770660F682B43E4B8CF8A81882301
:1011B00079F32FE7EECF2A818FEF211181E0809321
:1011C0009D01A3CE4A81442309F49FCE9091F90258
:1011D000292F2695269526952F7081E0820F8F70F6
:1011E000880F880F880F9778892B8093F902982FA2
:1011F000987709F08ACE220F220F220F8778822B50
:101200008093F90282CE8A81882309F47ECE809170
:10121000F902982F987709F478CE982F969596959D
:101220009695915F9F70990F990F990F877833CF9B
:101230006091F802862F881F8827881F6091F90225
:101240006770660F682BEA8140E050EEE11117C02D
:1012500050E040E087E093E00E94791D11CE60915C
:10126000F802862F881F8827881F6091F90267700F
:10127000660F682BFA81FF2359F34FEF5FE187E098
:1012800093E00E94791D41CE87E093E00E94771F92
:1012900080919B0190919C010E948B1C9C019091DC
:1012A000F9029695969596959F709217130609F0F8
:1012B000A0F50E945F1C90939C0180939B018091FC
:1012C0009D01882351F16091F802862F881F88279D
:1012D000881F6091F9026770660F682B20919E014C
:1012E00041E087E093E00E94491D80919D0190912B
:1012F0009E0187FF0DC0482F552741950CF450954E
:10130000941715062CF410929E0110929D010895D9
:10131000890F87FD03C080939E0108958FE7FBCF5F
:101320008091350280FF12C06091050185E0689FC1
:10133000B0011124759567957595679560387105AD
:10134000A8F561157105A1F1862F089581FF09C0E7
:101350006091050185E0689FB0011124759567953E
:10136000EDCF6091050182FD0AC08091340288238F
:10137000D1F09091040160910501891728F085E072
:10138000689FB0011124DACF869FB001112485E057
:10139000869F9001879F300D1124692F70E0C9014D
:1013A0000E946628CBCF65E070E0CECF8FE708952E
:1013B00081E008958091350280FF0CC060910101A9
:1013C00070E075956795759567956115710549F19B
:1013D000862F089581FF06C06091010170E0759528
:1013E0006795F3CF6091010182FD0BC090913302AC
:1013F0009923A1F06091000180910101961738F0C6
:10140000682F70E06038710500F38FE70895899FB9
:10141000C001112470E00E946628F4CF61E070E002
:10142000D7CF81E008958D3E31F40E9490098195D7
:101430008093390208958E3E19F40E949009F8CFE6
:101440008F3E31F40E94900981958093380208956F
:10145000803F19F40E949009F8CF893F29F40E9437
:10146000DA0980933A0208958A3F21F40E94DA094A
:101470008195F7CF8B3F31F40E94DA0981958093F3
:101480003B0208958C3F19F40E94DA09F8CF9FE0DF
:10149000980F983070F4815F990B21E030E001C023
:1014A000220F8A95EAF780913702822B80933702C8
:1014B00008958D3F31F4809135028160809335022B
:1014C00008958E3F21F4809135028260F7CF8F3FDF
:1014D000B9F7809135028460F1CF409138028D3E9A
:1014E00059F48091390287FF0DC0109239024111E1
:1014F0000BC01092340208C08E3E81F480913902F4
:1015000018169CF3442381F080913A0290913B029B
:10151000892B09F05AC01092330208958F3E49F486
:1015200047FFF0CF10923802809139028111ECCF41
:10153000E0CF803F19F41416ACF3E4CF90913A0257
:10154000893F29F41916F4F610923A02DBCF8A3F4C
:1015500019F497FFD7CFF8CF90913B028B3F29F436
:1015600097FFD0CF10923B02CDCF8C3F19F41916C4
:10157000CCF3C8CF9FE0980F983090F4815F990B1F
:1015800021E030E0B90102C0660F771F8A95E2F7CB
:10159000CB01809590913702892380933702B2CF97
:1015A0008D3F31F4809135028E7F80933502AACF32
:1015B0008E3F21F4809135028D7FF7CF8F3F09F068
:1015C000A1CF809135028B7FF0CF08950E945F1CE0
:1015D0002091380230913902232B21F0809331027F
:1015E0009093320220913A0230913B02232B21F05A
:1015F00080932F029093300286E392E00C94D20EF7
:10160000CF92DF92EF92FF920F931F93CF93DF93CE
:1016100000D000D000D0CDB7DEB726E0E6E3F2E0A0
:10162000CE010196DC0101900D922A95E1F7C09060
:101630003802D0903902E0903A02F0903B021092CA
:1016400038021092390210923A0210923B022C2D6D
:101650002D298C0191F080913102909132020E94EB
:101660008B1C9C0180913402882309F440C0909126
:1016700006019217130608F448C08E2D8F2991F0A9
:1016800080912F02909130020E948B1C9C018091CE
:101690003302882309F478C090910201921713064F
:1016A00008F480C08091380290913902892B909182
:1016B0003A02892B90913B02892B11F00E94E60A95
:1016C00086E0F801A6E3B2E001900D928A95E1F779
:1016D00026960FB6F894DEBF0FBECDBFDF91CF9137
:1016E0001F910F91FF90EF90DF90CF900895409160
:1016F00007019AE0499FA00111244217530708F0FF
:10170000BCCF8F5F8093340202C08F3FD1F7CC20D3
:1017100059F00E9490099FEF1C140CF491E0899FEE
:10172000802D112480933802DD2059F00E94900909
:101730009FEF1D140CF491E0899F802D112480935C
:10174000390230913802332309F497CF20913902BE
:10175000222309F492CF45EB3403C00111249923CD
:1017600059F09093380245EB240390011124332360
:1017700039F03093390281CF81E080933802F3CF82
:1017800081E08093390279CF409103019AE0499F2B
:10179000A00111244217530708F084CF8F5F809374
:1017A000330202C08F3FD1F7EE2059F00E94DA09D0
:1017B0009FEF1E140CF491E0899F802D11248093DB
:1017C0003A02FF2059F00E94DA099FEF1F140CF42F
:1017D00091E0899F802D112480933B0230913A0241
:1017E000332309F45FCF20913B02222309F45ACF1F
:1017F00045EB3403C0011124992359F090933A0228
:1018000045EB240390011124332339F030933B023C
:1018100049CF81E080933A02F3CF81E080933B028D
:1018200041CF86E0E6E3F2E0DF011D928A95E9F719
:101830001092340210923302109235020895CF9321
:10184000DF93EC01FB0197FF0BC08281882341F0FD
:101850000E944A0CCE019F770E94A20C0E94840C29
:1018600081E0DF91CF9108958CE090E00E9487287D
:1018700090E0B0E0A0E08093FB029093FC02A09384
:10188000FD02B093FE0208956091FB028CE090E0AF
:101890000C9495280E94AA0E86958170809300036F
:1018A0009091FB02913029F4882319F089E30E947A
:1018B000A8100E94BB198093FF020E94CF1980914B
:1018C000FB028230A9F030F481110DC082EE0E943B
:1018D000151002C0843099F08FE39CE90197F1F76D
:1018E00000C00000089588E193E00E948E02F4CFCA
:1018F00082EE0E94151087E50E94A810EDCF86EEBB
:101900000E94A81088E1F8CF8091FB02823019F084
:1019100030F481110AC082EE0E94621002C084304D
:1019200079F08091FF020C94CC198CE20E94A810EF
:10193000809100038823A9F389E30E94A810F1CFC6
:1019400088E2FBCF0F931F93CF93DF938C01CCE002
:10195000D0E0C8010C2E02C0969587950A94E2F754
:101960008F700E94B6032497CC3F8FEFD80789F77A
:10197000DF91CF911F910F9108950F931F93CF93F4
:10198000DF93EC018B01FB018281882361F00E94CF
:10199000BB19CE01825E9C458530910520F4809371
:1019A000FB020E94440CB801CE01DF91CF911F9140
:1019B0000F910C941F0C0F931F93CF93DF93C42FA1
:1019C000D22FFC0182818823C9F040933E020E94FD
:1019D0005F1C90933D0280933C0280E28C0F883024
:1019E00008F050C0C77081E001C0880FCA95EAF7BF
:1019F000DF91CF911F910F910C94B01010913E0286
:101A0000141335C080913C0290913D020E948B1CC2
:101A10008E3B910560F5C0E2CD0F1D17B9F080E255
:101A2000810F883040F4177081E001C0880F1A954B
:101A3000EAF70E94B710C83048F481E09D2F9770F4
:101A400001C0880F9A95EAF70E94B010802F0E947B
:101A5000A810C830B8F4D77081E001C0880FDA95BB
:101A6000EAF7DF91CF911F910F910C94B71080E2AC
:101A70008C0F883038F4C77081E001C0880FCA9598
:101A8000EAF7EFCFDF91CF911F910F9108950F9358
:101A90009C01CB01243F4CE53407A1F190F4293D92
:101AA000FCE53F0749F12A3D4CE53407E9F1283DC3
:101AB0003C45C1F0FC0182818823E1F110923E0295
:101AC00019C0263FFCE53F0719F1273F4CE53407D5
:101AD00029F1253F3C4571F707E225EE44EE65EF1D
:101AE0007CE505C006E221EE41EE68ED7CE50E9452
:101AF000DB0C80E00F91089507E225EE45EE69EDDD
:101B00007CE5F5CF06E221EE40EE64EF7CE5EFCF19
:101B100006E221EE42EE66EF7CE5E9CF07E225EE34
:101B200046EE67EF7CE5E3CF08E221E045EE6AEDA3
:101B30007CE5DDCF81E0DECFCF93DF93EC01FB01CD
:101B40008281882309F4C9C0C631FCE5DF07E0F4CF
:101B5000C2309CE5D907F0F00E94851A90930603E5
:101B600080930503C631ECE5DE0720F5C230FCE5C5
:101B7000DF0798F480910503909106030E94931A61
:101B80000E947F1380E006C09E012B5F3C452930F8
:101B9000310510F3DF91CF910895FE01E350FC452C
:101BA000809105038160E331F10588F4E05FF64D33
:101BB0000C947A28CB5FDC45C930D105D8F6CD5DD1
:101BC000D64DFE010C947A288091050382608093A3
:101BD0000503D0CF809105038460F9CF8091050380
:101BE0008860F5CF80910603816080930603C2CFA1
:101BF000809106038260F9CF809105038061E7CF71
:101C0000809105038062E3CF809105038064DFCF7C
:101C10000E947F13809105038068D9CF80910503CE
:101C20008C60D5CF809106038360DFCF8091050360
:101C30008E7FCDCF809105038D7FC9CF8091050325
:101C40008B7FC5CF80910503877FC1CF809106032D
:101C50008E7FCBCF809106038D7FC7CF8091050308
:101C60008F7EB5CF809105038F7DB1CF8091050325
:101C70008F7BADCF0E947F13809105038F77A7CF15
:101C800080910503837FA3CF809106038C7FADCF26
:101C90008091050382FB992790F921E0922790FB20
:101CA00082F990FB83F993CF80910603982F90954A
:101CB00091708E7F892B90FB81F997CF0E947F13C3
:101CC00090910503892F97FB87F9805880CF81E099
:101CD0000E94181B4FCF80E0FBCF81E05BCFCF93FA
:101CE000DF93EB0186319C4511F50E94BB199A8167
:101CF000992399F08A7A91E009F490E090933F0259
:101D0000811109C089E20E9496190E940D1A80E093
:101D1000DF91CF91089585E3F6CF80913F02811145
:101D200004C089E20E949D19F0CF85E3FBCF81E0DA
:101D3000EFCF90934502809344020895E0914402CE
:101D4000F0914502309721F00190F081E02D099447
:101D500080E00895E0914402F0914502309711F43B
:101D600080E008950190F081E02D09950895DC014F
:101D7000E0914402F0914502309799F08091200162
:101D8000882351F08091050387FF06C08C9111963E
:101D90008C93119785E08C930280F381E02DCD0127
:101DA00009940895DC01E0914402F09145023097D6
:101DB00039F082E08C930480F581E02DCD01099407
:101DC000089520914202309143022817390771F09B
:101DD0009093430280934202E0914402F0914502C5
:101DE000309721F00680F781E02D09940895209125
:101DF0004002309141022817390771F09093410257
:101E000080934002E0914402F0914502309721F026
:101E10000084F185E02D099408950E946B1C609365
:101E20005002709351028093520290935302609338
:101E30004C0270934D0280934E0290934F0208958E
:101E400085B7806885BF85B7806885BF0895089588
:101E500008950C94270F08950C942B0F0E94200FC7
:101E600080E79AE10E94E21C0E94280F0C94290F3F
:101E700081E008950C94380F089508950E94561C2F
:101E80000E940E060E94E71C0C942C0FAF92BF928A
:101E9000CF92DF92EF92FF920F931F93CF93DF9336
:101EA00000D000D00F92CDB7DEB70E943C0F0E9449
:101EB0003D0F0E943C0681110E940D0F87E4A82E61
:101EC00082E0B82E10E000E0C02E802F0E94E205D4
:101ED000F82EF501E1905F01E81609F44EC08091FB
:101EE000C90281FD0E94E8058E2D8F25D12CEE249C
:101EF000E394982F9E21E1F10E943A0F882399F0F4
:101F0000D982CA82FE2081E009F480E08B830E949E
:101F10005F1C8160782F9D838C8349815A816B81FE
:101F20008D810E94E40FF801E95BFD4F8081E82676
:101F3000E0820E94000B0E9444090E949E0E909134
:101F40004602891789F10E949E0E809346020F90E7
:101F50000F900F900F900F90DF91CF911F910F91E5
:101F6000FF90EF90DF90CF90BF90AF900C94C7039D
:101F7000D394EE0CF4E0DF12BCCF0F5F1F4F05309F
:101F8000110509F0A1CF8FEF89838A831B820E94FC
:101F90005F1C8160782F9D838C8349815A816B817E
:101FA0008D810E94E40FC5CF0F900F900F900F907E
:101FB0000F90DF91CF911F910F91FF90EF90DF90E5
:101FC000CF90BF90AF900895CF93DF93CDB7DEB79A
:101FD0002B970FB6F894DEBF0FBECDBF4F83588747
:101FE00069877A878B8761110E94E0191E8285E0DC
:101FF000FE013796DE01119601900D928A95E1F768
:1020000049815A816B817C818D819E812B960FB68F
:10201000F894DEBF0FBECDBFDF91CF910C94DD15DC
:10202000FC01808191810C946019CF93C82F882383
:1020300009F446C08CEF8C0F813AA0F46C2F80918C
:102040000801909109010E94311B882329F08C2FEF
:102050000E949D190E940D1A8C2F0E949619CF91F3
:102060000C940D1A80E28C0F883048F4C77081E020
:1020700001C0880FCA95EAF70E94BE19F0CF8BE520
:102080008C0F833038F42C2F2452330BC901CF919D
:102090000C94E10EE8E5EC0FE73150F4F0E0EE0FC0
:1020A000FF1FE85AFE4F80819181CF910C94F70E6B
:1020B000CD3E30F08C2F0E94130ACF910C94E60A8B
:1020C000CF910895882361F19CEF980F913A20F405
:1020D0000E949D190C940D1A90E2980F983050F4BC
:1020E000877091E001C0990F8A95EAF7892F0E94C5
:1020F000C419F0CF9BE5980F933020F490E080E076
:102100000C94E10E98E5980F973120F490E080E070
:102110000C94F70E8D3E20F00E946D0A0C94E60A96
:1021200008951F93CF93DF93182FEB010E94151092
:10213000209731F4812FDF91CF911F910C94621081
:102140008FE99FE00197F1F700C000002197F0CFE1
:1021500070E060E0893311F460E570E00C94911058
:10216000882321F00E94BE190C940D1A089588232B
:1021700021F00E94C4190C940D1A0895AF92BF92D9
:10218000CF92DF92EF92FF920F931F93CF93DF9343
:1021900000D000D00F92CDB7DEB76C016D8379838C
:1021A000FC011281058102950F700E94B419E82E7E
:1021B0008823A1F0E12E112389F08981807F80346A
:1021C00029F08D81805EE12C883040F082E00E9411
:1021D000581A0E94B41991E0E82EE926A980A29429
:1021E0009FE0A922B12CF501E45DF64D0C947A280C
:1021F00009810F70F981F07F11F00295007F1123A2
:10220000B1F0002361F08D81805E883018F02D815F
:10221000211109C0802F0E94BE190E940D1A8D81C4
:102220000E94151015C0802F0E94D219F6CF8D8103
:102230000E946210002361F08D81805E883018F06A
:102240004D81411133C0802F0E94C4190E940D1A84
:1022500048E0A41AB10854E0A516B10420F40E9485
:102260009E0E0E94C703EE2009F4D6C10E94B01949
:1022700080FDD2C1F60112820E94AA190E94B917EC
:10228000C6010E9433130E94AA190F900F900F905D
:102290000F900F90DF91CF911F910F91FF90EF90D2
:1022A000DF90CF90BF90AF900C94EA17802F0E94E0
:1022B000D819CCCF59815F70F52E6981607F60326B
:1022C00019F0F29480EFF8227D81772369F0713064
:1022D00049F1112391F1002351F1F601858180FF2D
:1022E0009ECF8F70858323C0112381F0011106C01A
:1022F0000E94F4198F290E94B010AACF0130C1F7B3
:102300000E94F4198F290E94FA19A2CF011106C068
:102310000E94031A8F2D0E94B7109ACF013009F442
:1023200097CFF6CF112329F0063008F091CF8F2DEB
:10233000E2CF053008F08CCFEDCF002359F3FD81BB
:10234000F93349F42FEF47EE53E02150404050401D
:10235000E1F700C000008D810E94621079CF898171
:1023600086958695837069F0813009F071CF8D81F3
:1023700099819370111102C090E080E00E94F70EE5
:1023800067CF8D8199819370111102C090E080E038
:102390000E94E10E5DCF8D81112329F00E94130A66
:1023A0000E94E60A55CF0E946D0AFACF8981837098
:1023B00009F050C011114CCF4D81429546954770A0
:1023C000440F440F8D818F7090E0B0E0A0E0042EA8
:1023D00004C0880F991FAA1FBB1F0A94D2F76D81F2
:1023E00000E010E0980164FF0FC00FE010E020E073
:1023F00030E004C0000F111F221F331F4A95D2F78F
:102400000095109520953095798176957695737025
:102410007D83B901A801482B592B6A2B7B2B49835B
:102420005A836B837C835D8169817A818B819C81F6
:10243000523051F0533059F0513019F00E942F179B
:1024400007CF0E94071704CF0E94571701CF0E94A1
:102450000517FECE112309F445C0698160FFF8CE4F
:102460004D81429546954770440F440F8D818F7082
:1024700090E0B0E0A0E0042E04C0880F991FAA1FCE
:10248000BB1F0A94D2F7ED8100E010E09801E4FF51
:102490000FC00FE010E020E030E004C0000F111F7B
:1024A000221F331F4A95D2F700951095209530953D
:1024B000F981F695F695F370FD83B901A801482BD3
:1024C000592B6A2B7B2B49835A836B837C83F23095
:1024D000A1F0F330C9F0F13049F0CB01BA010E940C
:1024E0007818B6CE798171FFB3CEBACF69817A817F
:1024F0008B819C810E945018ABCE69817A818B813F
:102500009C810E94A018A4CE69817A818B819C81D4
:102510000E9483179DCE59815F705983112329F042
:10252000852F0E94B9178D81E6CE8D810E94B7104C
:1025300089810E94EA178CCE6D81623F99F160F427
:10254000603FD9F0613F39F1112309F444C0011112
:1025500066CE89818F7123C07D81733F41F1743FC5
:1025600099F7112371F189818F7189830E94B917BD
:1025700063E089810E94431A6BCE112341F005303C
:1025800008F066CE89818F710E941F1861CE0630D7
:1025900008F05ECEF7CF89818F71112351F20E942E
:1025A000B91756CE89818F711123C9F3C2CF112378
:1025B00029F089818F710E9494174ACE0E948F174B
:1025C00047CE81E00E94581A023008F441CE82E0E2
:1025D0000E94581A3DCE002361F09D81993309F085
:1025E000BACEEFEFF7EE23E0E150F0402040E1F704
:1025F000B0CE89818F719DCF49814F706D81C601A9
:102600000E94CF030E94771623CE49814F706D81BF
:10261000C6010E94D2031CCE0F900F900F900F9016
:102620000F90DF91CF911F910F91FF90EF90DF906E
:10263000CF90BF90AF9008950F931F93CF93DF93E8
:10264000EC01688179818A810E946C198C010E9459
:10265000C8180E940417B801CE01DF91CF911F91D5
:102660000F910C94BE10CF93DF93EC018B819C8172
:10267000892B29F08981988189238F3F59F4DF9133
:10268000CF910895CE010E941C13CE01DF91CF910E
:102690000C94DF02CE010E9408038111F3CF0E9447
:1026A000B419882361F38A81882349F382E0DF919A
:1026B000CF910C94581A882321F00E94D2190C94BF
:1026C0000D1A0895882321F00E94D8190C940D1A30
:1026D000089590E080E00E94E10E90E080E00E948A
:1026E000F70E0E94E0190E94F1190E940D1A0E9433
:1026F000110C0C94E60A0E94A4190C9469130E9410
:10270000CF190C947B13282F892F82958F70903CC2
:1027100080F48A30B0F4843020F4823090F480E089
:1027200008958630E1F781E0283E88F0213FB9F72F
:102730000EC08C3011F08F3091F793FB882780F911
:10274000089581E0203F39F018F4283E40F70895BD
:10275000243F29F7FCCF08950E9460190C9483133D
:10276000CF93DF9300D000D00F92CDB7DEB70F909C
:102770000F900F900F900F90DF91CF910895CF930E
:10278000DF9300D000D000D0CDB7DEB726960FB6CD
:10279000F894DEBF0FBECDBFDF91CF9108951F9398
:1027A000CF93DF93E091550216E0809156028E138D
:1027B00004C0DF91CF911F910895CE2FD0E01E9FCE
:1027C000F0011124E95AFD4F4081518162817381EA
:1027D000848195810E94BF13FE013196E770E5CF99
:1027E00040918702509188026091890270918A021B
:1027F00080918B0290918C020C94BF131F93CF9306
:10280000DF9380918C02807FA9F4809189028823D4
:1028100089F080915502C0915602709187026091B3
:102820008802A0918A02B0918B02D62FD72316E09E
:10283000C81304C0DF91CF911F91089590E01097C5
:1028400011F0DF3F19F401968770F2CF189F9001C5
:10285000199F300D1124F901E95AFD4F418164138C
:10286000F2CF40814713EFCF42814111ECCF43813A
:1028700054814A1B5B0B4E3B510528F780918C021B
:102880008F70806180938C02F901E45AFD4F808142
:102890008F708061808387E892E00E943313DF911C
:1028A000CF911F910C94CF13AF92BF92CF92DF9232
:1028B000EF92FF920F931F93CF93DF93CDB7DEB7C5
:1028C0002B970FB6F894DEBF0FBECDBF8C0185E00D
:1028D000F801DE01179601900D928A95E1F7F80153
:1028E000E28087E8A82E82E0B82E60918A0270917B
:1028F0008B026115710549F0909187024091880221
:10290000892F84238F3F09F041C1EE2009F451C182
:102910008F8198850E94AC13F82E882309F449C151
:1029200086E0F801A7E8B2E001900D928A95E1F700
:1029300087E892E00E9410100E94FE1324C180914B
:102940008C02582F507F6E3B710508F07AC05111F0
:10295000B5C0FE2C241324C0931322C0E11020C064
:102960008F70806180938C020E94F01387E892E060
:102970000E94331380918C02F80185838F2D2B9652
:102980000FB6F894DEBF0FBECDBFDF91CF911F9180
:102990000F91FF90EF90DF90CF90BF90AF90089590
:1029A000CD2829F0822F83238F3F09F084C080E057
:1029B000F82FF170DF2EE09155024091560256E05B
:1029C00080FD1CC0EE20D1F280918C02816080934A
:1029D0008C02F12CD3CF8E2F90E05E9FF00111245A
:1029E000E95AFD4F6181261306C06081361303C08A
:1029F00062816E11E7CFFC013196E770E413EBCFF3
:102A00008F8198850E946019292F22952F7090320E
:102A100060F0225F2F70223078F49F7051F0F8013F
:102A20009581907F31F4D12C0AC09F7011F08823DA
:102A3000D1F3805E8830B8F3C8010E943313FD2CB7
:102A40009DCF51116EC04F81588569857A858B85E0
:102A50000E94B01387E892E00E94331386E0F501EC
:102A600011928A95E9F70E94F013B3CF86E0F8013E
:102A7000A7E8B2E001900D928A95E1F77FCF8F81B0
:102A800098850E94AC1381113DC080918C028160B9
:102A900080938C02C8010E94331370CF4F815885F8
:102AA00069857A858B850E94B01386E0F5011192C5
:102AB0008A95E9F768C081E08E257ACF241306C095
:102AC000931304C0F801EE2009F451C08F8198855A
:102AD0000E94AC13882309F46CC0EE2009F469C08D
:102AE00080918C02803270F02091870230918802B0
:102AF0003A8329831B82DD82CC828E83CE010196AC
:102B00000E94331386E0F801A7E8B2E001900D922D
:102B10008A95E1F70E94FE130E94F013FF24F394BC
:102B20002DCF2413D3CF9313D1CFE110CFCFF80102
:102B30008583C8010E94331386E0F50111928A95BE
:102B4000E9F71CCF24139BCF931399CF80918C026C
:102B500080FD8CCF982F907F09F488CFF801858372
:102B6000903F31F0982F907F905F8F70892B8583F5
:102B7000C8010E94331386E0F801A7E8B2E0019093
:102B80000D928A95E1F70E94F013F8CE30812181F1
:102B9000C380D480F0908902F601E61BF70BBF01D9
:102BA000F110CDCE6E3B710508F078CFFE2CE11010
:102BB000C9CFC8010E943313B1CF1F93CF93DF93C6
:102BC000CDB7DEB72C970FB6F894DEBF0FBECDBFE2
:102BD0004F83588769877A878B879C87CE010796B2
:102BE0000E945414882369F08A859B85892B39F0CB
:102BF00058854F81852F84238F3F09F071C016E0DF
:102C00005FC086E0FE013796DE01119601900D92BD
:102C10008A95E1F78A859B85892B89F38F81988531
:102C200089238F3F61F32091560230E0C90101965C
:102C300087709927409155024817190671F40E9430
:102C40007F13109256021092550286E0E7E8F2E0F8
:102C5000DF011D928A95E9F7D2CF96E0929FD001CD
:102C6000939FB00D1124A95ABD4FFE0131960190DA
:102C70000D929A95E1F7809356020E94CF13BFCF31
:102C8000819FC0011124895A9D4F0E9454148823AA
:102C9000E9F0E09155021E9FF0011124E95AFD4F21
:102CA0004081518162817381848195810E94BF132B
:102CB0008091550290E00196877099278093550284
:102CC00080915502909156028913DACF2C960FB657
:102CD000F894DEBF0FBECDBFDF91CF911F91089555
:102CE00069857A858B859C850E94BF1388CFEF927A
:102CF000FF920F931F93CF93DF938C01892B89F061
:102D0000F12CEE24E394E8012196F80184918437B4
:102D100009F458C0A0F4823009F43FC048F481306F
:102D2000D1F0DF91CF911F910F91FF90EF90089517
:102D30009CEF980F9037A8F70E9415100AC08537AE
:102D400009F44EC09CE7980F903758F78F770E9490
:102D500062108E0116C00E5F1F4FFE01849190E23B
:102D6000980F983060F48770FE2D01C0FF0F8A9590
:102D7000EAF78F2F0E94E3190E940D1A02C00E94E9
:102D800015108F2D882309F4BECFEFE9FFE03197AE
:102D9000F1F700C000008150F5CF0E5F1F4FFE011C
:102DA000849190E2980F983050F48770FE2D01C006
:102DB000FF0F8A95EAF78F2F0E94E919DDCF0E9455
:102DC0006210DFCF0E5F1F4FFE01C491CC23C9F20A
:102DD0008FE99FE00197F1F700C00000C150F6CFE6
:102DE0000E5F1F4FFE01F490CCCF08950C94F516A2
:102DF0000E94F6166093A0027093A1028093A20233
:102E00009093A3020C94691308950C94F816CF9331
:102E1000DF9300D000D0CDB7DEB769837A838B8390
:102E20009C838091A0029091A102A091A202B091F6
:102E3000A30229813A814B815C81282B392B4A2BB3
:102E40005B2B29833A834B835C83CA01B9010F90C2
:102E50000F900F900F90DF91CF910C94F816CF93B5
:102E6000DF9300D000D0CDB7DEB769837A838B8340
:102E70009C838091A0029091A102A091A202B091A6
:102E8000A30229813A814B815C81282339234A237B
:102E90005B2329833A834B835C83CA01B9010F907A
:102EA0000F900F900F90DF91CF910C94F816CF9365
:102EB000DF9300D000D0CDB7DEB769837A838B83F0
:102EC0009C838091A0029091A102A091A202B09156
:102ED000A30229813A814B815C81282739274A271F
:102EE0005B2729833A834B835C83CA01B9010F9026
:102EF0000F900F900F90DF91CF910C94F8160C94D7
:102F0000F5160C947F170E94811760939C027093B2
:102F10009D0280939E0290939F020C94691360E03F
:102F200070E0CB010C9483170F931F93CF93DF9323
:102F300000D000D0CDB7DEB741E050E060E070E0F7
:102F40008A019B0104C0000F111F221F331F8A95A5
:102F5000D2F709831A832B833C83C901B8010F90F0
:102F60000F900F900F90DF91CF911F910F910C94C4
:102F700083170F931F93CF93DF9300D000D0CDB76B
:102F8000DEB741E050E060E070E004C0440F551F40
:102F9000661F771F8A95D2F780919C0290919D02BF
:102FA000A0919E02B0919F028A019B01082B192BD0
:102FB0002A2B3B2B09831A832B833C83C901B8013D
:102FC0000F900F900F900F90DF91CF911F910F9165
:102FD0000C9483170F931F93CF93DF9300D000D0EF
:102FE000CDB7DEB741E050E060E070E004C0440FD0
:102FF000551F661F771F8A95D2F7409550956095AB
:10300000709580919C0290919D02A0919E02B0913A
:103010009F028A019B01082319232A233B2309834A
:103020001A832B833C83C901B8010F900F900F9036
:103030000F90DF91CF911F910F910C9483170F93F5
:103040001F93CF93DF9300D000D0CDB7DEB741E020
:1030500050E060E070E004C0440F551F661F771F0A
:103060008A95D2F780919C0290919D02A0919E0238
:10307000B0919F028A019B01082719272A273B2725
:1030800009831A832B833C83C901B8010F900F90E9
:103090000F900F90DF91CF911F910F910C94831798
:1030A000CF93DF9300D000D0CDB7DEB769837A83AA
:1030B0008B839C8380919C0290919D02A0919E02A3
:1030C000B0919F0229813A814B815C81282B392B59
:1030D0004A2B5B2B29833A834B835C83CA01B9015A
:1030E0000F900F900F900F90DF91CF910C9483175A
:1030F000CF93DF9300D000D0CDB7DEB769837A835A
:103100008B839C8380919C0290919D02A0919E0252
:10311000B0919F0229813A814B815C812823392318
:103120004A235B2329833A834B835C83CA01B90119
:103130000F900F900F900F90DF91CF910C94831709
:10314000CF93DF9300D000D0CDB7DEB769837A8309
:103150008B839C8380919C0290919D02A0919E0202
:10316000B0919F0229813A814B815C8128273927C0
:103170004A275B2729833A834B835C83CA01B901C1
:103180000F900F900F900F90DF91CF910C948317B9
:103190000895E92FEE0FEE0FE80F8E2F877041E0B4
:1031A00001C0440F8A95EAF7E695E695E69585E035
:1031B000E89FF0011124E357FD4F30E020E070E07C
:1031C0005191DF011197CB01022E02C09695879590
:1031D0000A94E2F7817081958527842385278C9353
:1031E0002F5F3F4F2530310559F70895E92FEE0F36
:1031F000EE0FE80F9E2F9770E695E695E69585E031
:10320000E89FF0011124E357FD4F50E040E080E0DB
:10321000219130E0092E02C0369527950A94E2F7F5
:1032200021703327042E01C0220F0A94EAF7822B63
:103230004F5F5F4F4530510559F70895BF92CF92C8
:10324000DF92EF92FF920F931F93CF93DF938C0146
:10325000C0909C02D0909D02E0909E02F0909F0250
:103260008091A0029091A102A091A202B091A3022C
:10327000C82AD92AEA2AFB2ACFE1D0E0BC2ED701FE
:10328000C6010C2E04C0B695A795979587950A940C
:10329000D2F780FD0EC0219788F7B12C8B2DDF91DE
:1032A000CF911F910F91FF90EF90DF90CF90BF9043
:1032B0000895B8018C2F0E94EF03019761F3EECFC0
:1032C000CF93DF93D82FC92F0E941E196D2F7C2F0B
:1032D000DF91CF910C94EF031F93CF93DF93162FC1
:1032E000D72F90915402992339F0862F972FDF9191
:1032F000CF911F910C946019882391F0862F972FFE
:103300000E941E19C82F682F812F9D2F0E94C91857
:10331000612F7D2F8C2FDF91CF911F910C94EF03A4
:10332000862F972F0E94F618C82FF2CF682F809112
:103330000801909109010C94B51B682F8091080138
:10334000909109010C94C01B809108019091090192
:103350000C94CB1B8091A402859585958595089545
:103360008091A402877008959091A402977081E0E3
:1033700009F480E008958091C80208959091C802F0
:10338000982B9093C8020895982F90958091C80229
:1033900089238093C80208958093C80208951092EB
:1033A000C80208959091C702982B9093C702089580
:1033B000982F90958091C70289238093C702089522
:1033C0001092C70208959091C602982B9093C6025E
:1033D0000895982F90958091C60289238093C60204
:1033E00008951092C60208958091A5020895089547
:1033F0000C94F7199091A502981721F08093A502DB
:103400000C94F81908958091A502882329F0109250
:10341000A50280E00C94F8190895E0910801F0915C
:1034200009018091C8028083E0910801F0910901AF
:1034300080819091C702892B8083E0910801F091EF
:10344000090180819091C602892B80839091A50209
:10345000992381F0E0910801F09109018081892B85
:10346000808380910801909109010E941D1B8111A8
:103470000E94031A80910801909109010C94B70EE3
:1034800008950C94401A98E0899F90011124622BB2
:103490006093A4020E94B9178091A4028595859536
:1034A00085950C94411A1092A40280E00C94411A64
:1034B0009091A402809589238093A402282F2770DD
:1034C00071F4282F082E000C330B9217130639F0D5
:1034D0008595859585950E94EA170C94531A089551
:1034E00080E0089590E080E00E948F289C0181E0B8
:1034F0002B3E3E4F09F080E0089582E090E00C946E
:10350000872883E090E00C948728CF9384E090E0B4
:103510000E948728C82F81E290E00E948728982F78
:103520008C2FCF910895CF93682FC92F84E090E01E
:103530000E9495286C2F81E290E0CF910C94952801
:10354000AB01BC018FE090E00C94A728AB01BC015B
:1035500083E190E00C94A72860E070E0CB010C942C
:10356000A61A60E070E0CB010E94A01A0C94AC1A7D
:103570006BEE7EEF90E080E00E94B32860E082E096
:1035800090E00E94952860E083E090E00E949528FA
:103590001092A0021092A1021092A2021092A30215
:1035A00060E084E090E00E94952860E081E290E095
:1035B0000E94952860E085E090E00E94952860E0F8
:1035C00086E090E00E9495286FEF87E090E00E94EF
:1035D000952840E050E0BA0188E090E00E94A728DA
:1035E00060E08DE090E00E94952840E050E0BA0154
:1035F00088E190E00E94A72860E087E190E00E94C7
:10360000952840E050E0BA018CE190E00E94A728A4
:1036100060E080E290E00E94952840E050E0BA012E
:1036200088E190E00E94A7280C94B11A0C94B81A73
:10363000682F8EE090E00C949528FC0132968091E2
:103640002001882321F0809105039EE187FF96E009
:1036500080E0915008F4089521912223D1F38F5FE7
:10366000F8CF9C01662301F1809120018823F1F0BD
:103670008091050387FF1AC0462F469546954695CB
:10368000603F90F4677081E090E002C0880F991F5E
:103690006A95E2F7240F311DF901228130E02823D9
:1036A000392381E0232B71F480E00895F9013296EB
:1036B000285F3F4F8191861721F0E217F307D1F77A
:1036C000F3CF81E008959C01FC0132968FEF90E0EA
:1036D0004191461751F08F3F19F4411101C0892FD4
:1036E0009F5F9630A9F78F3F09F40895280F311D89
:1036F00087FD3A95F901628308959C01FC01329699
:10370000285F3F4F8191861303C0DF0111971C9200
:10371000E217F307B9F70895FC01862F8695869581
:103720008695603F60F4E80FF11D677021E030E09E
:1037300001C0220F6A95EAF78281822B8283089565
:10374000FC01862F869586958695603F68F4E80F84
:10375000F11D677081E090E001C0880F6A95EAF77B
:1037600080959281892382830895209120012223CC
:1037700029F02091050327FD0C948C1B0C94631BEE
:1037800020912001222329F02091050327FD0C948C
:10379000A01B0C947D1BFC01329680912001882394
:1037A00051F08091050387FF06C08EE1DF011D9275
:1037B0008A95E9F7089586E0F9CF089508950C9465
:1037C000DE1B8091F803843049F10E94DF1B80E00A
:1037D0000E94C7031092CA0288E190E020E40FB66D
:1037E000F894A895809360000FBE2093600083B783
:1037F000817F846083BF83B7816083BF789488951D
:1038000083B78E7F83BF0FB6F894A8958091600030
:10381000886180936000109260000FBE0895089543
:10382000CF930E94DD1B0E943C060E940F1CC0E04B
:103830008C2F0E94E205811105C0CF5FC530C1F712
:10384000CF91089581E0FCCF08950C94241C0E9430
:103850007F130E949E0E0E94C7030C94251C1F928A
:103860001FB61F9211248F939F93AF93BF938091A4
:10387000CA02811113C08091010390910203A091AB
:103880000303B09104034196A11DB11D8093010370
:1038900090930203A0930303B0930403BF91AF91ED
:1038A0009F918F911F901FBE1F90189582E084BD3D
:1038B00093E095BD9AEF97BD80936E0008952FB762
:1038C000F8948091010390910203A0910303B091B9
:1038D00004032FBF0895CF93DF9300D000D0CDB75E
:1038E000DEB78FB7F8942091010330910203409125
:1038F00003035091040329833A834B835C838FBF76
:1039000069817A818B819C810F900F900F900F902D
:10391000DF91CF9108959C014FB7F89480910103F6
:1039200090910203A0910303B09104034FBF821B47
:10393000930B089578941F921FB61F9211248F93B2
:103940009F93AF93BF938091010390910203A09145
:103950000303B09104030196A11DB11D80930103DF
:1039600090930203A0930303B0930403BF91AF911C
:103970009F918F911F901FBE1F90189581E080939B
:10398000E00080E28093D8001092C9008FE19EE4AD
:103990000197F1F700C0000087E090EBDC01809315
:1039A000010490930204A0930304B093040488E1FB
:1039B0009CE00FB6F894A895809360000FBE90939A
:1039C0006000FFCF90939701809396010895CF9365
:1039D000DF9300D000D0CDB7DEB70E94721A8111FC
:1039E00002C00E94161B0E947D1A8093C9020E9489
:1039F000851A90930603809305030E94811A282F4D
:103A000030E050E040E0CA01B9010E940517809102
:103A10009C0290919D02A0919E02B0919F02898389
:103A20009A83AB83BC83BC01CD010F900F900F90A4
:103A30000F90DF91CF910C948117881F8827881FE2
:103A40000895982F81E0983F08F480E00895982F1A
:103A5000907F903D69F070F4903B31F038F4903AEB
:103A600019F0807E803899F483E00895903C79F4D1
:103A700082E00895903EC1F3903F49F4EFE0E80FF3
:103A8000813F28F0F0E0EA57FE4F8081089580E002
:103A900008950F93DC01022F0F77242F2F776F707B
:103AA000462F406BED91FC9163E070E009950F911A
:103AB00008950F93DC01022F0F77242F2F776F705B
:103AC000462F4069ED91FC9163E070E009950F91FC
:103AD00008950F93DC01022F0F77242F2F776F703B
:103AE000462F4068ED91FC9163E070E009950F91DD
:103AF00008950F931F93DC019A01411580E2580746
:103B0000C4F44115504EC4F0305E8901000F012FFE
:103B1000001F110B11952F776F70462F406EED919E
:103B2000FC91119763E070E0CD0109951F910F9111
:103B300008952FEF3FE3E9CF30E020E0E6CFFC012E
:103B4000738362830895FC01758F648F0895CF930A
:103B5000DF93EC011DA21FA21EA2BC01685D7F4F76
:103B600040EC88519F4F0E94AB1F1B821A821D821E
:103B70001C821F821E82198618861B861A861D8645
:103B80001C861F861E86198A188A1B8A1A8A1D8A15
:103B90001C8A1F8A1E8A198E188E1B8E1A8E1D8EE5
:103BA0001C8E1F8E1E8E19A218A2DF91CF91089530
:103BB000EF92FF920F931F93CF93DF93EA017A0165
:103BC000E60EF11C8C0108511F4FCE15DF0539F4AC
:103BD000DF91CF911F910F91FF90EF900895699120
:103BE000C8010E94B21FF1CFFC0171836083089568
:103BF000FC0171A360A30895AF92BF92CF92DF92B0
:103C0000EF92FF920F931F93CF93DF9300D00F9209
:103C1000CDB7DEB77C016B01142FB22EA02EDC01D4
:103C200095968C9195978430A9F55A96ED91FC91D3
:103C30003097E9F1CB01019763E070E00E945228D0
:103C4000CB01880F991F860F971F4983BA820B8378
:103C50004C2D481B9E012F5F3F4FBC01C7010995AA
:103C6000D7015E96ED91FC91309731F00A2D2B2D06
:103C7000412FB601C70109950F900F900F90DF916A
:103C8000CF911F910F91FF90EF90DF90CF90BF9059
:103C9000AF9008956230710509F452C06330710528
:103CA00099F06130710509F47AC0D12CC12CD7018B
:103CB0005C96ED91FC91309799F20A2D2B2D412FB6
:103CC000B601C7010995CCCF842F807F803BF1F0EE
:103CD00058F4803931F1803A49F1803841F7D70101
:103CE0001696ED91FC9116C0803E29F1803FF9F6C1
:103CF000423FE9F6D7011C96ED91FC91202F4B2D08
:103D000062EF3097A1F2C7010995AACFD7011296A9
:103D1000ED91FC91309759F22A2D4B2D612F6F7048
:103D2000F2CFD7011496ED91FC91F4CFD7011896FC
:103D3000ED91FC91EFCFD7011A96ED91FC91EACF6E
:103D4000842F807F803D81F0803F99F0803C09F096
:103D5000AECFD7011E96ED91FC91309709F4A7CF15
:103D60004B2D612F6F7010C0D7015096ED91FC91D3
:103D7000F4CF433F61F4D7015296ED91FC914B2D66
:103D8000612F309709F493CFC701099569CF413F5F
:103D900009F08DCFD7015496ED91FC91F0CF842F8F
:103DA0000E94211D882359F0D7015696ED91FC9170
:103DB000309709F47CCF612FC701099551CF163F89
:103DC00009F075CFD7015896ED91FC91F1CFFF9294
:103DD0000F931F93CF93DF93EC01162F862F0E9432
:103DE000211D882391F0FDA081E08DA300E020E05B
:103DF000412F61E070E0CE010E94FC1DFDA2DF9129
:103E0000CF911F910F91FF900895812F0E941D1D4A
:103E10004DA1882309F443C0443029F01AA381E05E
:103E200090E09FA38EA3812F0E94271D823069F10D
:103E3000D0F481111EC0103F51F1173FB1F42EA1F3
:103E40003FA1C90163E070E00E945228FE01E80F23
:103E5000F91F12A3B9016F5F7F4F7FA36EA30CA15F
:103E60002BA14AA10DC0833081F01DA21FA21EA26A
:103E7000C6CF81E08DA300E020E0412F61E070E03B
:103E8000CE010E94FC1D1DA2BACF8DA3B8CF84E045
:103E90008DA31AA381E090E09FA38EA3B0CF44230B
:103EA00009F4ADCF2EA13FA1C90163E070E00E94EB
:103EB0005228FE01E80FF91F12A3B9016F5F7F4F6F
:103EC0007FA36EA38130910569F0029709F097CF27
:103ED0000CA12BA14AA1CE010E94FC1D8DA1843012
:103EE000C9F68DCF00E0423009F089CFF2CFCF92F2
:103EF000DF92EF92FF920F931F93CF93DF93EC012A
:103F0000E8A1F9A1309709F009956E0188EEC80E75
:103F1000D11CC6010E94E11F10E000E0E82EF12C48
:103F20000E151F0548F0DF91CF911F910F91FF9063
:103F3000EF90DF90CF90089560E0C6010E94F51FDA
:103F4000682FCE010E94E71E61E0C6010E94052095
:103F50000F5F1F4FE5CFFC0142837483638311829F
:103F6000108208951F93CF93DF93EC01162F0E94C8
:103F70001C20282FE981F0E0CF0101966A8170E0D2
:103F80000E94662838813817190641F4822F0E9452
:103F90001F2080E0DF91CF911F9108958B819C813C
:103FA000E80FF91F10839981892F90E001966A81AB
:103FB00070E00E9466288983822F0E941F2081E082
:103FC000E9CFCF93DF93EC010E941C2099812881D7
:103FD000921740F0C92FC21B0E941F208C2FDF9127
:103FE000CF910895CA819C0FF5CFFC018081860F87
:103FF0009927991F628170E00E946628238134818D
:10400000280F391FF901808108951F93CF93DF9303
:10401000EC01162F0E941C20282F8881810F9927E0
:10402000991F6A8170E00E9466288883822FDF9141
:10403000CF911F910C941F208FB7F89408958FBFD4
:104040000895089508950F931F93CF93DF9300D0A1
:1040500000D000D00F92CDB7DEB7182F092FCE01B8
:1040600001960E94B42281110BC027960FB6F894D6
:10407000DEBF0FBECDBFDF91CF911F910F9108958D
:104080008A810E94271D682F8A818D838B818E8370
:104090008C818F8361110AC02981243079F0273007
:1040A00069F0263069F061E02530C9F6AE014B5F5A
:1040B0005F4F812F902F0E94D81DD1CF63E0F6CFA4
:1040C00062E0F4CFDF92EF92FF920F931F93CF93B2
:1040D000DF9300D000D0CDB7DEB77B01142FD22EF6
:1040E0004A832B830C83842F0E94271D811129C0B2
:1040F00082E0E816F10401F183E0E816F10439F0FA
:10410000EA94EF2869F485E0173F21F404C087E0C2
:10411000073F09F084E08983CE0101960E94AF2217
:104120000F900F900F900F90DF91CF911F910F91F3
:10413000FF90EF90DF90089587EFD812EBCF86E0E5
:10414000EACF12951F701983E7CF0E94FC0687E023
:1041500093E00E94A71D62E670E287E093E00E9470
:10416000F41D63E270E287E093E00E94F81D61E2D3
:1041700070E287E093E00E94A31D62E270E287E0B4
:1041800093E00C949F1DFC01CB012091F803243097
:10419000B1F421812F702093E90050E040E064E009
:1041A00070E00E947C2381110BC09091E80095FD86
:1041B00007C09091E8009E779093E800089582E010
:1041C0000895FC018091F803843089F481818F7017
:1041D0008093E9009091F3008091F200892B49F0DF
:1041E0008091E8008E778093E8000C94222582E08D
:1041F000089580E00895FC018091F803843059F41B
:1042000081818F708093E9008091E80080FF03C076
:10421000CF010C94E1200895FC01CB012091F8031B
:10422000243011F080E0089526812F702093E9005A
:104230002091E80022FFF6CF2091E80025FFF2CF81
:1042400050E040E064E070E00E94CB238091E80001
:1042500085FD05C08091E8008B778093E80081E0C0
:1042600008958091EB020895CF93DF9300D00F92D1
:10427000CDB7DEB79091F803943019F589836A833E
:104280007B8382E08093E9008FEF9091E80081507A
:1042900095FD06C095ED9A95F1F700008111F5CFD7
:1042A0008091E80085FF0DC050E040E063E070E0E1
:1042B000CE0101960E947C238091E8008E77809346
:1042C000E8000F900F900F90DF91CF910895BC01FF
:1042D00084E00C943421BC0183E00C94342122E06E
:1042E0002093E9002FEF3091E800215035FD06C002
:1042F00035ED3A95F1F700002111F5CF2091E80056
:1043000025FF0BC050E040E066E070E00E947C2397
:104310008091E8008E778093E8000895CF93DF9333
:10432000D82FC92F809120018823C1F180910503E6
:1043300087FF34C060E282E08093E9008FEF9091C4
:10434000E800815095FD06C095ED9A95F1F70000C3
:104350008111F5CF8091E80085FF1DC0809120017B
:1043600070E050E040E0811104C050E040E068E0BF
:1043700070E08D2F9C2F0E947C238091E8008E7727
:104380008093E80080E2ED2FFC2FABECB2E00190CF
:104390000D928A95E1F7DF91CF91089568E081E071
:1043A000CBCF8091F703811109C00E9453250E9451
:1043B000B0258091E20084608093E200089510921D
:1043C000F703089508950895089542E061EC81E0AF
:1043D0000E94CF2442E261EC82E00E94CF2442E3BB
:1043E00061E883E00E94CF2442E361E884E00C941A
:1043F000CF248091FA03893089F148F4823009F49E
:104400009DC0833009F458C0813041F008958A304E
:1044100009F484C08B3009F46AC008958091F903CF
:10442000813A09F048C08091E800877F8093E800D6
:104430008091FD039091FE03892B61F460E28BEC87
:1044400092E070E00E941A248091E8008B778093BC
:10445000E800089560E090E080E0F3CF8091F903F8
:10446000813249F58091FD039091FE03029718F582
:104470008091E800877F8093E8008091E80082FFC8
:1044800016C09091F3008091F200029729F4809178
:10449000F1008B7F813021F48091F1008093EB0259
:1044A0008091E8008B778093E8000C94032580913D
:1044B000F8038111E2CF08958091F903813AD9F789
:1044C0008091FD039091FE03892BA9F78091E8006C
:1044D000877F8093E8008091E80080FFFCCF809187
:1044E00020018093F1008091E8008E77DCCF8091ED
:1044F000F903813201F78091FD039091FE03892B2E
:10450000D1F68091E800877F8093E8000E94032520
:104510008091FB03809320010C947F138091F90319
:10452000813249F68091E800877F8093E8000E94FD
:1045300003258091FC038093EC0208958091F90398
:10454000813A09F0B8CF8091E800877F8093E80036
:104550008091E80080FFFCCF8091EC02C2CFBC01CB
:104560008AE091E00C94C320BC018AE091E00C94B5
:104570000C210E94A52084B7877F84BF0FB6F894D2
:10458000A89580916000886180936000109260001F
:104590000FBE80E890E00FB6F8948093610090938E
:1045A00061000FBE0E942E0F0E9453250E94B0256D
:1045B0008091E20084608093E20078940E94372822
:1045C0000E943E0F86E191E00E94990E8091F803CF
:1045D0008530C9F00E94460F8AE091E00E94FB20DE
:1045E0000E943C0F0E943D0FF1CF0E94E11B809181
:1045F000F603882341F00E94101C882321F00E94BA
:1046000066230E947F138091F803853071F30E9426
:10461000271CE0CF0C940C23FC01CB01DA012F2FD7
:10462000332723303105D1F070F42130310509F4FE
:104630003EC02230310569F48FE990E020E232E09B
:104640002D933C93089521323105E9F02232310552
:1046500021F190E080E030E020E0F2CFCF01992717
:10466000E13059F08230910559F0ECE1F2E0892B0C
:1046700081F7849190E09F01E3CFE0E0F2E0F9CF91
:10468000E4EDF1E0F6CF892BB9F06130710509F75F
:1046900089E090E02BE432E0D3CF892B91F06130B8
:1046A0007105B9F686EB90E021ED32E0C9CF82E1E9
:1046B00090E02FEB32E0C4CF89E090E022E332E0DB
:1046C000BFCF80E490E027E833E0BACF80E189BD36
:1046D00082E189BD09B400FEFDCF8091D8008F7DB5
:1046E0008093D8008091E00082608093E000809108
:1046F000E00081FDFCCF0895AF92BF92CF92DF9290
:10470000FF920F931F93CF93DF936C01EB018A010C
:104710000E942225F82E811123C00115110539F0C0
:10472000F80180819181C81BD90BC80ED91EB12C0C
:10473000A12C2097A9F08091E80085FD22C08091EE
:10474000E8008E778093E80001151105A1F0F801CB
:1047500080819181A80EB91EB182A08285E0F82ED9
:104760008F2DDF91CF911F910F91FF90DF90CF9010
:10477000BF90AF9008950E9422258823D1F2F82E91
:10478000EFCFF60181916F018093F1002197FFEF48
:10479000AF1ABF0ACECFAF92BF92CF92DF92FF92F5
:1047A0000F931F93CF93DF936C01EB018A010E945B
:1047B0002225F82E811123C00115110539F0F801C9
:1047C00080819181C81BD90BC80ED91EB12CA12C98
:1047D0002097A9F08091E80085FD22C08091E80033
:1047E0008B778093E80001151105A1F0F801808115
:1047F0009181A80EB91EB182A08285E0F82E8F2D7E
:10480000DF91CF911F910F91FF90DF90CF90BF90DC
:10481000AF9008950E9422258823D1F2F82EEFCF81
:104820008091F100F60181936F012197FFEFAF1A9C
:10483000BF0ACECFFC01CB012091FF0330910004D1
:104840002617370790F0009729F42091E8002E777B
:104850002093E80040E0009751F4411108C0809196
:10486000E80082FF31C080E00895C901F3CF2091B4
:10487000F8032223A9F12530A9F12091E80023FDB6
:104880002DC02091E80022FDEACF2091E80020FF12
:10489000E2CF3091F3002091F200009719F0283018
:1048A000310558F041E02830310509F040E0209111
:1048B000E8002E772093E800CECF41914093F1009D
:1048C00001972F5F3F4FE9CF8091F803882341F094
:1048D000853041F08091E80083FFC1CF81E00895E9
:1048E00082E0089583E00895FC01CB012091FF034D
:1048F000309100042617370790F0009729F4209193
:10490000E8002E772093E80040E0009751F4411131
:1049100008C08091E80082FF32C080E00895C9019C
:10492000F3CF2091F8032223B1F12530B1F120918A
:10493000E80023FD2EC02091E80022FDEACF20915F
:10494000E80020FFE2CF3091F3002091F2000097C1
:1049500019F02830310558F041E02830310509F0D0
:1049600040E02091E8002E772093E800CECF4491DC
:104970004093F100319601972F5F3F4FE8CF809130
:10498000F803882341F0853041F08091E80083FFEF
:10499000C0CF81E0089582E0089583E00895982FC4
:1049A000973028F08F708093E90081E0089590930C
:1049B000E900242F762F50E0981731F07091EC0029
:1049C0002091ED005091F00021FD02C09F5FE8CFE3
:1049D0003091EB003E7F3093EB003091ED003D7F56
:1049E0003093ED003091EB0031603093EB00709329
:1049F000EC002093ED005093F0002091EE0027FD95
:104A0000E5CF80E008958091F90387FF13C080917E
:104A1000E80082FF06C08091E8008B778093E80071
:104A200004C08091F8038111F2CF08958091F803BA
:104A30008823D9F38091E80080FFF8CF8091E800C7
:104A40008E77ECCF2091E4003091E50095E6A90146
:104A50002091EC00822F817020FF06C08091E80039
:104A600080FF06C080E008952091E80022FD1AC072
:104A70008091F803882389F0853089F08091EB00DC
:104A800085FD0FC02091E4003091E50042175307E7
:104A9000F9F29150E1F684E0089582E0089583E010
:104AA000089581E008950E94C1250E94C925E0EE85
:104AB000F0E0808181608083E8EDF0E080818F7795
:104AC000808319BCA7EDB0E08C918E7F8C938081A0
:104AD0008F7E80831092F70308950F931F93CF93D7
:104AE000DF930E94C1250E94C925C8EDD0E08881CE
:104AF0008F77888388818068888388818F7D888389
:104B000019BC1092F8031092F4031092F60310925D
:104B1000F50300EE10E0F80180818B7F80838881AF
:104B20008160888342E060E080E00E94CF24E1EE73
:104B3000F0E080818E7F8083E2EEF0E08081816012
:104B40008083808188608083F80180818E7F80836C
:104B5000888180618883DF91CF911F910F910895A3
:104B6000E8EDF0E080818F7E8083E7EDF0E08081EA
:104B70008160808384E082BF81E08093F7030C949E
:104B80006D25E8EDF0E080818E7F80831092E20059
:104B900008951092DA001092E10008951F920F928A
:104BA0000FB60F9211242F933F934F935F936F9300
:104BB0007F938F939F93AF93BF93EF93FF938091D6
:104BC000E10082FF0BC08091E20082FF07C080916C
:104BD000E1008B7F8093E1000E9436288091DA000B
:104BE00080FF19C08091D80080FF15C08091DA0045
:104BF0008E7F8093DA008091D90080FF94C080E19D
:104C000089BD82E189BD09B400FEFDCF81E08093BA
:104C1000F8030E94D1218091E10080FF19C08091AA
:104C2000E20080FF15C08091E2008E7F8093E20059
:104C30008091E20080618093E2008091D8008062E0
:104C40008093D80019BC85E08093F8030E94E3218B
:104C50008091E10084FF29C08091E20084FF25C09B
:104C600080E189BD82E189BD09B400FEFDCF80915C
:104C7000D8008F7D8093D8008091E1008F7E809353
:104C8000E1008091E2008F7E8093E2008091E2005B
:104C900081608093E2008091F403882309F449C085
:104CA00084E08093F8030E94E4218091E10083FF77
:104CB00029C08091E20083FF25C08091E100877FB9
:104CC0008093E10082E08093F8031092F4038091D6
:104CD000E1008E7F8093E1008091E2008E7F8093DF
:104CE000E2008091E20080618093E20042E060E0B7
:104CF00080E00E94CF248091F00088608093F000D3
:104D00000E94E221FF91EF91BF91AF919F918F910E
:104D10007F916F915F914F913F912F910F900FBEB7
:104D20000F901F90189519BC1092F8030E94DF2174
:104D300072CF8091E30087FD02C081E0B2CF83E0B3
:104D4000B0CF1F920F920FB60F9211242F933F9363
:104D50004F935F936F937F938F939F93AF93BF9383
:104D6000CF93DF93EF93FF93D091E900DF708091B1
:104D7000EC00C82FC17080FDC0E81092E90080915E
:104D8000F000877F8093F00078940E94E5261092CF
:104D9000E9008091F00088608093F000CD2BCF7007
:104DA000C093E900FF91EF91DF91CF91BF91AF9157
:104DB0009F918F917F916F915F914F913F912F9133
:104DC0000F900FBE0F901F9018951F93CF93DF93F6
:104DD000CDB7DEB7AA970FB6F894DEBF0FBECDBF32
:104DE00089EF93E0FC0101962091F100208324E0FB
:104DF00081309207B9F70E94F9218091E80083FF82
:104E00001DC18091F9039091FA039A3008F016C100
:104E1000E92FF0E0E45CF64D0C947A28803899F0A4
:104E2000823809F00BC18091FD038F70873008F044
:104E300005C18093E9008091EB0085FB882780F90C
:104E40001092E90006C08091F5039091F60391114C
:104E500082609091E800977F9093E8008093F10042
:104E60001092F1008091E8008E77E4C0882309F465
:104E7000D2C0823009F0E2C08091FB038111D5C01D
:104E80008091FD038F702FEF280F263008F0D6C0D9
:104E90008093E9002091EB0020FFC7C0933031F4EC
:104EA0008091EB0080628093EB00BFC09091EB009B
:104EB00090619093EB0021E030E001C0220F8A95D1
:104EC000EAF72093EA001092EA008091EB008860F4
:104ED000EACF8111B3C01091FB031F778091E300EB
:104EE0008078812B8093E3008091E800877F809316
:104EF000E8000E9403258091E80080FFFCCF8091AC
:104F0000E30080688093E30082E0111183E08093E6
:104F1000F80394C08058823008F090C08091FB0361
:104F20009091FC038C3D23E0920799F583E08A83FE
:104F30008AE289834FB7F894DE01139620E03EE0C1
:104F400051E2E32FF0E050935700849120FF03C01B
:104F500082958F703F5F8F708A30C8F0895C90E0D7
:104F60008D939D932F5F243161F74FBF8091E800AF
:104F7000877F8093E8006AE270E0CE0101960E948C
:104F80001A248091E8008B778093E80057C0805DF9
:104F9000E6CF6091FD037091FE03AE014F5F5F4F5E
:104FA0000E940A23BC01892B09F448C08091E800C3
:104FB000877F8093E80089819A810E947424E1CFE1
:104FC0008038E1F58091E800877F8093E800809148
:104FD000F4038093F10046CF811130C09091FB0320
:104FE000923060F58091E800877F8093E80090938D
:104FF000F4030E9403258091F403882311F084E0D8
:1050000005C08091E30087FDFACF81E08093F8032B
:105010000E94E52113C08091FB03813079F481E087
:10502000933009F080E08093F6031092E9008091BC
:10503000E800877F8093E8000E9403258091E800C4
:1050400083FF0AC08091E800877F8093E800809109
:10505000EB0080628093EB00AA960FB6F894DEBF57
:105060000FBECDBFDF91CF911F9108950895CF93CB
:105070008091F8038823A1F0C091E900CF7090914E
:10508000EC00892F817090FD80E8C82B1092E90018
:105090008091E80083FD0E94E526CF70C093E9006F
:1050A000CF910895AA1BBB1B51E107C0AA1FBB1FCC
:1050B000A617B70710F0A61BB70B881F991F5A95A4
:1050C000A9F780959095BC01CD01089597FB072E17
:1050D00016F4009407D077FD09D00E94522807FCEF
:1050E00005D03EF4909581959F4F089570956195F8
:1050F0007F4F0895EE0FFF1F0590F491E02D099466
:10510000DC0101C06D9341505040E0F70895F999DA
:10511000FECF92BD81BDF89A992780B50895A8E188
:10512000B0E042E050E00C94BB28262FF999FECF66
:1051300092BD81BDF89A019700B4021639F01FBAEA
:1051400020BD0FB6F894FA9AF99A0FBE0895039607
:10515000272F0E9496280E949528252F0E94962886
:10516000242F0C9496280196272F0E9496280C94A1
:105170009528DC01CB01FC01F999FECF06C0F2BDF8
:10518000E1BDF89A319600B40D9241505040B8F705
:105190000895F894FFCF9D079D079D079D079D07E4
:1051A0009D079D079D079D079D07AA07B507C00797
:1051B000C007C007C007C007C007C007C007C007B7
:1051C000C007C007C007C007CB07DD0704080408F5
:1051D000040804080408040804080408040804086F
:1051E0000408120829083B083B083B083B083B0819
:1051F0003B083B083B083B083B083B083B083B0897
:105200003B083B083B084D086B087D089308A40841
:10521000B508C508D608DB08E208030918092F09F4
:10522000E40DEA0DEE0DFC0D000E040E080E0E0E40
:10523000160E1A0E1E0E220E2E0E320E360E3A0EBE
:10524000400E5E0E480EF20DF80D260E2A0E120EBE
:10525000440E540E670E6B0EF810F8105A115A11C6
:10526000AF11CB1128112811D6118B129C129C1250
:10527000FC122811281105130E2736271E28362761
:0C5280001E2869278A271E28E027EC273B
:10528C002808641E140A321EA60203834000000183
:10529C0004400000010031218E216F216B21672118
:1052AC0001E200E900EA00B500B600B700CD0083CA
:1052BC0001CC008A019201940121022302240225CF
:1052CC0002260227022A02B300B4006F0070009776
:1052DC00C634F13795679293E200E900EA00B50015
:1052EC00B600B700CD008301CC008A019201940175
:1052FC002102230224022502260227022A02B300DD
:10530C00B4006F00700002030200000100010101F3
:06531C0001010001010087
:00000001FF
