:100000000C948A010C94D1010C94D1010C94D1016F
:100010000C94D1010C94D1010C94D1010C94D10118
:100020000C94D1010C94D1010C945B1E0C942E1FE6
:100030000C9439190C94D1010C94D1010C94D10178
:100040000C94D1010C94D1010C94D1010C94D101E8
:100050000C94D1010C94A4190C94D1010C94D101ED
:100060000C94D1010C94D1010C94D1010C94D101C8
:100070000C94D1010C94D1010C94D1010C94D101B8
:100080000C94D1010C94D1010C94D1010C94D101A8
:100090000C94D1010C94D1010C94D1010C94D10198
:1000A0000C94D1010C94D1010C94D1015F0060003B
:1000B000610056005C005D005E00570059005A0068
:1000C0005B005400530062006300550000005800BC
:1000D0002E00000000000000000000002A2B280075
:1000E00000000000000000000000000000000029E7
:1000F000000000002C1E3420212224342627252E27
:10010000362D3738271E1F2021222324252633335E
:10011000362E37381F0405060708090A0B0C0D0E8A
:100120000F101112131415161718191A1B1C1D2F56
:100130003130232D350405060708090A0B0C0D0E76
:100140000F101112131415161718191A1B1C1D2F36
:100150003130354C000000000000000000000000BD
:10016000000000000000000000000000000000008F
:1001700000000000000000007E0F00D4FFFFFFC75A
:10018000000000782A03740065006D0070006F00A5
:100190005F0074007500720074006C0065002F0031
:1001A0006200720061006400700061006400000081
:1001B0001A034D0041004E00550046004100430027
:1001C0005400550052004500520000000403090489
:1001D00009023B00020100A0FA090400000103012A
:1001E00001000921110100012240000705810308D7
:1001F000000A0904010001030000000921110100A7
:100200000122B6000705820320000A120110010036
:100210000000087474706201000102000105010908
:1002200002A10185020901A100050919012908158A
:100230000025019508750181020501093009311574
:1002400081257F95027508810609381581257F95DE
:100250000175088106050C0A38021581257F950174
:1002600075088106C0C005010980A1018503190137
:100270002AB700150126B700950175108100C00549
:100280000C0901A101850419012AA002150126A06B
:1002900002950175108100C005010906A1018505BF
:1002A000050719E029E71500250195087501810268
:1002B0000507190029EF1500250195F07501810248
:1002C0000508190129059505750191029501750328
:1002D0009101C005010906A101050719E029E715EB
:1002E00000250195087501810295017508810105B8
:1002F00007190029FF150026FF00950675088100E3
:1003000005081901290595057501910295017503E7
:100310009101C00011241FBECFEFDAE0DEBFCDBFD8
:1003200004B603FE27C08091600290916102A09103
:100330006202B09163028730904BA740B04BD1F47A
:100340001092600210926102109262021092630297
:1003500014BE84B7877F84BF0FB6F894A8958091A8
:100360006000886180936000109260000FBEE0E042
:10037000F8E3099511E0A0E0B1E0EEE0F3E402C09B
:1003800005900D92AA37B107D9F722E0AAE7B1E0AC
:1003900001C01D92A036B207E1F70E949B1B0C948E
:1003A0004F210C940000CF93DF939C01FB019A95A1
:1003B00081159F4160F5E901CC27D170D901AA27A9
:1003C000B270B90166277470A9014427587034FFD0
:1003D00010C080E1CD2B09F480E0AB2B09F08062E6
:1003E000672B09F08064452B09F08068DF91CF917D
:1003F000099481E0CD2B09F480E0AB2B09F08260F9
:10040000672B09F08460452B89F38860EFCFDF917B
:10041000CF910895CF93DF93EC01805E9109089707
:1004200020F065E670E1209711F46AEB7DE0CE01E3
:100430000E94D3018C2FDF91CF910C941F0DCF938D
:10044000DF93EC010E946C0DCE01805E910908974C
:1004500020F06CE670E1209711F461EC7DE0CE01B4
:10046000DF91CF910C94D301CF93DF93D82FC92F75
:100470000E940A028D2F9C2FDF91CF910C941F02B6
:1004800081E0089581E008950C94420208950C944F
:1004900046021F93CF93DF9300D000D00F92CDB7C9
:1004A000DEB749835A836B833091A40189819A8195
:1004B00031111DC06623B9F02223A9F00E9428162D
:1004C000182F682F89819A810E94D31569817A81BA
:1004D000812F0F900F900F900F900F90DF91CF9181
:1004E0001F910C9473030E940016182FEFCF0E94E7
:1004F000281669817A81EDCFFC01262F4081518138
:100500006281738184810C944902CF93DF93D82F49
:10051000C92F60E00E947C026D2F7C2FDF91CF916C
:100520000C9447020E947C17811102C00E9420187F
:100530000E9440090C947D050C94800508950E944A
:1005400089100E949E022FEF84E39CE0215080409E
:100550009040E1F700C000000C94C8190F931F935E
:10056000CF93DF93EC0161E00E947C028C01BE011D
:100570000E944402882359F1BE01C8010E94C909A2
:10058000882329F1BE01C8010E94530A8823F9F08B
:10059000BE01C8010E94A80A8823C9F0BE01C80193
:1005A0000E947B0B882399F08A81882339F00115FA
:1005B0008CE5180751F00F3D1C4579F0CE01DF9115
:1005C000CF911F910F910C9440020E949F0280E0F6
:1005D000DF91CF911F910F9108950E942018F7CFBE
:1005E000DF92EF92FF920F931F93CF93DF93E82F49
:1005F000F0E0EC52FF4FD490282F269526952695B3
:1006000030E0F901EC58FE4F0491877010E0082E9D
:1006100002C0159507950A94E2F701701127F901B8
:10062000EC59FE4FE490F12C082E02C0F594E794AB
:100630000A94E2F791E0E922FF24F901EC5AFE4F17
:10064000C491D0E002C0D595C7958A95E2F7C170F4
:10065000DD270115110519F081EE0E941F0DE1142F
:10066000F10419F086EE0E941F0D8D2D0E94B20D2F
:10067000EF2819F086EE0E946C0D012B19F081EE27
:100680000E946C0DCD2B51F08CE2DF91CF911F9128
:100690000F91FF90EF90DF900C94B20DDF91CF910E
:1006A0001F910F91FF90EF90DF900895982F9F700A
:1006B0009A50963018F0805D0C94F002895AFCCF65
:1006C00008950C94600381E008950C946303CF9324
:1006D000C82F0E9461038C2FCF910C94650390E08A
:1006E00080E008950895E72FF0E095E0899FE00D00
:1006F000F11D1124EE0FFF1FEE0FFF1FE60FF11D7E
:10070000EE0FFF1FE455FF4F859194910895FC0172
:10071000EE0FFF1FEC57FE4F859194910895CF93F4
:10072000DF930E9473030E94A104EC01811520E570
:10073000920708F04BC0811530E4930708F0B2C06F
:10074000803E910518F5803C910508F09FC0883ADD
:10075000910570F4853A910508F095C081309105B6
:1007600029F10497813A910508F1D0E0C0E01EC05C
:100770008F3B9105D1F3C85AD0E0CC0FDD1FCB5E83
:10078000DE4F0990D881C02DD46410C0811540E29D
:10079000940780F48F3F910509F040F4883E91055D
:1007A00028F08D5E9109D0654397F8F6CE01DF9170
:1007B000CF910895C11580E3D80708F46DC0CE012C
:1007C0009927D3FD6CC0EC01D06CF0CFC11595E535
:1007D000D90760F5C11524E5D20708F094C0C1150A
:1007E00033E5D30778F4C11542E5D40708F07AC0A1
:1007F000C11581E5D80708F458C0DC2FCC27C16F9C
:10080000D06AD4CFCE018370992721E030E002C0B6
:10081000220F331F8A95E2F7C695C69590E2C99FCD
:10082000E0011124C22BD32BDA68C0CFC1152AE511
:10083000D207B0F4C11539E5D30708F074C0C1156B
:1008400046E5D40708F464C0CE0198558F3F910562
:1008500011F008F08ACFDC2FCC27C06FD06AA6CF6A
:10086000CE0190568115904208F07FCF8D2F8F7169
:100870000E94390590E0982F882788279F719C0156
:100880002C2BE9014EC0A497D06490CF805C9109D5
:100890000E948703EC018ACFCE019F70F9CFEC0153
:1008A000D86C84CFDF70D06A81CFCE0174E096958A
:1008B00087957A95E1F783702C2F269526952370DE
:1008C00040E2249F90011124382B8C2F8370C1E0CB
:1008D000D0E002C0CC0FDD1F8A95E2F7C22BD32BEC
:1008E000DC6864CFCE018370992721E030E002C03C
:1008F000220F331F8A95E2F7C695C69580E2C89FFE
:10090000E0011124EBCFDC2FCC27C46FD06A4ECF8F
:100910008C2F0E943905C82FD0E0DC2FCC27CC27A4
:10092000DF71D06243CF8C2F8F700E94390534E085
:10093000D695C7953A95E1F7CF70DC2FC82FD069CF
:1009400035CF803E910599F1C8F48133910509F4C2
:1009500076C048F48932910509F46AC08A3291055B
:1009600009F474C0089589339105D1F08238910556
:10097000B9F08533910509F454C00895843E91057A
:1009800099F138F4823E9105F9F0833E910509F121
:100990000895863E910599F1873E9105B9F1089534
:1009A000209151022370A1F080EE90E008952091F3
:1009B000510220FD52C03091520230FF09C024FF85
:1009C0004FC090E080E004C02091510222FDF7CF9B
:1009D00008952091510222FD46C03091520230FD0F
:1009E000E3CF24FFF5CFEDCF2091520221FFF0CFCE
:1009F0008091510284FDE5CF87EE90E0089520912B
:100A0000510223FFE5CF24FDDCCFF6CF2091510228
:100A100023FD2CC03091520231FFE3CF84EE90E0F1
:100A200008952091510225FFD3CF89E290E00895E7
:100A30002091510225FFCCCF85E390E008952091CD
:100A4000510226FFC5CF8AE290E00895209151021D
:100A500026FFBECF81E390E0089589E390E00895FA
:100A600083EE90E0089582EE90E0089586EE90E0A7
:100A700008959091510292FF06C0282F28712830C6
:100A8000F9F4877F846093FF06C0282F28712831EE
:100A9000F1F4877E84612091520220FF06C0382F36
:100AA00038713830D9F4877F816021FF06C0282F44
:100AB00028712831D1F4877E816194FD877E089565
:100AC000282F24712430F9F68B7F8860DCCF282F03
:100AD0002471243101F78B7E8861DDCF382F31718D
:100AE000313019F78E7F8860E0CF282F21712131B6
:100AF00021F78E7E8861E1CF08950C947C050895DE
:100B00000C947F05E82FF0E0EE5BFD4F80810895A7
:100B1000089580EA8A95F1F7089500C008950C942D
:100B20008905F894E82FE295EF70A1E2AE0FB0E0EE
:100B30004C918F7021E030E0B90102C0660F771F41
:100B40008A95E2F7CB01962F909594239C93EE5DC6
:100B5000F0E09081892B80837894089587E90E9442
:100B6000910586EC0E94910584E30E94910581EF36
:100B70000E94910587E30E94910585E90E949105F5
:100B800087E60E94910582E90E94910583E90E940F
:100B9000910585E0EDE3F2E0DF01982F1D929A9533
:100BA000E9F7E2E4F2E0DF011D928A95E9F785E0DA
:100BB0000E9465060C949202AF92BF92CF92DF9290
:100BC000EF92FF920F931F93CF93DF9303E411E013
:100BD000D0E0C0E0B12CEE24E394F12C92E4C92ED5
:100BE00092E0D92EF80181918F01F894E82FE295D7
:100BF000EF70A1E2AE0FB0E02C918F70A70102C0A0
:100C0000440F551F8A95E2F7CA01922F982B9C93A7
:100C1000EE5DF0E0908180958923808378940E9436
:100C20008D05C7010C2E01C0880F0A94EAF7782FB2
:100C3000682F6095ADE3B2E027E431E0A12C9D91EF
:100C4000F90181919F01E82FE295EF70E05EF0E0FD
:100C5000408150E08F7002C0559547958A95E2F724
:100C6000872F892B40FF02C0862F8923981729F0F0
:100C7000FD0131978083AA24A394CA16DB06F9F6F6
:100C8000F801319780810E949105C33011F00E94D4
:100C90008F05BA282196C430D10509F0A3CF2B2D9A
:100CA00045E062E472E08DE392E00E9466060E94F5
:100CB0009C028B2DDF91CF911F910F91FF90EF90B0
:100CC000DF90CF90BF90AF9008950895FF920F935B
:100CD0001F93CF93DF93F82E092F162FD72FC42FF2
:100CE000222349F081E080937E010E94691990934C
:100CF0007D0180937C0180917E018823A1F0809109
:100D00007C0190917D010E949519069760F0EF2D6E
:100D1000F02FA12FBD2FCF018C0F911DE817F907E0
:100D200041F410927E01DF91CF911F910F91FF90BE
:100D3000089521912D93F2CF8091850180FF12C0FB
:100D40006091050185E0689FB00111247595679554
:100D50007595679560387105A8F561157105A1F164
:100D6000862F089581FF09C06091050185E0689F85
:100D7000B001112475956795EDCF6091050182FD55
:100D80000AC0809184018823D1F090910401609180
:100D90000501891728F085E0689FB0011124DACF9A
:100DA000869FB001112485E0869F9001879F300DBA
:100DB0001124692F70E0C9010E94DF20CBCF65E0CC
:100DC00070E0CECF8FE7089581E00895809185018E
:100DD00080FF0CC06091010170E075956795759575
:100DE00067956115710549F1862F089581FF06C049
:100DF0006091010170E075956795F3CF60910101F5
:100E000082FD0BC0909183019923A1F060910001B4
:100E100080910101961738F0682F70E060387105F5
:100E200000F38FE70895899FC001112470E00E94AC
:100E3000DF20F4CF61E070E0D7CF81E008958D3EF0
:100E400031F40E949C0681958093890108958E3E1D
:100E500019F40E949C06F8CF8F3E31F40E949C0644
:100E60008195809388010895803F19F40E949C0623
:100E7000F8CF893F29F40E94E60680938A010895FD
:100E80008A3F21F40E94E6068195F7CF8B3F31F42B
:100E90000E94E606819580938B0108958C3F19F49A
:100EA0000E94E606F8CF9FE0980F983070F4815FBB
:100EB000990B21E030E001C0220F8A95EAF780917A
:100EC0008701822B8093870108958D3F31F48091B3
:100ED000850181608093850108958E3F21F4809182
:100EE00085018260F7CF8F3FB9F7809185018460DB
:100EF000F1CF409188018D3E59F48091890187FF9F
:100F00000DC01092890141110BC01092840108C0DC
:100F10008E3E81F48091890118169CF3442381F060
:100F200080918A0190918B01892B09F05AC010920F
:100F3000830108958F3E49F447FFF0CF1092880156
:100F4000809189018111ECCFE0CF803F19F4141614
:100F5000ACF3E4CF90918A01893F29F41916F4F695
:100F600010928A01DBCF8A3F19F497FFD7CFF8CFD1
:100F700090918B018B3F29F497FFD0CF10928B017A
:100F8000CDCF8C3F19F41916CCF3C8CF9FE0980F42
:100F9000983090F4815F990B21E030E0B90102C0F4
:100FA000660F771F8A95E2F7CB01809590918701B4
:100FB000892380938701B2CF8D3F31F480918501E1
:100FC0008E7F80938501AACF8E3F21F48091850189
:100FD0008D7FF7CF8F3F09F0A1CF809185018B7F67
:100FE000F0CF08950E9469192091880130918901FC
:100FF000232B21F0809381019093820120918A011B
:1010000030918B01232B21F080937F0190938001FD
:1010100086E891E00C94DE0BCF92DF92EF92FF9284
:101020000F931F93CF93DF9300D000D000D0CDB7A4
:10103000DEB726E0E6E8F1E0CE010196DC010190A2
:101040000D922A95E1F7C0908801D0908901E09037
:101050008A01F0908B011092880110928901109200
:101060008A0110928B012C2D2D298C0191F08091F9
:101070008101909182010E9495199C0180918401C7
:10108000882309F440C0909106019217130608F4D2
:1010900048C08E2D8F2991F080917F019091800121
:1010A0000E9495199C0180918301882309F478C0DE
:1010B000909102019217130608F480C08091880174
:1010C00090918901892B90918A01892B90918B01B4
:1010D000892B11F00E94F20786E0F801A6E8B1E042
:1010E00001900D928A95E1F726960FB6F894DEBF2F
:1010F0000FBECDBFDF91CF911F910F91FF90EF9069
:10110000DF90CF900895409107019AE0499FA00198
:1011100011244217530708F0BCCF8F5F80938401DE
:1011200002C08F3FD1F7CC2059F00E949C069FEF60
:101130001C140CF491E0899F802D11248093880168
:10114000DD2059F00E949C069FEF1D140CF491E0E5
:10115000899F802D11248093890130918801332348
:1011600009F497CF20918901222309F492CF45EB0E
:101170003403C0011124992359F09093880145EB61
:10118000240390011124332339F03093890181CF56
:1011900081E080938801F3CF81E08093890179CF4A
:1011A000409103019AE0499FA0011124421753077F
:1011B00008F084CF8F5F8093830102C08F3FD1F707
:1011C000EE2059F00E94E6069FEF1E140CF491E009
:1011D000899F802D112480938A01FF2059F00E945D
:1011E000E6069FEF1F140CF491E0899F802D1124D7
:1011F00080938B0130918A01332309F45FCF2091D2
:101200008B01222309F45ACF45EB3403C00111248A
:10121000992359F090938A0145EB240390011124FE
:10122000332339F030938B0149CF81E080938A01D9
:10123000F3CF81E080938B0141CF86E0E6E8F1E0D7
:10124000DF011D928A95E9F71092840110928301C3
:10125000109285010895CF93DF93EC01FB0197FF76
:101260000BC08281882341F00E945609CE019F77EE
:101270000E94AE090E94900981E0DF91CF9108950C
:101280008CE090E00E940D2190E0B0E0A0E080931F
:10129000470290934802A0934902B0934A020895EE
:1012A000609147028CE090E00C941B210E94B60BE9
:1012B0008695817080934C0290914702913029F479
:1012C000882319F089E30E94B20D0E94C51680930D
:1012D0004B020E94D916809147028230A9F030F467
:1012E00081110DC082EE0E941F0D02C0843099F062
:1012F0008FE39CE90197F1F700C00000089588E1B1
:1013000093E00E943402F4CF82EE0E941F0D87E525
:101310000E94B20DEDCF86EE0E94B20D88E1F8CFAB
:1013200080914702823019F030F481110AC082EEB8
:101330000E946C0D02C0843079F080914B020C94B5
:10134000D6168CE20E94B20D80914C028823A9F33C
:1013500089E30E94B20DF1CF88E2FBCF0F931F9378
:10136000CF93DF938C01CCE0D0E0C8010C2E02C0FB
:10137000969587950A94E2F78F700E9456032497FA
:10138000CC3F8FEFD80789F7DF91CF911F910F9155
:1013900008950F931F93CF93DF93EC018B01FB0113
:1013A0008281882361F00E94C516CE01825E9C4531
:1013B0008530910520F4809347020E945009B801BE
:1013C000CE01DF91CF911F910F910C942B090F93B8
:1013D0001F93CF93DF93C42FD22FFC0182818823E8
:1013E000C9F040938E010E94691990938D018093FA
:1013F0008C0180E28C0F883008F050C0C77081E00B
:1014000001C0880FCA95EAF7DF91CF911F910F9124
:101410000C94BA0D10918E01141335C080918C017B
:1014200090918D010E949519883C910560F5C0E26C
:10143000CD0F1D17B9F080E2810F883040F417708E
:1014400081E001C0880F1A95EAF70E94C10DC830EB
:1014500048F481E09D2F977001C0880F9A95EAF7B4
:101460000E94BA0D802F0E94B20DC830B8F4D77018
:1014700081E001C0880FDA95EAF7DF91CF911F91E3
:101480000F910C94C10D80E28C0F883038F4C77036
:1014900081E001C0880FCA95EAF7EFCFDF91CF91C5
:1014A0001F910F9108950F939C01CB01243F4CE5B0
:1014B0003407A1F190F4293DFCE53F0749F12A3DAD
:1014C0004CE53407E9F1283D3C45C1F0FC0182813F
:1014D0008823E1F110928E0119C0263FFCE53F07F9
:1014E00019F1273F4CE5340729F1253F3C4571F7B9
:1014F00007E225EE44EE65EF7CE505C006E221EE4D
:1015000041EE68ED7CE50E94E70980E00F910895C7
:1015100007E225EE45EE69ED7CE5F5CF06E221EE2A
:1015200040EE64EF7CE5EFCF06E221EE42EE66EF9F
:101530007CE5E9CF07E225EE46EE67EF7CE5E3CFF9
:1015400008E221E045EE6AED7CE5DDCF81E0DECF0B
:10155000CF93DF93EC01FB018281882309F4C9C09A
:10156000C631FCE5DF07E0F4C2309CE5D907F0F0B6
:101570000E948F179093520280935102C631ECE57E
:10158000DE0720F5C230FCE5DF0798F480915102B8
:10159000909152020E949D170E94891080E006C01F
:1015A0009E012B5F3C452930310510F3DF91CF912F
:1015B0000895FE01E350FC45809151028160E331C2
:1015C000F10588F4EF5AFE4D0C94F320CB5FDC4517
:1015D000C930D105D8F6CC59DE4DFE010C94F3206C
:1015E00080915102826080935102D0CF809151024C
:1015F0008460F9CF809151028860F5CF80915202CA
:10160000816080935202C2CF809152028260F9CFF2
:10161000809151028061E7CF809151028062E3CFD7
:10162000809151028064DFCF0E9489108091510225
:101630008068D9CF809151028C60D5CF80915202C1
:101640008360DFCF809151028E7FCDCF8091510298
:101650008D7FC9CF809151028B7FC5CF8091510280
:10166000877FC1CF809152028E7FCBCF8091520273
:101670008D7FC7CF809151028F7EB5CF809151026F
:101680008F7DB1CF809151028F7BADCF0E948910A9
:10169000809151028F77A7CF80915102837FA3CF92
:1016A000809152028C7FADCF8091510282FB9927AD
:1016B00090F921E0922790FB82F990FB83F993CF78
:1016C00080915202982F909591708E7F892B90FB7C
:1016D00081F997CF0E94891090915102892F97FB31
:1016E00087F9805880CF81E00E9422184FCF80E098
:1016F000FBCF81E05BCFCF93DF93EB0186319C453D
:1017000011F50E94C5169A81992399F08A7A91E081
:1017100009F490E090938F01811109C089E20E9441
:10172000A0160E94171780E0DF91CF91089585E3FE
:10173000F6CF80918F01811104C089E20E94A71623
:10174000F0CF85E3FBCF81E0EFCF909395018093BD
:1017500094010895E0919401F0919501309721F062
:101760000190F081E02D099480E00895E0919401CA
:10177000F0919501309711F480E008950190F08187
:10178000E02D09950895DC01E0919401F091950117
:10179000309799F080911401882351F08091510283
:1017A00087FF06C08C9111968C93119785E08C93DE
:1017B0000280F381E02DCD0109940895DC01E091D0
:1017C0009401F0919501309739F082E08C93048078
:1017D000F581E02DCD010994089520919201309179
:1017E00093012817390771F0909393018093920128
:1017F000E0919401F0919501309721F00680F781F6
:10180000E02D0994089520919001309191012817BD
:10181000390771F09093910180939001E0919401C8
:10182000F0919501309721F00084F185E02D099425
:1018300008950E9475196093A0017093A10180938F
:10184000A2019093A30160939C0170939D018093EA
:101850009E0190939F01089585B7806885BF85B7E5
:10186000806885BF0895089508950C94330C0895F9
:101870000C94370C0E942C0C8AE797E10E94EC191B
:101880000E94340C0C94350C81E008950C94440CA7
:10189000089508950E9460190E94AE050E94F119F2
:1018A0000C94380CAF92BF92CF92DF92EF92FF92DE
:1018B0000F931F93CF93DF9300D000D00F92CDB73B
:1018C000DEB70E94480C0E94490C0E94DC05811181
:1018D0000E94190C87E9A82E81E0B82E10E000E0E4
:1018E000C02E802F0E948205F82EF501E1905F0145
:1018F000E81609F44CC08091190281FD0E94880508
:101900008E2D8F25D12CEE24E394982F9E21D1F19A
:101910000E94460C882399F0D982CA82FE2081E079
:1019200009F480E08B830E9469198160782F9D8380
:101930008C8349815A816B818D810E94EE0CF80164
:10194000E956FE4F8081E826E0820E940C080E9442
:10195000AA0B90919601891789F10E94AA0B809396
:1019600096010F900F900F900F900F90DF91CF91F5
:101970001F910F91FF90EF90DF90CF90BF90AF90AD
:101980000C946703D394EE0CF4E0DF12BECF0F5F2C
:101990001F4F0530110509F0A3CF8FEF89838A838C
:1019A0001B820E9469198160782F9D838C834981F5
:1019B0005A816B818D810E94EE0CC7CF0F900F90E2
:1019C0000F900F900F90DF91CF911F910F91FF908B
:1019D000EF90DF90CF90BF90AF900895CF93DF93BB
:1019E000CDB7DEB72B970FB6F894DEBF0FBECDBFD5
:1019F0004F83588769877A878B8761110E94EA161F
:101A00001E8285E0FE013796DE01119601900D924F
:101A10008A95E1F749815A816B817C818D819E8114
:101A20002B960FB6F894DEBF0FBECDBFDF91CF91DE
:101A30000C94E712FC01808191810C946A16CF937B
:101A4000C82F882309F446C08CEF8C0F813AA0F48C
:101A50006C2F80910801909109010E943B18882306
:101A600029F08C2F0E94A7160E9417178C2F0E9416
:101A7000A016CF910C94171780E28C0F883048F491
:101A8000C77081E001C0880FCA95EAF70E94C816A6
:101A9000F0CF8BE58C0F833038F42C2F2452330B8E
:101AA000C901CF910C94ED0BE8E5EC0FE73150F450
:101AB000F0E0EE0FFF1FE45BFE4F80819181CF913C
:101AC0000C94030CCD3E30F08C2F0E941F07CF9159
:101AD0000C94F207CF910895882361F19CEF980F41
:101AE000913A20F40E94A7160C94171790E2980FD1
:101AF000983050F4877091E001C0990F8A95EAF709
:101B0000892F0E94CE16F0CF9BE5980F933020F4DA
:101B100090E080E00C94ED0B98E5980F973120F45D
:101B200090E080E00C94030C8D3E20F00E94790739
:101B30000C94F20708951F93CF93DF93182FEB01B6
:101B40000E941F0D209731F4812FDF91CF911F91BB
:101B50000C946C0D8FE99FE00197F1F700C0000035
:101B60002197F0CF70E060E0893311F460E570E018
:101B70000C949B0D882321F00E94C8160C94171713
:101B80000895882321F00E94CE160C94171708950B
:101B9000AF92BF92CF92DF92EF92FF920F931F937B
:101BA000CF93DF9300D000D00F92CDB7DEB76C019A
:101BB0006D837983FC011281058102950F700E946B
:101BC000BE16E82E8823A1F0E12E112389F0898129
:101BD000807F803429F08D81805EE12C883040F058
:101BE00082E00E9462170E94BE1691E0E82EE9266C
:101BF000A980A2949FE0A922B12CF501E359FE4DE2
:101C00000C94F32009810F70F981F07F11F0029597
:101C1000007F1123B1F0002361F08D81805E883058
:101C200018F02D81211109C0802F0E94C8160E9432
:101C300017178D810E941F0D15C0802F0E94DC1682
:101C4000F6CF8D810E946C0D002361F08D81805E46
:101C5000883018F04D81411133C0802F0E94CE167C
:101C60000E94171748E0A41AB10854E0A516B10461
:101C700020F40E94AA0B0E946703EE2009F4D6C14B
:101C80000E94BA1680FDD2C1F60112820E94B416DB
:101C90000E94C314C6010E943D100E94B4160F900A
:101CA0000F900F900F900F90DF91CF911F910F9198
:101CB000FF90EF90DF90CF90BF90AF900C94F41412
:101CC000802F0E94E216CCCF59815F70F52E69817A
:101CD000607F603219F0F29480EFF8227D817723E3
:101CE00069F0713049F1112391F1002351F1F601AE
:101CF000858180FF9ECF8F70858323C0112381F063
:101D0000011106C00E94FE168F290E94BA0DAACFAB
:101D10000130C1F70E94FE168F290E940417A2CF3E
:101D2000011106C00E940D178F2D0E94C10D9ACF80
:101D3000013009F497CFF6CF112329F0063008F0CF
:101D400091CF8F2DE2CF053008F08CCFEDCF00235F
:101D500059F3FD81F93349F42FEF47EE53E0215059
:101D600040405040E1F700C000008D810E946C0DA2
:101D700079CF898186958695837069F0813009F0E5
:101D800071CF8D8199819370111102C090E080E034
:101D90000E94030C67CF8D8199819370111102C04D
:101DA00090E080E00E94ED0B5DCF8D81112329F042
:101DB0000E941F070E94F20755CF0E947907FACFB1
:101DC0008981837009F050C011114CCF4D8142952B
:101DD00046954770440F440F8D818F7090E0B0E0BE
:101DE000A0E0042E04C0880F991FAA1FBB1F0A94ED
:101DF000D2F76D8100E010E0980164FF0FC00FE0A2
:101E000010E020E030E004C0000F111F221F331F3C
:101E10004A95D2F700951095209530957981769561
:101E2000769573707D83B901A801482B592B6A2BD5
:101E30007B2B49835A836B837C835D8169817A81A3
:101E40008B819C81523051F0533059F0513019F050
:101E50000E94391407CF0E94111404CF0E9461140C
:101E600001CF0E940F14FECE112309F445C06981F1
:101E700060FFF8CE4D81429546954770440F440F60
:101E80008D818F7090E0B0E0A0E0042E04C0880F38
:101E9000991FAA1FBB1F0A94D2F7ED8100E010E042
:101EA0009801E4FF0FC00FE010E020E030E004C034
:101EB000000F111F221F331F4A95D2F7009510956E
:101EC00020953095F981F695F695F370FD83B9016B
:101ED000A801482B592B6A2B7B2B49835A836B8390
:101EE0007C83F230A1F0F330C9F0F13049F0CB013E
:101EF000BA010E948215B6CE798171FFB3CEBACFF6
:101F000069817A818B819C810E945A15ABCE69814F
:101F10007A818B819C810E94AA15A4CE69817A81E5
:101F20008B819C810E948D149DCE59815F70598355
:101F3000112329F0852F0E94C3148D81E6CE8D8157
:101F40000E94C10D89810E94F4148CCE6D81623F84
:101F500099F160F4603FD9F0613F39F1112309F440
:101F600044C0011166CE89818F7123C07D81733F8A
:101F700041F1743F99F7112371F189818F71898340
:101F80000E94C31463E089810E944D176BCE112318
:101F900041F0053008F066CE89818F710E942915C5
:101FA00061CE063008F05ECEF7CF89818F711123A4
:101FB00051F20E94C31456CE89818F711123C9F347
:101FC000C2CF112329F089818F710E949E144ACEBD
:101FD0000E94991447CE81E00E946217023008F4F3
:101FE00041CE82E00E9462173DCE002361F09D81C8
:101FF000993309F0BACEEFEFF7EE23E0E150F0406D
:102000002040E1F7B0CE89818F719DCF49814F701B
:102010006D81C6010E946F030E94811323CE498106
:102020004F706D81C6010E9472031CCE0F900F90FD
:102030000F900F900F90DF91CF911F910F91FF9014
:10204000EF90DF90CF90BF90AF9008950F931F93C4
:10205000CF93DF93EC01688179818A810E947616A3
:102060008C010E94D2150E940E14B801CE01DF919E
:10207000CF911F910F910C94C80DCF93DF93EC017A
:102080008B819C81892B29F08981988189238F3FBD
:1020900059F4DF91CF910895CE010E942610CE0110
:1020A000DF91CF910C948502CE010E94AE02811186
:1020B000F3CF0E94BE16882361F38A81882349F3F7
:1020C00082E0DF91CF910C946217882321F00E9467
:1020D000DC160C9417170895882321F00E94E2164D
:1020E0000C941717089590E080E00E94ED0B90E0AB
:1020F00080E00E94030C0E94EA160E94FB160E94D8
:1021000017170E941D090C94F2070E94AE160C943A
:1021100073100E94D9160C948510282F892F829550
:102120008F70903C80F48A30B0F4843020F4823098
:1021300090F480E008958630E1F781E0283E88F051
:10214000213FB9F70EC08C3011F08F3091F793FB1F
:10215000882780F9089581E0203F39F018F4283E5F
:1021600040F70895243F29F7FCCF08950E946A168E
:102170000C948D10CF93DF9300D000D00F92CDB789
:10218000DEB70F900F900F900F900F90DF91CF91CF
:102190000895CF93DF9300D000D000D0CDB7DEB745
:1021A00026960FB6F894DEBF0FBECDBFDF91CF915C
:1021B00008951F93CF93DF93E091A50116E08091DE
:1021C000A6018E1304C0DF91CF911F910895CE2FE9
:1021D000D0E01E9FF0011124E955FE4F408151814E
:1021E00062817381848195810E94C910FE013196BC
:1021F000E770E5CF4091D7015091D8016091D901A6
:102200007091DA018091DB019091DC010C94C9108E
:102210001F93CF93DF938091DC01807FA9F480919D
:10222000D901882389F08091A501C091A601709100
:10223000D7016091D801A091DA01B091DB01D62FCE
:10224000D72316E0C81304C0DF91CF911F910895E2
:1022500090E0109711F0DF3F19F401968770F2CFEC
:10226000189F9001199F300D1124F901E955FE4F77
:1022700041816413F2CF40814713EFCF4281411176
:10228000ECCF438154814A1B5B0B483C510528F736
:102290008091DC018F7080618093DC01F901E4554D
:1022A000FE4F80818F708061808387ED91E00E9476
:1022B0003D10DF91CF911F910C94D910AF92BF9236
:1022C000CF92DF92EF92FF920F931F93CF93DF9302
:1022D000CDB7DEB72B970FB6F894DEBF0FBECDBFDC
:1022E0008C0185E0F801DE01179601900D928A9528
:1022F000E1F7F801E28087EDA82E81E0B82E609129
:10230000DA017091DB016115710549F09091D701F7
:102310004091D801892F84238F3F09F041C1EE20DD
:1023200009F451C18F8198850E94B610F82E882338
:1023300009F449C186E0F801A7EDB1E001900D92E2
:102340008A95E1F787ED91E00E941A0D0E9408112D
:1023500024C18091DC01582F507F683C710508F042
:102360007AC05111B5C0FE2C241324C0931322C08F
:10237000E11020C08F7080618093DC010E94FA1010
:1023800087ED91E00E943D108091DC01F80185838A
:102390008F2D2B960FB6F894DEBF0FBECDBFDF9109
:1023A000CF911F910F91FF90EF90DF90CF90BF9052
:1023B000AF900895CD2829F0822F83238F3F09F015
:1023C00084C080E0F82FF170DF2EE091A5014091EC
:1023D000A60156E080FD1CC0EE20D1F28091DC0108
:1023E00081608093DC01F12CD3CF8E2F90E05E9F33
:1023F000F0011124E955FE4F6181261306C060816A
:10240000361303C062816E11E7CFFC013196E7708D
:10241000E413EBCF8F8198850E946A16292F2295AD
:102420002F70903260F0225F2F70223078F49F700E
:1024300051F0F8019581907F31F4D12C0AC09F7042
:1024400011F08823D1F3805E8830B8F3C8010E9470
:102450003D10FD2C9DCF51116EC04F81588569856F
:102460007A858B850E94BA1087ED91E00E943D101D
:1024700086E0F50111928A95E9F70E94FA10B3CF30
:1024800086E0F801A7EDB1E001900D928A95E1F7A1
:102490007FCF8F8198850E94B61081113DC08091B9
:1024A000DC0181608093DC01C8010E943D1070CF87
:1024B0004F81588569857A858B850E94BA1086E0A0
:1024C000F50111928A95E9F768C081E08E257ACFEF
:1024D000241306C0931304C0F801EE2009F451C080
:1024E0008F8198850E94B610882309F46CC0EE2075
:1024F00009F469C08091DC01803270F02091D7012D
:102500003091D8013A8329831B82DD82CC828E836D
:10251000CE0101960E943D1086E0F801A7EDB1E0E2
:1025200001900D928A95E1F70E9408110E94FA101D
:10253000FF24F3942DCF2413D3CF9313D1CFE110E5
:10254000CFCFF8018583C8010E943D1086E0F501D8
:1025500011928A95E9F71CCF24139BCF931399CF3F
:102560008091DC0180FD8CCF982F907F09F488CF7B
:10257000F8018583903F31F0982F907F905F8F70A6
:10258000892B8583C8010E943D1086E0F801A7EDE4
:10259000B1E001900D928A95E1F70E94FA10F8CE11
:1025A00030812181C380D480F090D901F601E61BEF
:1025B000F70BBF01F110CDCE683C710508F078CF64
:1025C000FE2CE110C9CFC8010E943D10B1CF1F936E
:1025D000CF93DF93CDB7DEB72C970FB6F894DEBF5D
:1025E0000FBECDBF4F83588769877A878B879C87BB
:1025F000CE0107960E945E11882369F08A859B852B
:10260000892B39F058854F81852F84238F3F09F01E
:1026100071C016E05FC086E0FE013796DE011196BC
:1026200001900D928A95E1F78A859B85892B89F324
:102630008F81988589238F3F61F32091A60130E037
:10264000C9010196877099274091A501481719067D
:1026500071F40E9489101092A6011092A50186E0E3
:10266000E7EDF1E0DF011D928A95E9F7D2CF96E020
:10267000929FD001939FB00D1124A955BE4FFE012A
:10268000319601900D929A95E1F78093A6010E94F0
:10269000D910BFCF819FC001112489559E4F0E9440
:1026A0005E118823E9F0E091A5011E9FF00111243D
:1026B000E955FE4F4081518162817381848195810A
:1026C0000E94C9108091A50190E00196877099271A
:1026D0008093A5018091A5019091A6018913DACF7D
:1026E0002C960FB6F894DEBF0FBECDBFDF91CF9111
:1026F0001F91089569857A858B859C850E94C910F4
:1027000088CFEF92FF920F931F93CF93DF938C01AB
:10271000892B89F0F12CEE24E394E8012196F8014D
:102720008491843709F458C0A0F4823009F43FC082
:1027300048F48130D1F0DF91CF911F910F91FF903C
:10274000EF9008959CEF980F9037A8F70E941F0D07
:102750000AC0853709F44EC09CE7980F903758F7A8
:102760008F770E946C0D8E0116C00E5F1F4FFE0109
:10277000849190E2980F983060F48770FE2D01C02C
:10278000FF0F8A95EAF78F2F0E94ED160E94171708
:1027900002C00E941F0D8F2D882309F4BECFEFE9E0
:1027A000FFE03197F1F700C000008150F5CF0E5FD8
:1027B0001F4FFE01849190E2980F983050F487707B
:1027C000FE2D01C0FF0F8A95EAF78F2F0E94F316A6
:1027D000DDCF0E946C0DDFCF0E5F1F4FFE01C49155
:1027E000CC23C9F28FE99FE00197F1F700C0000008
:1027F000C150F6CF0E5F1F4FFE01F490CCCF08956D
:102800000C94FF130E9400146093F0017093F10187
:102810008093F2019093F3010C94731008950C943B
:102820000214CF93DF9300D000D0CDB7DEB7698319
:102830007A838B839C838091F0019091F101A09128
:10284000F201B091F30129813A814B815C81282BFF
:10285000392B4A2B5B2B29833A834B835C83CA0138
:10286000B9010F900F900F900F90DF91CF910C94C2
:102870000214CF93DF9300D000D0CDB7DEB76983C9
:102880007A838B839C838091F0019091F101A091D8
:10289000F201B091F30129813A814B815C812823B7
:1028A00039234A235B2329833A834B835C83CA0100
:1028B000B9010F900F900F900F90DF91CF910C9472
:1028C0000214CF93DF9300D000D0CDB7DEB7698379
:1028D0007A838B839C838091F0019091F101A09188
:1028E000F201B091F30129813A814B815C81282763
:1028F00039274A275B2729833A834B835C83CA01A4
:10290000B9010F900F900F900F90DF91CF910C9421
:1029100002140C94FF130C9489140E948B1460937E
:10292000EC017093ED018093EE019093EF010C9414
:10293000731060E070E0CB010C948D140F931F9323
:10294000CF93DF9300D000D0CDB7DEB741E050E0A9
:1029500060E070E08A019B0104C0000F111F221F7C
:10296000331F8A95D2F709831A832B833C83C901CD
:10297000B8010F900F900F900F90DF91CF911F91A2
:102980000F910C948D140F931F93CF93DF9300D06E
:1029900000D0CDB7DEB741E050E060E070E004C0A9
:1029A000440F551F661F771F8A95D2F78091EC015F
:1029B0009091ED01A091EE01B091EF018A019B0190
:1029C000082B192B2A2B3B2B09831A832B833C833F
:1029D000C901B8010F900F900F900F90DF91CF9128
:1029E0001F910F910C948D140F931F93CF93DF932E
:1029F00000D000D0CDB7DEB741E050E060E070E03D
:102A000004C0440F551F661F771F8A95D2F7409563
:102A10005095609570958091EC019091ED01A09199
:102A2000EE01B091EF018A019B01082319232A23AB
:102A30003B2309831A832B833C83C901B8010F9080
:102A40000F900F900F90DF91CF911F910F910C94E9
:102A50008D140F931F93CF93DF9300D000D0CDB789
:102A6000DEB741E050E060E070E004C0440F551F65
:102A7000661F771F8A95D2F78091EC019091ED0146
:102A8000A091EE01B091EF018A019B01082719275F
:102A90002A273B2709831A832B833C83C901B8016A
:102AA0000F900F900F900F90DF91CF911F910F918A
:102AB0000C948D14CF93DF9300D000D0CDB7DEB748
:102AC00069837A838B839C838091EC019091ED01E3
:102AD000A091EE01B091EF0129813A814B815C8197
:102AE000282B392B4A2B5B2B29833A834B835C831E
:102AF000CA01B9010F900F900F900F90DF91CF9105
:102B00000C948D14CF93DF9300D000D0CDB7DEB7F7
:102B100069837A838B839C838091EC019091ED0192
:102B2000A091EE01B091EF0129813A814B815C8146
:102B3000282339234A235B2329833A834B835C83ED
:102B4000CA01B9010F900F900F900F90DF91CF91B4
:102B50000C948D14CF93DF9300D000D0CDB7DEB7A7
:102B600069837A838B839C838091EC019091ED0142
:102B7000A091EE01B091EF0129813A814B815C81F6
:102B8000282739274A275B2729833A834B835C838D
:102B9000CA01B9010F900F900F900F90DF91CF9164
:102BA0000C948D140895E92FEE0FEE0FE80F8E2F81
:102BB000877041E001C0440F8A95EAF7E695E695F3
:102BC000E69585E0E89FF0011124E352FE4F30E0E6
:102BD00020E070E05191DF011197CB01022E02C07D
:102BE000969587950A94E2F78170819585278423CD
:102BF00085278C932F5F3F4F2530310559F7089576
:102C0000E92FEE0FEE0FE80F9E2F9770E695E695F1
:102C1000E69585E0E89FF0011124E352FE4F50E075
:102C200040E080E0219130E0092E02C036952795E2
:102C30000A94E2F721703327042E01C0220F0A9470
:102C4000EAF7822B4F5F5F4F4530510559F70895E2
:102C5000BF92CF92DF92EF92FF920F931F93CF9389
:102C6000DF938C01C090EC01D090ED01E090EE017B
:102C7000F090EF018091F0019091F101A091F201AB
:102C8000B091F301C82AD92AEA2AFB2ACFE1D0E081
:102C9000BC2ED701C6010C2E04C0B695A7959795FA
:102CA00087950A94D2F780FD0EC0219788F7B12C42
:102CB0008B2DDF91CF911F910F91FF90EF90DF90BF
:102CC000CF90BF900895B8018C2F0E948F03019779
:102CD00061F3EECFCF93DF93D82FC92F0E94281630
:102CE0006D2F7C2FDF91CF910C948F031F93CF9387
:102CF000DF93162FD72F9091A401992339F0862FB7
:102D0000972FDF91CF911F910C946A16882391F031
:102D1000862F972F0E942816C82F682F812F9D2F4E
:102D20000E94D315612F7D2F8C2FDF91CF911F91A2
:102D30000C948F03862F972F0E940016C82FF2CF76
:102D4000682F80910801909109010C94BF18682F99
:102D500080910801909109010C94CA188091080192
:102D6000909109010C94D5188091F4018595859571
:102D7000859508958091F401877008959091F401EC
:102D8000977081E009F480E0089580911802089519
:102D900090911802982B909318020895982F90956F
:102DA0008091180289238093180208958093180255
:102DB000089510921802089590911702982B9093FD
:102DC00017020895982F9095809117028923809378
:102DD0001702089510921702089590911602982BE9
:102DE000909316020895982F90958091160289234A
:102DF0008093160208951092160208958091F501AD
:102E0000089508950C9401179091F501981721F0F9
:102E10008093F5010C94021708958091F5018823A1
:102E200029F01092F50180E00C9402170895E091CA
:102E30000801F0910901809118028083E091080156
:102E4000F0910901808190911702892B8083E09194
:102E50000801F0910901808190911602892B8083ED
:102E60009091F501992381F0E0910801F091090119
:102E70008081892B808380910801909109010E94B3
:102E8000271881110E940D17809108019091090166
:102E90000C94C30B08950C944A1798E0899F9001F5
:102EA0001124622B6093F4010E94C3148091F401F9
:102EB0008595859585950C944B171092F40180E0CB
:102EC0000C944B179091F401809589238093F40121
:102ED000282F277071F4282F082E000C330B92171F
:102EE000130639F08595859585950E94F4140C9408
:102EF0005D17089580E0089590E080E00E9415211C
:102F00009C0181E02B3E3E4F09F080E0089582E075
:102F100090E00C940D2183E090E00C940D21CF9370
:102F200084E090E00E940D21C82F81E290E00E9491
:102F30000D21982F8C2FCF910895CF93682FC92FF3
:102F400084E090E00E941B216C2F81E290E0CF9101
:102F50000C941B21AB01BC018FE090E00C942D215F
:102F6000AB01BC0183E190E00C942D2160E070E0A6
:102F7000CB010C94B01760E070E0CB010E94AA175F
:102F80000C94B6176BEE7EEF90E080E00E94392142
:102F900060E082E090E00E941B2160E083E090E02E
:102FA0000E941B211092F0011092F1011092F20187
:102FB0001092F30160E084E090E00E941B2160E049
:102FC00081E290E00E941B2160E085E090E00E9499
:102FD0001B2160E086E090E00E941B216FEF87E0FC
:102FE00090E00E941B2140E050E0BA0188E090E0B0
:102FF0000E942D2160E08DE090E00E941B2140E0C6
:1030000050E0BA0188E190E00E942D2160E087E164
:1030100090E00E941B2140E050E0BA018CE190E07A
:103020000E942D2160E080E290E00E941B2140E0A0
:1030300050E0BA0188E190E00E942D210C94BB176A
:103040000C94C217682F8EE090E00C941B21FC01B9
:10305000329680911401882321F0809151029EE1E3
:1030600087FF96E080E0915008F408952191222393
:10307000D1F38F5FF8CF9C01662301F18091140199
:103080008823F1F08091510287FF1AC0462F4695A0
:1030900046954695603F90F4677081E090E002C0ED
:1030A000880F991F6A95E2F7240F311DF9012281DB
:1030B00030E02823392381E0232B71F480E0089548
:1030C000F9013296285F3F4F8191861721F0E21770
:1030D000F307D1F7F3CF81E008959C01FC0132960C
:1030E0008FEF90E04191461751F08F3F19F4411155
:1030F00001C0892F9F5F9630A9F78F3F09F408958B
:10310000280F311D87FD3A95F901628308959C01CE
:10311000FC013296285F3F4F8191861303C0DF0187
:1031200011971C92E217F307B9F70895FC01862F57
:10313000869586958695603F60F4E80FF11D67706F
:1031400021E030E001C0220F6A95EAF78281822BEC
:1031500082830895FC01862F869586958695603F2B
:1031600068F4E80FF11D677081E090E001C0880FFE
:103170006A95EAF780959281892382830895209148
:103180001401222329F02091510227FD0C94961856
:103190000C946D1820911401222329F020915102E2
:1031A00027FD0C94AA180C948718FC013296809184
:1031B0001401882351F08091510287FF06C08EE1EF
:1031C000DF011D928A95E9F7089586E0F9CF089509
:1031D00008950C94E81880915702843049F10E94B8
:1031E000E91880E00E94670310921A0288E190E0DB
:1031F00020E40FB6F894A895809360000FBE20934A
:10320000600083B7817F846083BF83B7816083BFA1
:103210007894889583B78E7F83BF0FB6F894A8956E
:1032200080916000886180936000109260000FBE02
:1032300008950895CF930E94E7180E94DC050E942C
:103240001919C0E08C2F0E948205811105C0CF5F43
:10325000C530C1F7CF91089581E0FCCF08950C945B
:103260002E190E9489100E94AA0B0E9467030C94D9
:103270002F191F921FB61F9211248F939F93AF9304
:10328000BF9380911A02811113C080914D029091D9
:103290004E02A0914F02B09150024196A11DB11D66
:1032A00080934D0290934E02A0934F02B093500230
:1032B000BF91AF919F918F911F901FBE1F90189546
:1032C00082E084BD93E095BD9AEF97BD80936E0038
:1032D00008952FB7F89480914D0290914E02A091DD
:1032E0004F02B09150022FBF0895CF93DF9300D0CB
:1032F00000D0CDB7DEB78FB7F89420914D02309152
:103300004E0240914F025091500229833A834B83E1
:103310005C838FBF69817A818B819C810F900F9034
:103320000F900F90DF91CF9108959C014FB7F894C3
:1033300080914D0290914E02A0914F02B0915002A7
:103340004FBF821B930B089578941F921FB61F9254
:1033500011248F939F93AF93BF9380914D029091CF
:103360004E02A0914F02B09150020196A11DB11DD5
:1033700080934D0290934E02A0934F02B09350025F
:10338000BF91AF919F918F911F901FBE1F90189575
:1033900081E08093E00080E28093D8001092C90021
:1033A0008FE19EE40197F1F700C0000087E090EB09
:1033B000DC018093600290936102A0936202B0935B
:1033C000630288E19CE00FB6F894A89580936000B2
:1033D0000FBE90936000FFCF90937B0180937A01A2
:1033E0000895CF93DF9300D000D0CDB7DEB70E9411
:1033F0007C17811102C00E9420180E9487178093B9
:1034000019020E948F1790935202809351020E94DA
:103410008B17282F30E050E040E0CA01B9010E942C
:103420000F148091EC019091ED01A091EE01B0910B
:10343000EF0189839A83AB83BC83BC01CD010F90DC
:103440000F900F900F90DF91CF910C948B1480917F
:103450003B020895CF93DF9300D00F92CDB7DEB734
:1034600090915702943019F589836A837B8382E0B7
:103470008093E9008FEF9091E800815095FD06C0A0
:1034800095ED9A95F1F700008111F5CF8091E80054
:1034900085FF0DC050E040E063E070E0CE01019692
:1034A0000E94581C8091E8008E778093E8000F906E
:1034B0000F900F90DF91CF910895BC0184E00C94A0
:1034C0002A1ABC0183E00C942A1A22E02093E90016
:1034D0002FEF3091E800215035FD06C035ED3A95CB
:1034E000F1F700002111F5CF2091E80025FF0BC076
:1034F00050E040E066E070E00E94581C8091E800D7
:103500008E778093E8000895CF93DF93D82FC92F4B
:10351000809114018823C1F18091510287FF34C04A
:1035200060E282E08093E9008FEF9091E8008150A3
:1035300095FD06C095ED9A95F1F700008111F5CF44
:103540008091E80085FF1DC08091140170E050E07B
:1035500040E0811104C050E040E068E070E08D2F51
:103560009C2F0E94581C8091E8008E778093E80081
:1035700080E2ED2FFC2FABE1B2E001900D928A9535
:10358000E1F7DF91CF91089568E081E0CBCF8091A2
:103590005602811109C00E94E01D0E943D1E8091CB
:1035A000E20084608093E20008951092560208952C
:1035B00008950895089542E061EC81E00E945C1D49
:1035C00042E261EC82E00C945C1D809159028930EA
:1035D00089F148F4823009F49DC0833009F458C061
:1035E000813041F008958A3009F484C08B3009F4A9
:1035F0006AC0089580915802813A09F048C08091CC
:10360000E800877F8093E80080915C0290915D02E2
:10361000892B61F460E28BE192E070E00E94A71CCC
:103620008091E8008B778093E800089560E090E057
:1036300080E0F3CF80915802813249F580915C029D
:1036400090915D02029718F58091E800877F809342
:10365000E8008091E80082FF16C09091F30080910D
:10366000F200029729F48091F1008B7F813021F4E0
:103670008091F10080933B028091E8008B778093EA
:10368000E8000C94901D809157028111E2CF0895BB
:1036900080915802813AD9F780915C0290915D0245
:1036A000892BA9F78091E800877F8093E8008091BB
:1036B000E80080FFFCCF809114018093F10080919D
:1036C000E8008E77DCCF80915802813201F780913B
:1036D0005C0290915D02892BD1F68091E800877F92
:1036E0008093E8000E94901D80915A0280931401FB
:1036F0000C94891080915802813249F68091E8003B
:10370000877F8093E8000E94901D80915B028093E8
:103710003C02089580915802813A09F0B8CF809117
:10372000E800877F8093E8008091E80080FFFCCF6D
:1037300080913C02C2CF84B7877F84BF0FB6F894D4
:10374000A89580916000886180936000109260006D
:103750000FBE80E890E00FB6F894809361009093DC
:1037600061000FBE0E943A0C0E94E01D0E943D1EA7
:103770008091E20084608093E20078940E94C420EB
:103780000E944A0C8AE091E00E94A50B80915702AA
:103790008530A9F00E94520C0E94480C0E94490CEE
:1037A000F5CF0E94EB1880915502882341F00E94CA
:1037B0001A19882321F00E94421C0E9489108091CE
:1037C0005702853071F30E943119E4CF0C94E81B45
:1037D000FC01CB01DA012F2F332723303105D1F043
:1037E00070F42130310509F43EC02230310569F40E
:1037F0008BE390E020ED31E02D933C93089521324E
:103800003105E9F02232310521F190E080E030E02D
:1038100020E0F2CFCF019927E13059F082309105B5
:1038200059F0ECECF1E0892B81F7849190E09F0155
:10383000E3CFE0EBF1E0F9CFE4E8F1E0F6CF892B5C
:10384000B9F06130710509F789E090E02BEF31E0C4
:10385000D3CF892B91F061307105B9F686EB90E0FA
:103860002DE132E0C9CF82E190E02BE032E0C4CF1D
:1038700089E090E022EE31E0BFCF80E490E023EDDC
:1038800032E0BACF80E189BD82E189BD09B400FE92
:10389000FDCF8091D8008F7D8093D8008091E0008B
:1038A00082608093E0008091E00081FDFCCF08956C
:1038B000AF92BF92CF92DF92FF920F931F93CF935D
:1038C000DF936C01EB018A010E94AF1DF82E81117C
:1038D00023C00115110539F0F80180819181C81BC1
:1038E000D90BC80ED91EB12CA12C2097A9F080911C
:1038F000E80085FD22C08091E8008E778093E80083
:1039000001151105A1F0F80180819181A80EB91E61
:10391000B182A08285E0F82E8F2DDF91CF911F918B
:103920000F91FF90DF90CF90BF90AF9008950E94CD
:10393000AF1D8823D1F2F82EEFCFF60181916F01F0
:103940008093F1002197FFEFAF1ABF0ACECFFC01A1
:10395000CB0120915E0230915F022617370790F06D
:10396000009729F42091E8002E772093E80040E0AA
:10397000009751F4411108C08091E80082FF31C0E6
:1039800080E00895C901F3CF209157022223A9F1C5
:103990002530A9F12091E80023FD2DC02091E800F9
:1039A00022FDEACF2091E80020FFE2CF3091F30022
:1039B0002091F200009719F02830310558F041E0CD
:1039C0002830310509F040E02091E8002E7720935F
:1039D000E800CECF41914093F10001972F5F3F4F18
:1039E000E9CF80915702882341F0853041F08091E2
:1039F000E80083FFC1CF81E0089582E0089583E06D
:103A00000895FC01CB0120915E0230915F022617E0
:103A1000370790F0009729F42091E8002E77209343
:103A2000E80040E0009751F4411108C08091E8009F
:103A300082FF32C080E00895C901F3CF2091570280
:103A40002223B1F12530B1F12091E80023FD2EC0F1
:103A50002091E80022FDEACF2091E80020FFE2CF8C
:103A60003091F3002091F200009719F028303105D1
:103A700058F041E02830310509F040E02091E8009D
:103A80002E772093E800CECF44914093F1003196F9
:103A900001972F5F3F4FE8CF80915702882341F075
:103AA000853041F08091E80083FFC0CF81E0089528
:103AB00082E0089583E00895982F973028F08F7062
:103AC0008093E90081E008959093E900242F762FF8
:103AD00050E0981731F07091EC002091ED0050917A
:103AE000F00021FD02C09F5FE8CF3091EB003E7FE8
:103AF0003093EB003091ED003D7F3093ED0030913D
:103B0000EB0031603093EB007093EC002093ED00FC
:103B10005093F0002091EE0027FDE5CF80E008955E
:103B20008091580287FF13C08091E80082FF06C091
:103B30008091E8008B778093E80004C08091570261
:103B40008111F2CF0895809157028823D9F3809193
:103B5000E80080FFF8CF8091E8008E77ECCF2091CD
:103B6000E4003091E50095E6A9012091EC00822F58
:103B7000817020FF06C08091E80080FF06C080E0D1
:103B800008952091E80022FD1AC0809157028823F1
:103B900089F0853089F08091EB0085FD0FC0209180
:103BA000E4003091E50042175307F9F29150E1F635
:103BB00084E0089582E0089583E0089581E0089507
:103BC0000E944E1E0E94561EE0EEF0E08081816051
:103BD0008083E8EDF0E080818F77808319BCA7EDCA
:103BE000B0E08C918E7F8C9380818F7E8083109249
:103BF000560208950F931F93CF93DF930E944E1E9A
:103C00000E94561EC8EDD0E088818F778883888116
:103C10008068888388818F7D888319BC10925702C1
:103C200010925302109255021092540200EE10E0CE
:103C3000F80180818B7F808388818160888342E066
:103C400060E080E00E945C1DE1EEF0E080818E7F0C
:103C50008083E2EEF0E080818160808380818860F3
:103C60008083F80180818E7F808388818061888352
:103C7000DF91CF911F910F910895E8EDF0E08081E1
:103C80008F7E8083E7EDF0E080818160808384E037
:103C900082BF81E0809356020C94FA1DE8EDF0E0BB
:103CA00080818E7F80831092E20008951092DA0066
:103CB0001092E10008951F920F920FB60F921124F7
:103CC0002F933F934F935F936F937F938F939F9324
:103CD000AF93BF93EF93FF938091E10082FF0BC0FE
:103CE0008091E20082FF07C08091E1008B7F80938A
:103CF000E1000E94C3208091DA0080FF19C080910A
:103D0000D80080FF15C08091DA008E7F8093DA00A2
:103D10008091D90080FF94C080E189BD82E189BD96
:103D200009B400FEFDCF81E0809357020E94C71ABC
:103D30008091E10080FF19C08091E20080FF15C0F2
:103D40008091E2008E7F8093E2008091E2008061AA
:103D50008093E2008091D80080628093D80019BCE3
:103D600085E0809357020E94D91A8091E10084FF78
:103D700029C08091E20084FF25C080E189BD82E1F5
:103D800089BD09B400FEFDCF8091D8008F7D80935E
:103D9000D8008091E1008F7E8093E1008091E20065
:103DA0008F7E8093E2008091E20081608093E20048
:103DB00080915302882309F449C084E0809357021C
:103DC0000E94DA1A8091E10083FF29C08091E2000D
:103DD00083FF25C08091E100877F8093E10082E02E
:103DE00080935702109253028091E1008E7F80935E
:103DF000E1008091E2008E7F8093E2008091E200FA
:103E000080618093E20042E060E080E00E945C1DFF
:103E10008091F00088608093F0000E94D81AFF9192
:103E2000EF91BF91AF919F918F917F916F915F9132
:103E30004F913F912F910F900FBE0F901F901895AB
:103E400019BC109257020E94D51A72CF8091E300DC
:103E500087FD02C081E0B2CF83E0B0CF1F920F9206
:103E60000FB60F9211242F933F934F935F936F934D
:103E70007F938F939F93AF93BF93CF93DF93EF93F2
:103E8000FF93D091E900DF708091EC00C82FC170E2
:103E900080FDC0E81092E9008091F000877F809358
:103EA000F00078940E94721F1092E9008091F00057
:103EB00088608093F000CD2BCF70C093E900FF9114
:103EC000EF91DF91CF91BF91AF919F918F917F91B2
:103ED0006F915F914F913F912F910F900FBE0F9077
:103EE0001F9018951F93CF93DF93CDB7DEB7AA9796
:103EF0000FB6F894DEBF0FBECDBF88E592E0FC019F
:103F000001962091F100208322E080369207B9F7D4
:103F10000E94E51A8091E80083FF1DC1809158023C
:103F2000909159029A3008F016C1E92FF0E0E35859
:103F3000FE4D0C94F320803899F0823809F00BC1C3
:103F400080915C028F70873008F005C18093E90092
:103F50008091EB0085FB882780F91092E90006C06C
:103F60008091540290915502911182609091E800E5
:103F7000977F9093E8008093F1001092F100809178
:103F8000E8008E77E4C0882309F4D2C0823009F0BB
:103F9000E2C080915A028111D5C080915C028F707D
:103FA0002FEF280F263008F0D6C08093E90020912B
:103FB000EB0020FFC7C0933031F48091EB008062AA
:103FC0008093EB00BFC09091EB0090619093EB0069
:103FD00021E030E001C0220F8A95EAF72093EA0041
:103FE0001092EA008091EB008860EACF8111B3C0A3
:103FF00010915A021F778091E3008078812B809383
:10400000E3008091E800877F8093E8000E94901D84
:104010008091E80080FFFCCF8091E300806880936E
:10402000E30082E0111183E08093570294C080582E
:10403000823008F090C080915A0290915B028C3DD2
:1040400023E0920799F583E08A838AE289834FB758
:10405000F894DE01139620E03EE051E2E32FF0E019
:1040600050935700849120FF03C082958F703F5F6B
:104070008F708A30C8F0895C90E08D939D932F5F9C
:10408000243161F74FBF8091E800877F8093E8007B
:104090006AE270E0CE0101960E94A71C8091E800C0
:1040A0008B778093E80057C0805DE6CF60915C021B
:1040B00070915D02AE014F5F5F4F0E94E61BBC0135
:1040C000892B09F448C08091E800877F8093E8003D
:1040D00089819A810E94011DE1CF8038E1F58091AC
:1040E000E800877F8093E800809153028093F1007D
:1040F00046CF811130C090915A02923060F5809184
:10410000E800877F8093E800909353020E94901DFF
:1041100080915302882311F084E005C08091E30070
:1041200087FDFACF81E0809357020E94DB1A13C00B
:1041300080915A02813079F481E0933009F080E077
:10414000809355021092E9008091E800877F809368
:10415000E8000E94901D8091E80083FF0AC08091D2
:10416000E800877F8093E8008091EB008062809375
:10417000EB00AA960FB6F894DEBF0FBECDBFDF915D
:10418000CF911F9108950895CF938091570288236E
:10419000A1F0C091E900CF709091EC00892F81705F
:1041A00090FD80E8C82B1092E9008091E80083FD23
:1041B0000E94721FCF70C093E900CF91089597FBC2
:1041C000072E16F4009407D077FD09D00E94F9203D
:1041D00007FC05D03EF4909581959F4F089570950A
:1041E00061957F4F0895EE0FFF1F0590F491E02D2C
:1041F0000994AA1BBB1B51E107C0AA1FBB1FA6172E
:10420000B70710F0A61BB70B881F991F5A95A9F77F
:1042100080959095BC01CD010895F999FECF92BD8E
:1042200081BDF89A992780B50895A8E1B0E042E0F1
:1042300050E00C944121262FF999FECF92BD81BD0B
:10424000F89A019700B4021639F01FBA20BD0FB6D4
:10425000F894FA9AF99A0FBE08950396272F0E94B0
:104260001C210E941B21252F0E941C21242F0C940D
:104270001C210196272F0E941C210C941B21DC017C
:10428000CB01FC01F999FECF06C0F2BDE1BDF89A61
:10429000319600B40D9241505040B8F70895F8940B
:1042A000FFCFF00AF60AFA0A080B0C0B100B140BDE
:1042B0001A0B220B260B2A0B2E0B3A0B3E0B420B32
:1042C000460B4C0B6A0B540BFE0A040B320B360BDD
:1042D0001E0B500B600B730B770B020E020E640E5D
:1042E000640EB90ED50E320E320EE00E950FA60FEB
:1042F000A60F0610320E320E0F109B1FC31FAB20ED
:0E430000C31FAB20F61F1720AB206D207920C5
:10430E002808641E140A321EF601271A841A651A2A
:10431E00611A5D1A01E200E900EA00B500B600B7C5
:10432E0000CD008301CC008A019201940121022369
:10433E000224022502260227022A02B300B4006FCD
:10434E0000700097C634F13795679293E200E9004A
:10435E00EA00B500B600B700CD008301CC008A019B
:10436E009201940121022302240225022602270231
:0A437E002A02B300B4006F007000C3
:00000001FF
