:100000000C94E4010C942B020C942B020C942B0204
:100010000C942B020C942B020C942B020C942B02AC
:100020000C942B020C942B020C9414270C94E727AD
:100030000C94751D0C942B020C942B020C942B0227
:100040000C942B020C942B020C942B020C942B027C
:100050000C942B020C94E01D0C942B020C942B029C
:100060000C942B020C942B020C942B020C942B025C
:100070000C942B020C942B020C942B020C942B024C
:100080000C942B020C942B020C942B020C942B023C
:100090000C942B020C942B020C942B020C942B022C
:1000A0000C942B020C942B020C942B022F5CBA5C48
:1000B000BB5C365C315C295D2A5D385C335C2B5D52
:1000C0002C5D3A5C345C815C825C2F5C00000151E9
:1000D00002510000305C01000100375C325C01001D
:1000E0000100395C345C010001002F5C355C905CE0
:1000F000915C305C00000100010000003A5C0100EE
:100100000100355C305C01000100375C325C0100AD
:100110000100395C335C905C915C3A5C000001004A
:100120000100000000000000000000002A2B280051
:100130000000000000000000000000000000002996
:10014000000000002C1E3420212224342627252ED6
:10015000362D3738271E1F2021222324252633330E
:10016000362E37381F0405060708090A0B0C0D0E3A
:100170000F101112131415161718191A1B1C1D2F06
:100180003130232D350405060708090A0B0C0D0E26
:100190000F101112131415161718191A1B1C1D2FE6
:1001A0003130354C0000000000000000000000006D
:1001B000000000000000000000000000000000003F
:1001C00000000000000000007E0F00D4FFFFFFC70A
:1001D000000000782A03740065006D0070006F0055
:1001E0005F0074007500720074006C0065002F00E1
:1001F0006200720061006400700061006400000031
:100200001A034D0041004E005500460041004300D6
:100210005400550052004500520000000403090438
:1002200009029F00040100A0FA0904000001030173
:100230000100092111010001224000070581030886
:10024000000A090401000103000000092111010056
:100250000122B6000705820320000A080B020201F2
:10026000010000090402000001010000092401004E
:10027000010900010309040300020103000007242F
:1002800001000141000624020101000624020202CD
:1002900000092403010301020100092403020401EF
:1002A00001010009050402400005000005250101C7
:1002B0000109058302400005000005250101031224
:1002C0000110010000000874747062010001020056
:1002D0000105010902A10185020901A10005091911
:1002E00001290815002501950875018102050109FC
:1002F0003009311581257F95027508810609381569
:1003000081257F950175088106050C0A3802158143
:10031000257F950175088106C0C005010980A101EE
:10032000850319012AB700150126B700950175103C
:100330008100C0050C0901A101850419012AA00250
:10034000150126A002950175108100C0050109065E
:10035000A1018505050719E029E715002501950884
:10036000750181020507190029EF1500250195F097
:10037000750181020508190129059505750191028C
:10038000950175039101C005010906A10105071931
:10039000E029E71500250195087501810295017591
:1003A0000881010507190029FF150026FF009506A1
:1003B0007508810005081901290595057501910247
:1003C000950175039101C00011241FBECFEFDAE043
:1003D000DEBFCDBF04B603FE27C080910504909117
:1003E0000604A0910704B09108048730904BA74001
:1003F000B04BD1F410920504109206041092070439
:100400001092080414BE84B7877F84BF0FB6F89497
:10041000A8958091600088618093600010926000D0
:100420000FBEE0E0F8E3099511E0A0E0B1E0E8E1FB
:10043000F5E502C005900D92A639B107D9F724E081
:10044000A6E9B1E001C01D92A530B207E1F70E9414
:10045000FF230C940F2A0C940000CF93DF939C0190
:10046000EB012B328DE5380709F4BDC050F4293279
:100470008DE5380749F12A323D4509F46FC0C1E0E6
:100480001FC02C323D45D9F780E00E94BF18CA81B9
:100490008111F1C0109298016091FC02862F881F93
:1004A0008827881F6091FD026770660F682BCC2338
:1004B00009F4DEC02FE743E58BE093E00E948F1E36
:1004C0008C2FDF91CF91089580E00E94BF18CA81E0
:1004D000811119C010929B016091FC028091FD0274
:1004E000962F991F9927991F682F6770660F692BA0
:1004F0002FE740E5C111E0CF20E040E58BE093E03D
:100500000E948F1EBCCFC11102C0C0E0D9CF909114
:100510009B016091FC028091FD02911115C0962F04
:10052000991F9927991F682F6770660F692B2FE70E
:1005300040E58BE093E00E948F1E80919B0191E04B
:10054000892780939B01E1CF962F991F9927991FA7
:10055000682F6770660F692B20E0EACF80E00E9469
:10056000BF18CA81811115C010929A016091FC02D6
:100570008091FD02962F991F9927991F682F677008
:10058000660F692B2FE741E5C11196CF20E041E5C9
:10059000B5CFCC2309F4B9CF90919A016091FC02B8
:1005A0008091FD02911115C0962F991F9927991FCF
:1005B000682F6770660F692B2FE741E58BE093E0AA
:1005C0000E948F1E80919A0191E0892780939A0161
:1005D0009CCF962F991F9927991F682F6770660FD8
:1005E000692B20E0EACF80E00E94BF18CA81811108
:1005F00015C0109299016091FC028091FD02962F26
:10060000991F9927991F682F6770660F692B2FE72D
:1006100042E5C11151CF20E042E570CFCC2309F46F
:1006200074CF909199016091FC028091FD0291112B
:1006300015C0962F991F9927991F682F6770660F0D
:10064000692B2FE742E58BE093E00E948F1E80919B
:10065000990191E089278093990157CF962F991F8F
:100660009927991F682F6770660F692B20E0EACFE2
:1006700020E043E543CFCC2309F447CF6091FC024F
:10068000862F881F8827881F6091FD026770660F7C
:10069000682B809198012FE7811120E043E58BE0E2
:1006A00093E00E948F1E8091980191E089278093AA
:1006B00098012BCFCF93DF939C01FB019A95811575
:1006C0009F4160F5E901CC27D170D901AA27B2700A
:1006D000B90166277470A9014427587034FF10C00F
:1006E00080E1CD2B09F480E0AB2B09F08062672B11
:1006F00009F08064452B09F08068DF91CF9109945F
:1007000081E0CD2B09F480E0AB2B09F08260672BF0
:1007100009F08460452B89F38860EFCFDF91CF919A
:100720000895CF93DF93EC01805E9109089720F044
:1007300066E874E1209711F46BED71E1CE010E943F
:100740005A038C2FDF91CF910C944011CF93DF93FC
:10075000EC010E948D11CE01805E9109089720F076
:100760006DE874E1209711F462EE71E1CE01DF9142
:10077000CF910C945A03CF93DF93D82FC92F0E94A7
:1007800091038D2F9C2FDF91CF910C94A60381E0D4
:1007900008950C942D0208950C94CB031F93CF93CE
:1007A000DF9300D000D00F92CDB7DEB749835A83D4
:1007B0006B833091580289819A8131111DC0662363
:1007C000B9F02223A9F00E94641A182F682F89819A
:1007D0009A810E940F1A69817A81812F0F900F9060
:1007E0000F900F900F90DF91CF911F910C94FE040A
:1007F0000E943C1A182FEFCF0E94641A69817A81F7
:10080000EDCFFC01262F408151816281738184816B
:100810000C94CE03CF93DF93D82FC92F60E00E94B2
:1008200001046D2F7C2FDF91CF910C94CC030E949B
:10083000B81B811102C00E945C1C0E945F0D0C94C9
:1008400008070C940B0708950E94AA140E94230421
:100850002FEF84E39CE0215080409040E1F700C0FE
:1008600000000C94041E0F931F93CF93DF93EC01B1
:1008700061E00E9401048C01BE010E94C90388232B
:1008800089F1BE01C8010E945808882359F1BE01B0
:10089000C8010E94E80D882329F1BE01C8010E9409
:1008A000720E8823F9F0BE01C8010E94C70E88238A
:1008B000C9F0BE01C8010E949A0F882399F08A816D
:1008C000882339F001158CE5180751F00F3D1C45C0
:1008D00079F0CE01DF91CF911F910F910C94C70356
:1008E0000E94240480E0DF91CF911F910F91089521
:1008F0000E945C1CF7CFDF92EF92FF920F931F9341
:10090000CF93DF93E82FF0E0EC5DFE4FD490282FDB
:1009100026952695269530E0F901EC53FE4F04917B
:10092000877010E0082E02C0159507950A94E2F72B
:1009300001701127F901EC54FE4FE490F12C082EC0
:1009400002C0F594E7940A94E2F791E0E922FF24CB
:10095000F901EC55FE4FC491D0E002C0D595C79582
:100960008A95E2F7C170DD270115110519F081EEB6
:100970000E944011E114F10419F086EE0E9440112A
:100980008D2D0E94D311EF2819F086EE0E948D1153
:10099000012B19F081EE0E948D11CD2B51F08CE2CC
:1009A000DF91CF911F910F91FF90EF90DF900C940A
:1009B000D311DF91CF911F910F91FF90EF90DF90B6
:1009C0000895982F9F709A50963018F0805D0C947F
:1009D0007B04895AFCCF08950C94EB0481E00895C0
:1009E0000C94EE04CF93C82F0E94EC048C2FCF916F
:1009F0000C94F00490E080E008950895E72FF0E073
:100A000095E0899FE00DF11D1124EE0FFF1FEE0F01
:100A1000FF1FE60FF11DEE0FFF1FE455FF4F8591FD
:100A200094910895FC01EE0FFF1FEC52FE4F85914B
:100A300094910895CF93DF930E94FE040E942C06A8
:100A4000EC01811520E5920708F04BC0811530E4D8
:100A5000930708F0B2C0803E910518F5803C9105DF
:100A600008F09FC0883A910570F4853A910508F026
:100A700095C08130910529F10497813A910508F1DB
:100A8000D0E0C0E01EC08F3B9105D1F3C85AD0E042
:100A9000CC0FDD1FCF5DDE4F0990D881C02DD4640F
:100AA00010C0811540E2940780F48F3F910509F052
:100AB00040F4883E910528F08D5E9109D0654397FA
:100AC000F8F6CE01DF91CF910895C11580E3D807E4
:100AD00008F46DC0CE019927D3FD6CC0EC01D06C39
:100AE000F0CFC11595E5D90760F5C11524E5D2070A
:100AF00008F094C0C11533E5D30778F4C11542E579
:100B0000D40708F07AC0C11581E5D80708F458C0A9
:100B1000DC2FCC27C16FD06AD4CFCE018370992748
:100B200021E030E002C0220F331F8A95E2F7C6951C
:100B3000C69590E2C99FE0011124C22BD32BDA683D
:100B4000C0CFC1152AE5D207B0F4C11539E5D307E6
:100B500008F074C0C11546E5D40708F464C0CE019E
:100B600098558F3F910511F008F08ACFDC2FCC27E4
:100B7000C06FD06AA6CFCE0190568115904208F082
:100B80007FCF8D2F8F710E94C40690E0982F882709
:100B900088279F719C012C2BE9014EC0A497D0643B
:100BA00090CF805C91090E941205EC018ACFCE01A2
:100BB0009F70F9CFEC01D86C84CFDF70D06A81CF01
:100BC000CE0174E0969587957A95E1F783702C2F86
:100BD00026952695237040E2249F90011124382BFE
:100BE0008C2F8370C1E0D0E002C0CC0FDD1F8A954E
:100BF000E2F7C22BD32BDC6864CFCE018370992738
:100C000021E030E002C0220F331F8A95E2F7C6953B
:100C1000C69580E2C89FE0011124EBCFDC2FCC27E2
:100C2000C46FD06A4ECF8C2F0E94C406C82FD0E06C
:100C3000DC2FCC27CC27DF71D06243CF8C2F8F7075
:100C40000E94C40634E0D695C7953A95E1F7CF7077
:100C5000DC2FC82FD06935CF803E910599F1C8F4BB
:100C60008133910509F476C048F48932910509F47D
:100C70006AC08A32910509F474C0089589339105D8
:100C8000D1F082389105B9F08533910509F454C04B
:100C90000895843E910599F138F4823E9105F9F06A
:100CA000833E910509F10895863E910599F1873EAD
:100CB0009105B9F10895209109032370A1F080EE08
:100CC00090E008952091090320FD52C030910A035D
:100CD00030FF09C024FF4FC090E080E004C02091A5
:100CE000090322FDF7CF08952091090322FD46C094
:100CF00030910A0330FDE3CF24FFF5CFEDCF2091F3
:100D00000A0321FFF0CF8091090384FDE5CF87EE30
:100D100090E008952091090323FFE5CF24FDDCCF67
:100D2000F6CF2091090323FD2CC030910A0331FF37
:100D3000E3CF84EE90E008952091090325FFD3CFFF
:100D400089E290E008952091090325FFCCCF85E347
:100D500090E008952091090326FFC5CF8AE290E034
:100D600008952091090326FFBECF81E390E0089506
:100D700089E390E0089583EE90E0089582EE90E09C
:100D8000089586EE90E008959091090392FF06C0C1
:100D9000282F28712830F9F4877F846093FF06C0DC
:100DA000282F28712831F1F4877E846120910A036D
:100DB00020FF06C0382F38713830D9F4877F816022
:100DC00021FF06C0282F28712831D1F4877E816148
:100DD00094FD877E0895282F24712430F9F68B7FA7
:100DE0008860DCCF282F2471243101F78B7E886145
:100DF000DDCF382F3171313019F78E7F8860E0CF29
:100E0000282F2171213121F78E7E8861E1CF08954D
:100E10000C94070708950C940A07E82FF0E0EA50B5
:100E2000FD4F80810895089580EA8A95F1F708952D
:100E300000C008950C941407F894E82FE295EF7021
:100E4000A1E2AE0FB0E04C918F7021E030E0B9012B
:100E500002C0660F771F8A95E2F7CB01962F909517
:100E600094239C93EE5DF0E09081892B80837894AD
:100E7000089587E90E941C0786EC0E941C0784E302
:100E80000E941C0781EF0E941C0787E30E941C0739
:100E900085E90E941C0787E60E941C0782E90E94E0
:100EA0001C0783E90E941C0785E0E1EFF2E0DF0107
:100EB000982F1D929A95E9F7E6EFF2E0DF011D9277
:100EC0008A95E9F785E00E94F0070C941704AF9229
:100ED000BF92CF92DF92EF92FF920F931F93CF9327
:100EE000DF930FE411E0D0E0C0E0B12CEE24E394F6
:100EF000F12C96EFC92E92E0D92EF80181918F0145
:100F0000F894E82FE295EF70A1E2AE0FB0E02C91DB
:100F10008F70A70102C0440F551F8A95E2F7CA01DE
:100F2000922F982B9C93EE5DF0E090818095892321
:100F3000808378940E941807C7010C2E01C0880F87
:100F40000A94EAF7782F682F6095A1EFB2E023E5C5
:100F500031E0A12C9D91F90181919F01E82FE2954B
:100F6000EF70E05EF0E0408150E08F7002C0559578
:100F700047958A95E2F7872F892B40FF02C0862F7D
:100F80008923981729F0FD0131978083AA24A3941F
:100F9000CA16DB06F9F6F801319780810E941C071A
:100FA000C33011F00E941A07BA282196C430D10527
:100FB00009F0A3CF2B2D45E066EF72E081EF92E0C0
:100FC0000E94F1070E9421048B2DDF91CF911F9188
:100FD0000F91FF90EF90DF90CF90BF90AF9008956A
:100FE0000895FF920F931F93CF93DF93F82E092F4D
:100FF000162FD72FC42F222349F081E080939E0122
:101000000E94A51D90939D0180939C0180919E015B
:101010008823A1F080919C0190919D010E94D11D97
:10102000069760F0EF2DF02FA12FBD2FCF018C0F71
:10103000911DE817F90741F410929E01DF91CF91BD
:101040001F910F91FF90089521912D93F2CFEBEF17
:10105000F2E084E080838FE78183828180788064FE
:10106000828348E450E06FEF70E083EA91E00E94F1
:10107000C629EBEEF1E088E4DF011D928A95E9F7DD
:101080001092A2011092A1011092A00110929F0152
:1010900008959091FB02292F2F7095959595959520
:1010A00095959F523CE0239F900D1124890F089540
:1010B0000F931F93CF93DF9300D00F92CDB7DEB77E
:1010C000DB0187372CE59207B0F48F324CE59407AB
:1010D000D8F481E08A838A810F900F900F90DF917E
:1010E000CF911F910F910895EF5EF54D12962C91BF
:1010F0002A830C94C029FC01E757FC45E534F1052F
:1011000098F341E04A83E7CF2091FC02322F331F4E
:101110003327331FE091FD02E770EE0FE32BEB83E3
:101120002F7729831296FC91FA8301ED080F10E0C6
:101130000D551E4FFF23C9F00E9449088A8329815B
:10114000482F6B818BE093E00E949F1EF801E85BC3
:10115000FF4F80818F5F8083F80180818F3F11F086
:101160001A82B9CF2A812083FBCFF8014081E85B46
:10117000FF4F8081815080838111F2CF29816B8163
:101180008BE093E00E94AF1E8FEFF8018083A3CF26
:101190002A81222329F38757982F9F708091FB0281
:1011A000807F892B8093FB02DBCF4A814423C1F2ED
:1011B0008091FB02982F9F7099F2915F9F70F0CF02
:1011C0008A81882369F28091FB02982F9F70993061
:1011D00038F69F5FF3CF2A81222311F28958982F86
:1011E0009295907F8091FB028F70DBCF4A814423E0
:1011F00009F4B6CF8091FB02982F9595959595951A
:101200009595803B0CF4ACCF915F9295907FECCF9D
:101210008A81882309F4A4CF8091FB02282F259589
:1012200025952595259580360CF09ACF91E0920F63
:101230009295907F9595959595959595392F3295A1
:10124000307F8F70832B8093FB0212160CF088CFB7
:1012500097FF86CF2295207F8F70822BA3CF2A8184
:10126000222309F47DCF82599CE0899F902D11247F
:101270009F778091FC02807815C04A81442309F44D
:101280006FCF8091FC02982F9F7709F469CF807807
:101290009F3721F485678093FC0262CF9D30D8F39D
:1012A0009D509F77892BF7CF8A81882309F458CFE7
:1012B0008091FC02982F9F779F3709F451CF933785
:1012C00018F4935F9F77D7CF8F67E5CF2A812223CA
:1012D00009F446CF8F599091FC0280FB97F99093C7
:1012E000FC02869587709091FD02987F892BB3C090
:1012F0004A81442309F434CF2091FC02322F331F5A
:101300003327331F9091FD02892F8770880F832B1D
:10131000815F382F3F7080FB27F92093FC02832FD9
:101320008695987F982B9093FD021ACF8A81882307
:1013300009F416CF2091FC02322F331F3327331FBD
:101340009091FD02892F8770880F832B8F5FE1CFEB
:101350002A81222309F404CF6091FC02862F881F82
:101360008827881F6091FD026770660F682B20E058
:101370004BE78BE093E00E948F1EF2CE4A8120E083
:1013800041112FE76091FC02862F881F8827881F54
:101390006091FD026770660F682B40E4EACF8A8196
:1013A00020E081112FE76091FC02862F881F88279B
:1013B000881F6091FD026770660F682B41E4D9CFEA
:1013C0002A8121112FE76091FC02862F881F882730
:1013D000881F6091FD026770660F682B42E4C9CFD9
:1013E0004A81411111C020E06091FC02862F881FC4
:1013F0008827881F6091FD026770660F682B43E4A1
:10140000B8CF8A81882379F32FE7EECF2A818FEF37
:10141000211181E08093A101A3CE4A81442309F4E4
:101420009FCE9091FD02292F2695269526952F7007
:1014300081E0820F8F70880F880F880F9778892B33
:101440008093FD02982F987709F08ACE220F220F01
:10145000220F8778822B8093FD0282CE8A81882397
:1014600009F47ECE8091FD02982F987709F478CE0A
:10147000982F969596959695915F9F70990F990FD5
:10148000990F877833CF6091FC02862F881F8827B9
:10149000881F6091FD026770660F682BEA8140E04B
:1014A00050EEE11117C050E040E08BE093E00E9465
:1014B000BF1E11CE6091FC02862F881F8827881FCF
:1014C0006091FD026770660F682BFA81FF2359F364
:1014D0004FEF5FE18BE093E00E94BF1E41CE8BE0B7
:1014E00093E00E94BD2080919F019091A0010E94F5
:1014F000D11D9C019091FD029695969596959F70B1
:101500009217130609F0A0F50E94A51D9093A00163
:1015100080939F018091A101882351F16091FC0289
:10152000862F881F8827881F6091FD026770660FCD
:10153000682B2091A20141E08BE093E00E948F1E76
:101540008091A1019091A20187FF0DC0482F5527DE
:1015500041950CF45095941715062CF41092A201A5
:101560001092A1010895890F87FD03C08093A20105
:1015700008958FE7FBCF8091390280FF12C0609100
:10158000050185E0689FB0011124759567957595F3
:10159000679560387105A8F561157105A1F1862F71
:1015A000089581FF09C06091050185E0689FB00141
:1015B000112475956795EDCF6091050182FD0AC0F4
:1015C000809138028823D1F0909104016091050147
:1015D000891728F085E0689FB0011124DACF869F33
:1015E000B001112485E0869F9001879F300D112462
:1015F000692F70E0C9010E94AC29CBCF65E070E093
:10160000CECF8FE7089581E008958091390280FF61
:101610000CC06091010170E07595679575956795AF
:101620006115710549F1862F089581FF06C060910B
:10163000010170E075956795F3CF6091010182FD1E
:101640000BC0909137029923A1F060910001809125
:101650000101961738F0682F70E06038710500F3CB
:101660008FE70895899FC001112470E00E94AC2982
:10167000F4CF61E070E0D7CF81E008958D3E31F482
:101680000E94BB0A819580933D0208958E3E19F415
:101690000E94BB0AF8CF8F3E31F40E94BB0A8195AD
:1016A00080933C020895803F19F40E94BB0AF8CF52
:1016B000893F29F40E94050B80933E0208958A3FDA
:1016C00021F40E94050B8195F7CF8B3F31F40E94E6
:1016D000050B819580933F0208958C3F19F40E9479
:1016E000050BF8CF9FE0980F983070F4815F990B4D
:1016F00021E030E001C0220F8A95EAF780913B0299
:10170000822B80933B0208958D3F31F48091390202
:1017100081608093390208958E3F21F480913902CF
:101720008260F7CF8F3FB9F7809139028460F1CFA3
:1017300040913C028D3E59F480913D0287FF0DC0DF
:1017400010923D0241110BC01092380208C08E3E2B
:1017500081F480913D0218169CF3442381F080911E
:101760003E0290913F02892B09F05AC01092370235
:1017700008958F3E49F447FFF0CF10923C028091CC
:101780003D028111ECCFE0CF803F19F41416ACF389
:10179000E4CF90913E02893F29F41916F4F6109295
:1017A0003E02DBCF8A3F19F497FFD7CFF8CF909155
:1017B0003F028B3F29F497FFD0CF10923F02CDCF4D
:1017C0008C3F19F41916CCF3C8CF9FE0980F9830CE
:1017D00090F4815F990B21E030E0B90102C0660FFF
:1017E000771F8A95E2F7CB01809590913B02892380
:1017F00080933B02B2CF8D3F31F4809139028E7FCE
:1018000080933902AACF8E3F21F4809139028D7FD7
:10181000F7CF8F3F09F0A1CF809139028B7FF0CFB6
:1018200008950E94A51D20913C0230913D02232B7A
:1018300021F0809335029093360220913E02309140
:101840003F02232B21F080933302909334028AE3EA
:1018500092E00C94FD0FCF92DF92EF92FF920F93E4
:101860001F93CF93DF9300D000D000D0CDB7DEB769
:1018700026E0EAE3F2E0CE010196DC0101900D9250
:101880002A95E1F7C0903C02D0903D02E0903E02E4
:10189000F0903F0210923C0210923D0210923E02E4
:1018A00010923F022C2D2D298C0191F08091350250
:1018B000909136020E94D11D9C01809138028823AC
:1018C00009F440C0909106019217130608F448C02D
:1018D0008E2D8F2991F080913302909134020E94D5
:1018E000D11D9C0180913702882309F478C0909122
:1018F00002019217130608F480C080913C02909177
:101900003D02892B90913E02892B90913F02892BB9
:1019100011F00E94110C86E0F801AAE3B2E00190F8
:101920000D928A95E1F726960FB6F894DEBF0FBEAA
:10193000CDBFDF91CF911F910F91FF90EF90DF907E
:10194000CF900895409107019AE0499FA00111248A
:101950004217530708F0BCCF8F5F8093380202C054
:101960008F3FD1F7CC2059F00E94BB0A9FEF1C1487
:101970000CF491E0899F802D112480933C02DD209E
:1019800059F00E94BB0A9FEF1D140CF491E0899F4F
:10199000802D112480933D0230913C02332309F4C1
:1019A00097CF20913D02222309F492CF45EB3403D7
:1019B000C0011124992359F090933C0245EB240374
:1019C00090011124332339F030933D0281CF81E01F
:1019D00080933C02F3CF81E080933D0279CF409128
:1019E00003019AE0499FA00111244217530708F010
:1019F00084CF8F5F8093370202C08F3FD1F7EE20F4
:101A000059F00E94050B9FEF1E140CF491E0899F82
:101A1000802D112480933E02FF2059F00E94050B77
:101A20009FEF1F140CF491E0899F802D1124809367
:101A30003F0230913E02332309F45FCF20913F02F1
:101A4000222309F45ACF45EB3403C0011124992312
:101A500059F090933E0245EB240390011124332367
:101A600039F030933F0249CF81E080933E02F3CFBB
:101A700081E080933F0241CF86E0EAE3F2E0DF01BC
:101A80001D928A95E9F7109238021092370210924F
:101A900039020895CF93DF93EC01FB0197FF0BC050
:101AA0008281882341F00E94750DCE019F770E94AC
:101AB000CD0D0E94AF0D81E0DF91CF9108958CE0B4
:101AC00090E00E94CD2990E0B0E0A0E08093FF027A
:101AD00090930003A0930103B093020308956091D3
:101AE000FF028CE090E00C94DB290E94D50F8695D4
:101AF0008170809304039091FF02913029F4882330
:101B000019F089E30E94D3110E94011B8093030303
:101B10000E94151B8091FF028230A9F030F48111E0
:101B20000DC082EE0E94401102C0843099F08FE314
:101B30009CE90197F1F700C00000089588E193E067
:101B40000E94BB03F4CF82EE0E94401187E50E9401
:101B5000D311EDCF86EE0E94D31188E1F8CF8091AA
:101B6000FF02823019F030F481110AC082EE0E9427
:101B70008D1102C0843079F0809103030C94121B04
:101B80008CE20E94D311809104038823A9F389E396
:101B90000E94D311F1CF88E2FBCF0F931F93CF9315
:101BA000DF938C01CCE0D0E0C8010C2E02C09695EA
:101BB00087950A94E2F78F700E94E1042497CC3F46
:101BC0008FEFD80789F7DF91CF911F910F9108957B
:101BD0000F931F93CF93DF93EC018B01FB01828165
:101BE000882361F00E94011BCE01825E9C458530F6
:101BF000910520F48093FF020E946F0DB801CE0181
:101C0000DF91CF911F910F910C944A0D0F931F9369
:101C1000CF93DF93C42FD22FFC0182818823C9F098
:101C2000409342020E94A51D90934102809340027E
:101C300080E28C0F883008F050C0C77081E001C08E
:101C4000880FCA95EAF7DF91CF911F910F910C94FD
:101C5000DB1110914202141335C080914002909123
:101C600041020E94D11D8E3B910560F5C0E2CD0F6F
:101C70001D17B9F080E2810F883040F4177081E0C1
:101C800001C0880F1A95EAF70E94E211C83048F4A3
:101C900081E09D2F977001C0880F9A95EAF70E9406
:101CA000DB11802F0E94D311C830B8F4D77081E0C7
:101CB00001C0880FDA95EAF7DF91CF911F910F915C
:101CC0000C94E21180E28C0F883038F4C77081E008
:101CD00001C0880FCA95EAF7EFCFDF91CF911F912E
:101CE0000F9108950F939C01CB01243F4CE53407DD
:101CF000A1F190F4293DFCE53F0749F12A3D4CE56F
:101D00003407E9F1283D3C45C1F0FC01828188237C
:101D1000E1F11092420219C0263FFCE53F0719F19C
:101D2000273F4CE5340729F1253F3C4571F707E291
:101D300025EE44EE65EF7CE505C006E221EE41EEBE
:101D400068ED7CE50E94060E80E00F91089507E2A1
:101D500025EE45EE69ED7CE5F5CF06E221EE40EE9D
:101D600064EF7CE5EFCF06E221EE42EE66EF7CE524
:101D7000E9CF07E225EE46EE67EF7CE5E3CF08E228
:101D800021E045EE6AED7CE5DDCF81E0DECFCF934B
:101D9000DF93EC01FB018281882309F4C9C0C631BD
:101DA000FCE5DF07E0F4C2309CE5D907F0F00E94C3
:101DB000CB1B90930A0380930903C631ECE5DE0741
:101DC00020F5C230FCE5DF0798F48091090390917B
:101DD0000A030E94D91B0E94AA1480E006C09E013B
:101DE0002B5F3C452930310510F3DF91CF910895E9
:101DF000FE01E350FC45809109038160E331F10568
:101E000088F4EA5AF54D0C94C029CB5FDC45C93003
:101E1000D105D8F6C759D54DFE010C94C029809143
:101E20000903826080930903D0CF80910903846005
:101E3000F9CF809109038860F5CF80910A03816012
:101E400080930A03C2CF80910A038260F9CF809108
:101E500009038061E7CF809109038062E3CF80911D
:101E600009038064DFCF0E94AA148091090380686F
:101E7000D9CF809109038C60D5CF80910A0383600C
:101E8000DFCF809109038E7FCDCF809109038D7FB5
:101E9000C9CF809109038B7FC5CF80910903877FCC
:101EA000C1CF80910A038E7FCBCF80910A038D7FB3
:101EB000C7CF809109038F7EB5CF809109038F7DB5
:101EC000B1CF809109038F7BADCF0E94AA1480917E
:101ED00009038F77A7CF80910903837FA3CF8091D8
:101EE0000A038C7FADCF8091090382FB992790F97B
:101EF00021E0922790FB82F990FB83F993CF8091A8
:101F00000A03982F909591708E7F892B90FB81F911
:101F100097CF0E94AA1490910903892F97FB87F904
:101F2000805880CF81E00E945E1C4FCF80E0FBCFC5
:101F300081E05BCFCF93DF93EB0186319C4511F5B8
:101F40000E94011B9A81992399F08A7A91E009F401
:101F500090E090934302811109C089E20E94DC1A4B
:101F60000E94531B80E0DF91CF91089585E3F6CF67
:101F700080914302811104C089E20E94E31AF0CFEC
:101F800085E3FBCF81E0EFCF909349028093480235
:101F90000895E0914802F0914902309721F00190B4
:101FA000F081E02D099480E00895E0914802F091DD
:101FB0004902309711F480E008950190F081E02DFE
:101FC00009950895DC01E0914802F09149023097AB
:101FD00099F080912001882351F08091090387FFB7
:101FE00006C08C9111968C93119785E08C9302809A
:101FF000F381E02DCD0109940895DC01E0914802C0
:10200000F0914902309739F082E08C930480F58199
:10201000E02DCD01099408952091460230914702A8
:102020002817390771F09093470280934602E09198
:102030004802F0914902309721F00680F781E02DA7
:1020400009940895209144023091450228173907D8
:1020500071F09093450280934402E0914802F09120
:102060004902309721F00084F185E02D099408950C
:102070000E94B11D609354027093550280935602E2
:1020800090935702609350027093510280935202D2
:1020900090935302089585B7806885BF85B780689F
:1020A00085BF0895089508950C94521008950C94D6
:1020B00056100E944B1086EB9BE10E94281E0E9446
:1020C00053100C94541081E008950C9463100895FB
:1020D00008950E949C1D0E9439070E942D1E0C9499
:1020E0005710AF92BF92CF92DF92EF92FF920F9371
:1020F0001F93CF93DF9300D000D00F92CDB7DEB700
:102100000E9467100E9468100E94670781110E9458
:1021100038108BE4A82E82E0B82E10E000E0C02E2C
:10212000802F0E940D07F82EF501E1905F01E8165F
:1021300009F44EC08091CD0281FD0E9413078E2DBF
:102140008F25D12CEE24E394982F9E21E1F10E945B
:102150006510882399F0D982CA82FE2081E009F4B3
:1021600080E08B830E94A51D8160782F9D838C83E6
:1021700049815A816B818D810E940F11F801E55BC5
:10218000FD4F8081E826E0820E942B0C0E946F0A9E
:102190000E94C90F90914A02891789F10E94C90FC4
:1021A00080934A020F900F900F900F900F90DF9145
:1021B000CF911F910F91FF90EF90DF90CF90BF9044
:1021C000AF900C94F204D394EE0CF4E0DF12BCCF89
:1021D0000F5F1F4F0530110509F0A1CF8FEF8983E5
:1021E0008A831B820E94A51D8160782F9D838C832A
:1021F00049815A816B818D810E940F11C5CF0F904B
:102200000F900F900F900F90DF91CF911F910F9132
:10221000FF90EF90DF90CF90BF90AF900895CF9355
:10222000DF93CDB7DEB72B970FB6F894DEBF0FBEA6
:10223000CDBF4F83588769877A878B8761110E944A
:10224000261B1E8285E0FE013796DE011196019065
:102250000D928A95E1F749815A816B817C818D814C
:102260009E812B960FB6F894DEBF0FBECDBFDF91D7
:10227000CF910C940817FC01808191810C94A61ACF
:10228000CF93C82F882309F446C08CEF8C0F813A76
:10229000A0F46C2F80910801909109010E94771C95
:1022A000882329F08C2F0E94E31A0E94531B8C2F45
:1022B0000E94DC1ACF910C94531B80E28C0F883063
:1022C00048F4C77081E001C0880FCA95EAF70E9400
:1022D000041BF0CF8BE58C0F833038F42C2F245265
:1022E000330BC901CF910C940C10E8E5EC0FE731EA
:1022F00050F4F0E0EE0FFF1FE85AFE4F808191810D
:10230000CF910C942210CD3E30F08C2F0E943E0BCA
:10231000CF910C94110CCF910895882361F19CEF1B
:10232000980F913A20F40E94E31A0C94531B90E208
:10233000980F983050F4877091E001C0990F8A95FA
:10234000EAF7892F0E940A1BF0CF9BE5980F933084
:1023500020F490E080E00C940C1098E5980F9731F1
:1023600020F490E080E00C9422108D3E20F00E943A
:10237000980B0C94110C08951F93CF93DF93182F93
:10238000EB010E944011209731F4812FDF91CF9112
:102390001F910C948D118FE99FE00197F1F700C018
:1023A00000002197F0CF70E060E0893311F460E520
:1023B00070E00C94BC11882321F00E94041B0C9443
:1023C000531B0895882321F00E940A1B0C94531B71
:1023D0000895AF92BF92CF92DF92EF92FF920F9348
:1023E0001F93CF93DF9300D000D00F92CDB7DEB70D
:1023F0006C016D837983FC011281058102950F7058
:102400000E94FA1AE82E8823A1F0E12E112389F008
:102410008981807F803429F08D81805EE12C883035
:1024200040F082E00E949E1B0E94FA1A91E0E82E82
:10243000E926A980A2949FE0A922B12CF501EE58CB
:10244000F54D0C94C02909810F70F981F07F11F0CE
:102450000295007F1123B1F0002361F08D81805E31
:10246000883018F02D81211109C0802F0E94041B93
:102470000E94531B8D810E94401115C0802F0E9425
:10248000181BF6CF8D810E948D11002361F08D8184
:10249000805E883018F04D81411133C0802F0E943A
:1024A0000A1B0E94531B48E0A41AB10854E0A51669
:1024B000B10420F40E94C90F0E94F204EE2009F436
:1024C000D6C10E94F61A80FDD2C1F60112820E9486
:1024D000F01A0E94FF18C6010E945E140E94F01AB2
:1024E0000F900F900F900F900F90DF91CF911F9151
:1024F0000F91FF90EF90DF90CF90BF90AF900C9432
:102500003019802F0E941E1BCCCF59815F70F52E91
:102510006981607F603219F0F29480EFF8227D814A
:10252000772369F0713049F1112391F1002351F1C2
:10253000F601858180FF9ECF8F70858323C0112394
:1025400081F0011106C00E943A1B8F290E94DB1105
:10255000AACF0130C1F70E943A1B8F290E94401B6D
:10256000A2CF011106C00E94491B8F2D0E94E211CB
:102570009ACF013009F497CFF6CF112329F0063016
:1025800008F091CF8F2DE2CF053008F08CCFEDCF42
:10259000002359F3FD81F93349F42FEF47EE53E05F
:1025A000215040405040E1F700C000008D810E9462
:1025B0008D1179CF898186958695837069F08130F8
:1025C00009F071CF8D8199819370111102C090E053
:1025D00080E00E94221067CF8D8199819370111144
:1025E00002C090E080E00E940C105DCF8D8111232D
:1025F00029F00E943E0B0E94110C55CF0E94980BAF
:10260000FACF8981837009F050C011114CCF4D81F0
:10261000429546954770440F440F8D818F7090E02E
:10262000B0E0A0E0042E04C0880F991FAA1FBB1FB2
:102630000A94D2F76D8100E010E0980164FF0FC0AA
:102640000FE010E020E030E004C0000F111F221F57
:10265000331F4A95D2F700951095209530957981D2
:102660007695769573707D83B901A801482B592B17
:102670006A2B7B2B49835A836B837C835D816981C1
:102680007A818B819C81523051F0533059F0513016
:1026900019F00E945A1807CF0E94321804CF0E94E6
:1026A000821801CF0E943018FECE112309F445C0D4
:1026B000698160FFF8CE4D81429546954770440F81
:1026C000440F8D818F7090E0B0E0A0E0042E04C034
:1026D000880F991FAA1FBB1F0A94D2F7ED8100E053
:1026E00010E09801E4FF0FC00FE010E020E030E0C0
:1026F00004C0000F111F221F331F4A95D2F7009507
:10270000109520953095F981F695F695F370FD8337
:10271000B901A801482B592B6A2B7B2B49835A837B
:102720006B837C83F230A1F0F330C9F0F13049F0D3
:10273000CB01BA010E94BE19B6CE798171FFB3CE2A
:10274000BACF69817A818B819C810E949619ABCE28
:1027500069817A818B819C810E94E619A4CE69816E
:102760007A818B819C810E94AE189DCE59815F70C9
:102770005983112329F0852F0E94FF188D81E6CE01
:102780008D810E94E21189810E9430198CCE6D8169
:10279000623F99F160F4603FD9F0613F39F1112354
:1027A00009F444C0011166CE89818F7123C07D81F7
:1027B000733F41F1743F99F7112371F189818F7152
:1027C00089830E94FF1863E089810E94891B6BCE78
:1027D000112341F0053008F066CE89818F710E9487
:1027E000651961CE063008F05ECEF7CF89818F7112
:1027F000112351F20E94FF1856CE89818F71112347
:10280000C9F3C2CF112329F089818F710E94DA1890
:102810004ACE0E94BA1847CE81E00E949E1B023029
:1028200008F441CE82E00E949E1B3DCE002361F061
:102830009D81993309F0BACEEFEFF7EE23E0E15036
:10284000F0402040E1F7B0CE89818F719DCF498162
:102850004F706D81C6010E94FA040E94A21723CE18
:1028600049814F706D81C6010E94FD041CCE0F90FE
:102870000F900F900F900F90DF91CF911F910F91BC
:10288000FF90EF90DF90CF90BF90AF9008950F939F
:102890001F93CF93DF93EC01688179818A810E9435
:1028A000B21A8C010E940E1A0E942F18B801CE0194
:1028B000DF91CF911F910F910C94E911CF93DF938A
:1028C000EC018B819C81892B29F089819881892356
:1028D0008F3F59F4DF91CF910895CE010E944714A4
:1028E000CE01DF91CF910C940A04CE010E943304F3
:1028F0008111F3CF0E94FA1A882361F38A81882319
:1029000049F382E0DF91CF910C949E1B882321F044
:102910000E94181B0C94531B0895882321F00E94D9
:102920001E1B0C94531B089590E080E00E940C1035
:1029300090E080E00E9422100E94261B0E94371B1C
:102940000E94531B0E943C0D0C94110C0E94EA1A29
:102950000C9494140E94151B0C94A614282F892FF4
:1029600082958F70903C80F48A30B0F4843020F4EB
:10297000823090F480E008958630E1F781E0283ECF
:1029800088F0213FB9F70EC08C3011F08F3091F7ED
:1029900093FB882780F9089581E0203F39F018F4EF
:1029A000283E40F70895243F29F7FCCF08950E9460
:1029B000A61A0C94AE14CF93DF9300D000D00F92E0
:1029C000CDB7DEB70F900F900F900F900F90DF9163
:1029D000CF910895CF93DF9300D000D000D0CDB732
:1029E000DEB726960FB6F894DEBF0FBECDBFDF91DF
:1029F000CF9108951F93CF93DF93E091590216E092
:102A000080915A028E1304C0DF91CF911F910895D7
:102A1000CE2FD0E01E9FF0011124E55AFD4F4081DA
:102A2000518162817381848195810E94EA14FE0143
:102A30003196E770E5CF40918B0250918C02609106
:102A40008D0270918E0280918F02909190020C9471
:102A5000EA141F93CF93DF9380919002807FA9F4B3
:102A600080918D02882389F080915902C0915A0289
:102A700070918B0260918C02A0918E02B0918F02B6
:102A8000D62FD72316E0C81304C0DF91CF911F9132
:102A9000089590E0109711F0DF3F19F401968770C8
:102AA000F2CF189F9001199F300D1124F901E55ABA
:102AB000FD4F41816413F2CF40814713EFCF428134
:102AC0004111ECCF438154814A1B5B0B4E3B5105B6
:102AD00028F7809190028F70806180939002F901B5
:102AE000E05AFD4F80818F70806180838BE892E097
:102AF0000E945E14DF91CF911F910C94FA14AF9253
:102B0000BF92CF92DF92EF92FF920F931F93CF93DA
:102B1000DF93CDB7DEB72B970FB6F894DEBF0FBEAD
:102B2000CDBF8C0185E0F801DE01179601900D9272
:102B30008A95E1F7F801E2808BE8A82E82E0B82EB2
:102B400060918E0270918F026115710549F090912C
:102B50008B0240918C02892F84238F3F09F041C161
:102B6000EE2009F451C18F8198850E94D714F82E68
:102B7000882309F449C186E0F801ABE8B2E001908E
:102B80000D928A95E1F78BE892E00E943B110E943A
:102B9000291524C180919002582F507F6E3B7105FA
:102BA00008F07AC05111B5C0FE2C241324C0931331
:102BB00022C0E11020C08F708061809390020E943B
:102BC0001B158BE892E00E945E1480919002F80140
:102BD00085838F2D2B960FB6F894DEBF0FBECDBF29
:102BE000DF91CF911F910F91FF90EF90DF90CF90E9
:102BF000BF90AF900895CD2829F0822F83238F3F77
:102C000009F084C080E0F82FF170DF2EE0915902C6
:102C100040915A0256E080FD1CC0EE20D1F2809116
:102C20009002816080939002F12CD3CF8E2F90E0A0
:102C30005E9FF0011124E55AFD4F6181261306C005
:102C40006081361303C062816E11E7CFFC013196BB
:102C5000E770E413EBCF8F8198850E94A61A292F85
:102C600022952F70903260F0225F2F70223078F41E
:102C70009F7051F0F8019581907F31F4D12C0AC0FA
:102C80009F7011F08823D1F3805E8830B8F3C801BB
:102C90000E945E14FD2C9DCF51116EC04F8158854E
:102CA00069857A858B850E94DB148BE892E00E940F
:102CB0005E1486E0F50111928A95E9F70E941B15D2
:102CC000B3CF86E0F801ABE8B2E001900D928A95AF
:102CD000E1F77FCF8F8198850E94D71481113DC085
:102CE00080919002816080939002C8010E945E14DE
:102CF00070CF4F81588569857A858B850E94DB145A
:102D000086E0F50111928A95E9F768C081E08E2589
:102D10007ACF241306C0931304C0F801EE2009F4FF
:102D200051C08F8198850E94D714882309F46CC004
:102D3000EE2009F469C080919002803270F02091F9
:102D40008B0230918C023A8329831B82DD82CC82F4
:102D50008E83CE0101960E945E1486E0F801ABE8F6
:102D6000B2E001900D928A95E1F70E9429150E9428
:102D70001B15FF24F3942DCF2413D3CF9313D1CF5E
:102D8000E110CFCFF8018583C8010E945E1486E070
:102D9000F50111928A95E9F71CCF24139BCF931369
:102DA00099CF8091900280FD8CCF982F907F09F46D
:102DB00088CFF8018583903F31F0982F907F905F06
:102DC0008F70892B8583C8010E945E1486E0F8010C
:102DD000ABE8B2E001900D928A95E1F70E941B15D5
:102DE000F8CE30812181C380D480F0908D02F6012D
:102DF000E61BF70BBF01F110CDCE6E3B710508F05D
:102E000078CFFE2CE110C9CFC8010E945E14B1CF6B
:102E10001F93CF93DF93CDB7DEB72C970FB6F894FF
:102E2000DEBF0FBECDBF4F83588769877A878B87F8
:102E30009C87CE0107960E947F15882369F08A85BA
:102E40009B85892B39F058854F81852F84238F3FAF
:102E500009F071C016E05FC086E0FE013796DE0122
:102E6000119601900D928A95E1F78A859B85892BB1
:102E700089F38F81988589238F3F61F320915A02CE
:102E800030E0C9010196877099274091590248178F
:102E9000190671F40E94AA1410925A021092590253
:102EA00086E0EBE8F2E0DF011D928A95E9F7D2CFE8
:102EB00096E0929FD001939FB00D1124A55ABD4F6B
:102EC000FE01319601900D929A95E1F780935A0296
:102ED0000E94FA14BFCF819FC0011124855A9D4FD3
:102EE0000E947F158823E9F0E09159021E9FF001AE
:102EF0001124E55AFD4F40815181628173818481A3
:102F000095810E94EA148091590290E001968770A1
:102F10009927809359028091590290915A028913FE
:102F2000DACF2C960FB6F894DEBF0FBECDBFDF917F
:102F3000CF911F91089569857A858B859C850E9424
:102F4000EA1488CFEF92FF920F931F93CF93DF93F2
:102F50008C01892B89F0F12CEE24E394E801219671
:102F6000F8018491843709F458C0A0F4823009F440
:102F70003FC048F48130D1F0DF91CF911F910F9184
:102F8000FF90EF9008959CEF980F9037A8F70E945C
:102F900040110AC0853709F44EC09CE7980F90375E
:102FA00058F78F770E948D118E0116C00E5F1F4F4C
:102FB000FE01849190E2980F983060F48770FE2DA6
:102FC00001C0FF0F8A95EAF78F2F0E94291B0E94EC
:102FD000531B02C00E9440118F2D882309F4BECFDD
:102FE000EFE9FFE03197F1F700C000008150F5CF25
:102FF0000E5F1F4FFE01849190E2980F983050F4BD
:103000008770FE2D01C0FF0F8A95EAF78F2F0E946F
:103010002F1BDDCF0E948D11DFCF0E5F1F4FFE01F2
:10302000C491CC23C9F28FE99FE00197F1F700C06A
:103030000000C150F6CF0E5F1F4FFE01F490CCCFC1
:1030400008950C9420180E9421186093A402709394
:10305000A5028093A6029093A7020C94941408955D
:103060000C942318CF93DF9300D000D0CDB7DEB7F8
:1030700069837A838B839C838091A4029091A502BB
:10308000A091A602B091A70229813A814B815C816F
:10309000282B392B4A2B5B2B29833A834B835C8368
:1030A000CA01B9010F900F900F900F90DF91CF914F
:1030B0000C942318CF93DF9300D000D0CDB7DEB7A8
:1030C00069837A838B839C838091A4029091A5026B
:1030D000A091A602B091A70229813A814B815C811F
:1030E000282339234A235B2329833A834B835C8338
:1030F000CA01B9010F900F900F900F90DF91CF91FF
:103100000C942318CF93DF9300D000D0CDB7DEB757
:1031100069837A838B839C838091A4029091A5021A
:10312000A091A602B091A70229813A814B815C81CE
:10313000282739274A275B2729833A834B835C83D7
:10314000CA01B9010F900F900F900F90DF91CF91AE
:103150000C9423180C9420180C94AA180E94AC18F4
:103160006093A0027093A1028093A2029093A302A5
:103170000C94941460E070E0CB010C94AE18282FEE
:103180008091A0029091A102A091A202B091A3020D
:103190000097A105B10529F481E0222351F080E0D8
:1031A000089504C0B695A795979587952A95D2F767
:1031B000817008950F931F93CF93DF9300D000D0B9
:1031C000CDB7DEB741E050E060E070E08A019B01DE
:1031D00004C0000F111F221F331F8A95D2F70983E5
:1031E0001A832B833C83C901B8010F900F900F9075
:1031F0000F90DF91CF911F910F910C94AE180F9308
:103200001F93CF93DF9300D000D0CDB7DEB741E05E
:1032100050E060E070E004C0440F551F661F771F48
:103220008A95D2F78091A0029091A102A091A2026A
:10323000B091A3028A019B01082B192B2A2B3B2B4F
:1032400009831A832B833C83C901B8010F900F9027
:103250000F900F90DF91CF911F910F910C94AE18AA
:103260000F931F93CF93DF9300D000D0CDB7DEB77D
:1032700041E050E060E070E004C0440F551F661F5D
:10328000771F8A95D2F740955095609570958091FB
:10329000A0029091A102A091A202B091A3028A0182
:1032A0009B01082319232A233B2309831A832B8399
:1032B0003C83C901B8010F900F900F900F90DF91E0
:1032C000CF911F910F910C94AE180F931F93CF9332
:1032D000DF9300D000D0CDB7DEB741E050E060E032
:1032E00070E004C0440F551F661F771F8A95D2F700
:1032F0008091A0029091A102A091A202B091A3029C
:103300008A019B01082719272A273B2709831A834B
:103310002B833C83C901B8010F900F900F900F9041
:10332000DF91CF911F910F910C94AE18CF93DF9343
:1033300000D000D0CDB7DEB769837A838B839C83BE
:103340008091A0029091A102A091A202B091A3024B
:1033500029813A814B815C81282B392B4A2B5B2BAD
:1033600029833A834B835C83CA01B9010F900F9084
:103370000F900F90DF91CF910C94AE18CF93DF9305
:1033800000D000D0CDB7DEB769837A838B839C836E
:103390008091A0029091A102A091A202B091A302FB
:1033A00029813A814B815C81282339234A235B237D
:1033B00029833A834B835C83CA01B9010F900F9034
:1033C0000F900F90DF91CF910C94AE18CF93DF93B5
:1033D00000D000D0CDB7DEB769837A838B839C831E
:1033E0008091A0029091A102A091A202B091A302AB
:1033F00029813A814B815C81282739274A275B271D
:1034000029833A834B835C83CA01B9010F900F90E3
:103410000F900F90DF91CF910C94AE180895E92F83
:10342000EE0FEE0FE80F8E2F877041E001C0440FC2
:103430008A95EAF7E695E695E69585E0E89FF0013E
:103440001124EF56FD4F30E020E070E05191DF0194
:103450001197CB01022E02C0969587950A94E2F748
:10346000817081958527842385278C932F5F3F4F1B
:103470002530310559F70895E92FEE0FEE0FE80FCB
:103480009E2F9770E695E695E69585E0E89FF0011A
:103490001124EF56FD4F50E040E080E0219130E0F4
:1034A000092E02C0369527950A94E2F7217033273A
:1034B000042E01C0220F0A94EAF7822B4F5F5F4F60
:1034C0004530510559F70895BF92CF92DF92EF92A0
:1034D000FF920F931F93CF93DF938C01C090A002B4
:1034E000D090A102E090A202F090A3028091A402E9
:1034F0009091A502A091A602B091A702C82AD92A4C
:10350000EA2AFB2ACFE1D0E0BC2ED701C6010C2E5F
:1035100004C0B695A795979587950A94D2F780FD34
:103520000EC0219788F7B12C8B2DDF91CF911F9181
:103530000F91FF90EF90DF90CF90BF900895B8016A
:103540008C2F0E941A05019761F3EECFCF93DF9382
:10355000D82FC92F0E94641A6D2F7C2FDF91CF9135
:103560000C941A051F93CF93DF93162FD72F9091AA
:103570005802992339F0862F972FDF91CF911F9111
:103580000C94A61A882391F0862F972F0E94641A14
:10359000C82F682F812F9D2F0E940F1A612F7D2F1A
:1035A0008C2FDF91CF911F910C941A05862F972FA6
:1035B0000E943C1AC82FF2CF682F80910801909189
:1035C00009010C94FB1C682F80910801909109015E
:1035D0000C94061D80910801909109010C94111D15
:1035E0008091A80285958595859508958091A8027A
:1035F000877008959091A802977081E009F480E0A7
:1036000008958091CC0208959091CC02982B9093CC
:10361000CC020895982F90958091CC0289238093B5
:10362000CC0208958093CC0208951092CC020895A4
:103630009091CB02982B9093CB020895982F909560
:103640008091CB0289238093CB0208951092CB0204
:1036500008959091CA02982B9093CA020895982FCA
:1036600090958091CA0289238093CA02089510928E
:10367000CA0208958091A902089508950C943D1BF3
:103680009091A902981721F08093A9020C943E1BF7
:1036900008958091A902882329F01092A90280E060
:1036A0000C943E1B0895E0910801F091090180916E
:1036B000CC028083E0910801F09109018081909112
:1036C000CB02892B8083E0910801F0910901808170
:1036D0009091CA02892B80839091A902992381F04D
:1036E000E0910801F09109018081892B808380910C
:1036F0000801909109010E94631C81110E94491BDD
:1037000080910801909109010C94E20F08950C94A6
:10371000861B98E0899F90011124622B6093A80278
:103720000E94FF188091A8028595859585950C9437
:10373000871B1092A80280E00C94871B9091A8022E
:10374000809589238093A802282F277071F4282F51
:10375000082E000C330B9217130639F085958595CA
:1037600085950E9430190C94991B089580E0089566
:1037700090E080E00E94D5299C0181E02B3E3E4FE5
:1037800009F080E0089582E090E00C94CD2983E078
:1037900090E00C94CD29CF9384E090E00E94CD2955
:1037A000C82F81E290E00E94CD29982F8C2FCF91D5
:1037B0000895CF93682FC92F84E090E00E94DB2901
:1037C0006C2F81E290E0CF910C94DB29AB01BC011E
:1037D0008FE090E00C94ED29AB01BC0183E190E017
:1037E0000C94ED2960E070E0CB010C94EC1B60E0E0
:1037F00070E0CB010E94E61B0C94F21B6BEE7EEF97
:1038000090E080E00E94F92960E082E090E00E9470
:10381000DB2960E083E090E00E94DB291092A402A3
:103820001092A5021092A6021092A70260E084E016
:1038300090E00E94DB2960E081E290E00E94DB29B9
:1038400060E085E090E00E94DB2960E086E090E0A7
:103850000E94DB296FEF87E090E00E94DB2940E0C7
:1038600050E0BA0188E090E00E94ED2960E08DE030
:1038700090E00E94DB2940E050E0BA0188E190E04E
:103880000E94ED2960E087E190E00E94DB2940E0A2
:1038900050E0BA018CE190E00E94ED2960E080E206
:1038A00090E00E94DB2940E050E0BA0188E190E01E
:1038B0000E94ED290C94F71B0C94FE1B682F8EE0E0
:1038C00090E00C94DB29FC01329680912001882342
:1038D00021F0809109039EE187FF96E080E09150FE
:1038E00008F4089521912223D1F38F5FF8CF9C0132
:1038F000662301F1809120018823F1F08091090372
:1039000087FF1AC0462F469546954695603F90F42E
:10391000677081E090E002C0880F991F6A95E2F716
:10392000240F311DF901228130E02823392381E061
:10393000232B71F480E00895F9013296285F3F4F00
:103940008191861721F0E217F307D1F7F3CF81E0D9
:1039500008959C01FC0132968FEF90E0419146174B
:1039600051F08F3F19F4411101C0892F9F5F9630AC
:10397000A9F78F3F09F40895280F311D87FD3A9567
:10398000F901628308959C01FC013296285F3F4F44
:103990008191861303C0DF0111971C92E217F30790
:1039A000B9F70895FC01862F869586958695603F28
:1039B00060F4E80FF11D677021E030E001C0220FD4
:1039C0006A95EAF78281822B82830895FC01862F13
:1039D000869586958695603F68F4E80FF11D6770BF
:1039E00081E090E001C0880F6A95EAF780959281A6
:1039F00089238283089520912001222329F0209198
:103A0000090327FD0C94D21C0C94A91C20912001C1
:103A1000222329F02091090327FD0C94E61C0C9425
:103A2000C31CFC01329680912001882351F08091C3
:103A3000090387FF06C08EE1DF011D928A95E9F731
:103A4000089586E0F9CF089508950C94241D80917F
:103A5000FC03843049F10E94251D80E00E94F2049D
:103A60001092CE0288E190E020E40FB6F894A89579
:103A7000809360000FBE2093600083B7817F8460D5
:103A800083BF83B7816083BF7894889583B78E7F27
:103A900083BF0FB6F894A8958091600088618093E9
:103AA0006000109260000FBE08950895CF930E94A9
:103AB000231D0E9467070E94551DC0E08C2F0E94A5
:103AC0000D07811105C0CF5FC530C1F7CF910895B3
:103AD00081E0FCCF08950C946A1D0E94AA140E94F4
:103AE000C90F0E94F2040C946B1D1F921FB61F9207
:103AF00011248F939F93AF93BF938091CE02811136
:103B000013C08091050390910603A0910703B09123
:103B100008034196A11DB11D8093050390930603F0
:103B2000A0930703B0930803BF91AF919F918F912A
:103B30001F901FBE1F90189582E084BD93E095BD35
:103B40009AEF97BD80936E0008952FB7F8948091F7
:103B5000050390910603A0910703B09108032FBFBE
:103B60000895CF93DF9300D000D0CDB7DEB78FB7E5
:103B7000F89420910503309106034091070350917A
:103B8000080329833A834B835C838FBF69817A81E1
:103B90008B819C810F900F900F900F90DF91CF91B0
:103BA00008959C014FB7F894809105039091060306
:103BB000A0910703B09108034FBF821B930B089598
:103BC00078941F921FB61F9211248F939F93AF93E7
:103BD000BF938091050390910603A0910703B091D4
:103BE00008030196A11DB11D809305039093060360
:103BF000A0930703B0930803BF91AF919F918F915A
:103C00001F901FBE1F90189581E08093E00080E216
:103C10008093D8001092C9008FE19EE40197F1F7DC
:103C200000C0000087E090EBDC01809305049093D6
:103C30000604A0930704B093080488E19CE00FB643
:103C4000F894A895809360000FBE90936000FFCF1A
:103C500090939701809396010895CF93DF9300D0BE
:103C600000D0CDB7DEB70E94B81B811102C00E9400
:103C70005C1C0E94C31B8093CD020E94CB1B9093BF
:103C80000A03809309030E94C71B282F30E050E0ED
:103C900040E0CA01B9010E9430188091A0029091C1
:103CA000A102A091A202B091A30289839A83AB835F
:103CB000BC83BC01CD010F900F900F900F90DF914E
:103CC000CF910C94AC18881F8827881F0895982FCF
:103CD00081E0983F08F480E00895982F907F903D10
:103CE00069F070F4903B31F038F4903A19F0807E2E
:103CF000803899F483E00895903C79F482E0089547
:103D0000903EC1F3903F49F4EFE0E80F813F28F087
:103D1000F0E0EA57FE4F8081089580E008950F9308
:103D2000DC01022F0F77242F2F776F70462F406B07
:103D3000ED91FC9163E070E009950F9108950F9368
:103D4000DC01022F0F77242F2F776F70462F4069E9
:103D5000ED91FC9163E070E009950F9108950F9348
:103D6000DC01022F0F77242F2F776F70462F4068CA
:103D7000ED91FC9163E070E009950F9108950F9328
:103D80001F93DC019A01411580E25807C4F44115E4
:103D9000504EC4F0305E8901000F012F001F110B3F
:103DA00011952F776F70462F406EED91FC91119712
:103DB00063E070E0CD0109951F910F9108952FEFF9
:103DC0003FE3E9CF30E020E0E6CFFC01738362837C
:103DD0000895FC01758F648F0895CF93DF93EC01F4
:103DE0001DA21FA21EA2BC01685D7F4F40EC88513E
:103DF0009F4F0E94F1201B821A821D821C821F820B
:103E00001E82198618861B861A861D861C861F86AA
:103E10001E86198A188A1B8A1A8A1D8A1C8A1F8A7A
:103E20001E8A198E188E1B8E1A8E1D8E1C8E1F8E4A
:103E30001E8E19A218A2DF91CF910895EF92FF92E2
:103E40000F931F93CF93DF93EA017A01E60EF11CE3
:103E50008C0108511F4FCE15DF0539F4DF91CF914A
:103E60001F910F91FF90EF9008956991C8010E94F2
:103E7000F820F1CFFC01718360830895FC0171A3E8
:103E800060A30895AF92BF92CF92DF92EF92FF921C
:103E90000F931F93CF93DF9300D00F92CDB7DEB770
:103EA0007C016B01142FB22EA02EDC0195968C9113
:103EB00095978430A9F55A96ED91FC913097E9F1E8
:103EC000CB01019763E070E00E949829CB01880F35
:103ED000991F860F971F4983BA820B834C2D481B6D
:103EE0009E012F5F3F4FBC01C7010995D7015E9628
:103EF000ED91FC91309731F00A2D2B2D412FB60119
:103F0000C70109950F900F900F90DF91CF911F91EE
:103F10000F91FF90EF90DF90CF90BF90AF900895FA
:103F20006230710509F452C06330710599F0613057
:103F3000710509F47AC0D12CC12CD7015C96ED91A2
:103F4000FC91309799F20A2D2B2D412FB601C70114
:103F50000995CCCF842F807F803BF1F058F48039D5
:103F600031F1803A49F1803841F7D7011696ED9149
:103F7000FC9116C0803E29F1803FF9F6423FE9F6F8
:103F8000D7011C96ED91FC91202F4B2D62EF3097BD
:103F9000A1F2C7010995AACFD7011296ED91FC9124
:103FA000309759F22A2D4B2D612F6F70F2CFD70128
:103FB0001496ED91FC91F4CFD7011896ED91FC91F8
:103FC000EFCFD7011A96ED91FC91EACF842F807F35
:103FD000803D81F0803F99F0803C09F0AECFD70161
:103FE0001E96ED91FC91309709F4A7CF4B2D612FD0
:103FF0006F7010C0D7015096ED91FC91F4CF433F04
:1040000061F4D7015296ED91FC914B2D612F3097C1
:1040100009F493CFC701099569CF413F09F08DCFCE
:10402000D7015496ED91FC91F0CF842F0E94671E2A
:10403000882359F0D7015696ED91FC91309709F4F9
:104040007CCF612FC701099551CF163F09F075CF7D
:10405000D7015896ED91FC91F1CFFF920F931F93EA
:10406000CF93DF93EC01162F862F0E94671E8823C3
:1040700091F0FDA081E08DA300E020E0412F61E000
:1040800070E0CE010E94421FFDA2DF91CF911F91EF
:104090000F91FF900895812F0E94631E4DA18823E8
:1040A00009F443C0443029F01AA381E090E09FA3B3
:1040B0008EA3812F0E946D1E823069F1D0F4811190
:1040C0001EC0103F51F1173FB1F42EA13FA1C9010D
:1040D00063E070E00E949829FE01E80FF91F12A327
:1040E000B9016F5F7F4F7FA36EA30CA12BA14AA1E3
:1040F0000DC0833081F01DA21FA21EA2C6CF81E099
:104100008DA300E020E0412F61E070E0CE010E942D
:10411000421F1DA2BACF8DA3B8CF84E08DA31AA3EE
:1041200081E090E09FA38EA3B0CF442309F4ADCFEC
:104130002EA13FA1C90163E070E00E949829FE0111
:10414000E80FF91F12A3B9016F5F7F4F7FA36EA322
:104150008130910569F0029709F097CF0CA12BA14E
:104160004AA1CE010E94421F8DA18430C9F68DCF95
:1041700000E0423009F089CFF2CFCF92DF92EF9288
:10418000FF920F931F93CF93DF93EC01E8A1F9A166
:10419000309709F009956E0188EEC80ED11CC60152
:1041A0000E94272110E000E0E82EF12C0E151F05DB
:1041B00048F0DF91CF911F910F91FF90EF90DF902A
:1041C000CF90089560E0C6010E943B21682FCE0188
:1041D0000E942D2061E0C6010E944B210F5F1F4FFE
:1041E000E5CFFC01428374836383118210820895BA
:1041F0001F93CF93DF93EC01162F0E946221282F8B
:10420000E981F0E0CF0101966A8170E00E94AC295B
:1042100038813817190641F4822F0E94652180E009
:10422000DF91CF911F9108958B819C81E80FF91F39
:1042300010839981892F90E001966A8170E00E9435
:10424000AC298983822F0E94652181E0E9CFCF9339
:10425000DF93EC010E94622199812881921740F03E
:10426000C92FC21B0E9465218C2FDF91CF91089529
:10427000CA819C0FF5CFFC018081860F9927991F79
:10428000628170E00E94AC2923813481280F391F9C
:10429000F901808108951F93CF93DF93EC01162FCE
:1042A0000E946221282F8881810F9927991F6A8196
:1042B00070E00E94AC298883822FDF91CF911F91FB
:1042C0000C9465218FB7F89408958FBF08950895D1
:1042D00008950F931F93CF93DF9300D000D000D0A9
:1042E0000F92CDB7DEB7182F092FCE0101960E948D
:1042F000FA2381110BC027960FB6F894DEBF0FBECC
:10430000CDBFDF91CF911F910F9108958A810E94B7
:104310006D1E682F8A818D838B818E838C818F8324
:1043200061110AC02981243079F0273069F02630E4
:1043300069F061E02530C9F6AE014B5F5F4F812F18
:10434000902F0E941E1FD1CF63E0F6CF62E0F4CF22
:10435000DF92EF92FF920F931F93CF93DF9300D0E2
:1043600000D0CDB7DEB77B01142FD22E4A832B832A
:104370000C83842F0E946D1E811129C082E0E816F3
:10438000F10401F183E0E816F10439F0EA94EF2832
:1043900069F485E0173F21F404C087E0073F09F086
:1043A00084E08983CE0101960E94F5230F900F903F
:1043B0000F900F90DF91CF911F910F91FF90EF9091
:1043C000DF90089587EFD812EBCF86E0EACF129501
:1043D0001F701983E7CF0E9427088BE093E00E94AB
:1043E000ED1E68EA71E28BE093E00E943A1F69E6F5
:1043F00071E28BE093E00E943E1F67E671E28BE082
:1044000093E00E94E91E68E671E28BE093E00C9471
:10441000E51EFC01CB012091FC032430B1F4218185
:104420002F702093E90050E040E064E070E00E94CB
:10443000C22481110BC09091E80095FD07C09091B6
:10444000E8009E779093E800089582E00895FC01CB
:104450008091FC03843089F481818F708093E9001E
:104460009091F3008091F200892B49F08091E8004F
:104470008E778093E8000C94682682E0089580E0AF
:104480000895FC018091FC03843059F481818F7080
:104490008093E9008091E80080FF03C0CF010C9475
:1044A00027220895FC01CB012091FC03243011F058
:1044B00080E0089526812F702093E9002091E80084
:1044C00022FFF6CF2091E80025FFF2CF50E040E038
:1044D00064E070E00E9411258091E80085FD05C030
:1044E0008091E8008B778093E80081E008958091C7
:1044F000EF020895CF93DF9300D00F92CDB7DEB7D0
:104500009091FC03943019F589836A837B8382E060
:104510008093E9008FEF9091E800815095FD06C0EF
:1045200095ED9A95F1F700008111F5CF8091E800A3
:1045300085FF0DC050E040E063E070E0CE010196E1
:104540000E94C2248091E8008E778093E8000F904B
:104550000F900F90DF91CF910895BC0184E00C94EF
:104560007A22BC0183E00C947A2222E02093E900B5
:104570002FEF3091E800215035FD06C035ED3A951A
:10458000F1F700002111F5CF2091E80025FF0BC0C5
:1045900050E040E066E070E00E94C2248091E800B4
:1045A0008E778093E8000895CF93DF93D82FC92F9B
:1045B000809120018823C1F18091090387FF34C0D5
:1045C00060E282E08093E9008FEF9091E8008150F3
:1045D00095FD06C095ED9A95F1F700008111F5CF94
:1045E0008091E80085FF1DC08091200170E050E0BF
:1045F00040E0811104C050E040E068E070E08D2FA1
:104600009C2F0E94C2248091E8008E778093E8005E
:1046100080E2ED2FFC2FAFECB2E001900D928A9575
:10462000E1F7DF91CF91089568E081E0CBCF8091F1
:10463000FB03811109C00E9499260E94F6268091F1
:10464000E20084608093E20008951092FB030895D5
:1046500008950895089542E061EC81E00E941526D6
:1046600042E261EC82E00E94152642E361E883E0C9
:104670000E94152642E361E884E00C94152680919F
:10468000FE03893089F148F4823009F49DC08330FB
:1046900009F458C0813041F008958A3009F484C08B
:1046A0008B3009F46AC008958091FD03813A09F0C6
:1046B00048C08091E800877F8093E80080910104E2
:1046C00090910204892B61F460E28FEC92E070E03B
:1046D0000E9460258091E8008B778093E800089520
:1046E00060E090E080E0F3CF8091FD03813249F5F6
:1046F0008091010490910204029718F58091E800DE
:10470000877F8093E8008091E80082FF16C0909137
:10471000F3008091F200029729F48091F1008B7FE1
:10472000813021F48091F1008093EF028091E800C4
:104730008B778093E8000C9449268091FC038111CB
:10474000E2CF08958091FD03813AD9F78091010469
:1047500090910204892BA9F78091E800877F8093CC
:10476000E8008091E80080FFFCCF809120018093D9
:10477000F1008091E8008E77DCCF8091FD038132DB
:1047800001F78091010490910204892BD1F6809168
:10479000E800877F8093E8000E9449268091FF030C
:1047A000809320010C94AA148091FD03813249F674
:1047B0008091E800877F8093E8000E9449268091DD
:1047C00000048093F00208958091FD03813A09F07E
:1047D000B8CF8091E800877F8093E8008091E8005F
:1047E00080FFFCCF8091F002C2CFBC018AE091E053
:1047F0000C940922BC018AE091E00C9452220E94A0
:10480000EB2184B7877F84BF0FB6F894A895809179
:104810006000886180936000109260000FBE80E8A5
:1048200090E00FB6F89480936100909361000FBE02
:104830000E9459100E9499260E94F6268091E2005B
:1048400084608093E20078940E947D290E94691020
:1048500086E191E00E94C40F8091FC038530C9F08D
:104860000E9471108AE091E00E9441220E9467102C
:104870000E946810F1CF0E94271D8091FA038823BF
:1048800041F00E94561D882321F00E94AC240E9412
:10489000AA148091FC03853071F30E946D1DE0CF56
:1048A0000C945224FC01CB01DA012F2F3327233043
:1048B0003105D1F070F42130310509F43EC02230C9
:1048C000310569F48FE990E020E232E02D933C93CA
:1048D000089521323105E9F02232310521F190E0CD
:1048E00080E030E020E0F2CFCF019927E13059F0AD
:1048F0008230910559F0ECE1F2E0892B81F7849147
:1049000090E09F01E3CFE0E0F2E0F9CFE4EDF1E0E9
:10491000F6CF892BB9F06130710509F789E090E095
:104920002BE432E0D3CF892B91F061307105B9F6D9
:1049300086EB90E021ED32E0C9CF82E190E02FEBF1
:1049400032E0C4CF89E090E022E332E0BFCF80E4E0
:1049500090E027E833E0BACF80E189BD82E189BDEC
:1049600009B400FEFDCF8091D8008F7D8093D800E0
:104970008091E00082608093E0008091E00081FD02
:10498000FCCF0895AF92BF92CF92DF92FF920F9328
:104990001F93CF93DF936C01EB018A010E9468267D
:1049A000F82E811123C00115110539F0F80180811D
:1049B0009181C81BD90BC80ED91EB12CA12C2097F0
:1049C000A9F08091E80085FD22C08091E8008E77F3
:1049D0008093E80001151105A1F0F8018081918113
:1049E000A80EB91EB182A08285E0F82E8F2DDF912E
:1049F000CF911F910F91FF90DF90CF90BF90AF901C
:104A000008950E9468268823D1F2F82EEFCFF60190
:104A100081916F018093F1002197FFEFAF1ABF0AD8
:104A2000CECFAF92BF92CF92DF92FF920F931F93A0
:104A3000CF93DF936C01EB018A010E946826F82E68
:104A4000811123C00115110539F0F8018081918190
:104A5000C81BD90BC80ED91EB12CA12C2097A9F0C8
:104A60008091E80085FD22C08091E8008B778093DB
:104A7000E80001151105A1F0F80180819181A80ECF
:104A8000B91EB182A08285E0F82E8F2DDF91CF91E3
:104A90001F910F91FF90DF90CF90BF90AF9008953E
:104AA0000E9468268823D1F2F82EEFCF8091F10082
:104AB000F60181936F012197FFEFAF1ABF0ACECFA6
:104AC000FC01CB0120910304309104042617370721
:104AD00090F0009729F42091E8002E772093E800C9
:104AE00040E0009751F4411108C08091E80082FF36
:104AF00031C080E00895C901F3CF2091FC03222347
:104B0000A9F12530A9F12091E80023FD2DC02091C5
:104B1000E80022FDEACF2091E80020FFE2CF3091AB
:104B2000F3002091F200009719F02830310558F079
:104B300041E02830310509F040E02091E8002E776F
:104B40002093E800CECF41914093F10001972F5F71
:104B50003F4FE9CF8091FC03882341F0853041F03D
:104B60008091E80083FFC1CF81E0089582E008953D
:104B700083E00895FC01CB012091030430910404EB
:104B80002617370790F0009729F42091E8002E7738
:104B90002093E80040E0009751F4411108C0809153
:104BA000E80082FF32C080E00895C901F3CF209170
:104BB000FC032223B1F12530B1F12091E80023FD5F
:104BC0002EC02091E80022FDEACF2091E80020FFCE
:104BD000E2CF3091F3002091F200009719F02830D5
:104BE000310558F041E02830310509F040E02091CE
:104BF000E8002E772093E800CECF44914093F10057
:104C0000319601972F5F3F4FE8CF8091FC038823B7
:104C100041F0853041F08091E80083FFC0CF81E012
:104C2000089582E0089583E00895982F973028F042
:104C30008F708093E90081E008959093E900242F1C
:104C4000762F50E0981731F07091EC002091ED0034
:104C50005091F00021FD02C09F5FE8CF3091EB0042
:104C60003E7F3093EB003091ED003D7F3093ED00BF
:104C70003091EB0031603093EB007093EC002093A7
:104C8000ED005093F0002091EE0027FDE5CF80E08D
:104C900008958091FD0387FF13C08091E80082FF93
:104CA00006C08091E8008B778093E80004C0809173
:104CB000FC038111F2CF08958091FC038823D9F37E
:104CC0008091E80080FFF8CF8091E8008E77ECCFEC
:104CD0002091E4003091E50095E6A9012091EC00D7
:104CE000822F817020FF06C08091E80080FF06C0FF
:104CF00080E008952091E80022FD1AC08091FC0315
:104D0000882389F0853089F08091EB0085FD0FC004
:104D10002091E4003091E50042175307F9F29150D9
:104D2000E1F684E0089582E0089583E0089581E04B
:104D300008950E9407270E940F27E0EEF0E080818F
:104D400081608083E8EDF0E080818F77808319BCFB
:104D5000A7EDB0E08C918E7F8C9380818F7E8083D5
:104D60001092FB0308950F931F93CF93DF930E943C
:104D700007270E940F27C8EDD0E088818F778883AE
:104D800088818068888388818F7D888319BC109290
:104D9000FC031092F8031092FA031092F90300EE4C
:104DA00010E0F80180818B7F808388818160888317
:104DB00042E060E080E00E941526E1EEF0E08081B4
:104DC0008E7F8083E2EEF0E080818160808380814D
:104DD00088608083F80180818E7F808388818061F4
:104DE0008883DF91CF911F910F910895E8EDF0E056
:104DF00080818F7E8083E7EDF0E080818160808319
:104E000084E082BF81E08093FB030C94B326E8ED3D
:104E1000F0E080818E7F80831092E20008951092EE
:104E2000DA001092E10008951F920F920FB60F92D0
:104E300011242F933F934F935F936F937F938F939F
:104E40009F93AF93BF93EF93FF938091E10082FF15
:104E50000BC08091E20082FF07C08091E1008B7F50
:104E60008093E1000E947C298091DA0080FF19C0C4
:104E70008091D80080FF15C08091DA008E7F8093EA
:104E8000DA008091D90080FF94C080E189BD82E181
:104E900089BD09B400FEFDCF81E08093FC030E9430
:104EA00017238091E10080FF19C08091E20080FF0C
:104EB00015C08091E2008E7F8093E2008091E20035
:104EC00080618093E2008091D80080628093D80056
:104ED00019BC85E08093FC030E9429238091E100A6
:104EE00084FF29C08091E20084FF25C080E189BD54
:104EF00082E189BD09B400FEFDCF8091D8008F7D8D
:104F00008093D8008091E1008F7E8093E1008091B2
:104F1000E2008F7E8093E2008091E20081608093C6
:104F2000E2008091F803882309F449C084E080936B
:104F3000FC030E942A238091E10083FF29C0809115
:104F4000E20083FF25C08091E100877F8093E1002C
:104F500082E08093FC031092F8038091E1008E7F41
:104F60008093E1008091E2008E7F8093E200809147
:104F7000E20080618093E20042E060E080E00E9415
:104F800015268091F00088608093F0000E9428230D
:104F9000FF91EF91BF91AF919F918F917F916F9111
:104FA0005F914F913F912F910F900FBE0F901F90E7
:104FB000189519BC1092FC030E94252372CF809192
:104FC000E30087FD02C081E0B2CF83E0B0CF1F9243
:104FD0000F920FB60F9211242F933F934F935F932D
:104FE0006F937F938F939F93AF93BF93CF93DF93F1
:104FF000EF93FF93D091E900DF708091EC00C82F10
:10500000C17080FDC0E81092E9008091F000877FB8
:105010008093F00078940E942B281092E9008091F0
:10502000F00088608093F000CD2BCF70C093E90032
:10503000FF91EF91DF91CF91BF91AF919F918F91B0
:105040007F916F915F914F913F912F910F900FBE84
:105050000F901F9018951F93CF93DF93CDB7DEB7B6
:10506000AA970FB6F894DEBF0FBECDBF8DEF93E0C9
:10507000FC0101962091F100208324E08530920705
:10508000B9F70E943F238091E80083FF1DC1809102
:10509000FD039091FE039A3008F016C1E92FF0E06D
:1050A000EE57F54D0C94C029803899F0823809F0FC
:1050B0000BC1809101048F70873008F005C1809387
:1050C000E9008091EB0085FB882780F91092E900C8
:1050D00006C08091F9039091FA039111826090913A
:1050E000E800977F9093E8008093F1001092F10020
:1050F0008091E8008E77E4C0882309F4D2C0823022
:1051000009F0E2C08091FF038111D5C080910104B4
:105110008F702FEF280F263008F0D6C08093E9005B
:105120002091EB0020FFC7C0933031F48091EB0059
:1051300080628093EB00BFC09091EB0090619093F0
:10514000EB0021E030E001C0220F8A95EAF72093BE
:10515000EA001092EA008091EB008860EACF8111AA
:10516000B3C01091FF031F778091E3008078812BFB
:105170008093E3008091E800877F8093E8000E949D
:1051800049268091E80080FFFCCF8091E300806891
:105190008093E30082E0111183E08093FC0394C0CC
:1051A0008058823008F090C08091FF0390910004F5
:1051B0008C3D23E0920799F583E08A838AE2898314
:1051C0004FB7F894DE01139620E03EE051E2E32F62
:1051D000F0E050935700849120FF03C082958F70B8
:1051E0003F5F8F708A30C8F0895C90E08D939D930B
:1051F0002F5F243161F74FBF8091E800877F809354
:10520000E8006AE270E0CE0101960E94602580917C
:10521000E8008B778093E80057C0805DE6CF60910F
:10522000010470910204AE014F5F5F4F0E94502451
:10523000BC01892B09F448C08091E800877F8093E6
:10524000E80089819A810E94BA25E1CF8038E1F592
:105250008091E800877F8093E8008091F803809335
:10526000F10046CF811130C09091FF03923060F57C
:105270008091E800877F8093E8009093F8030E9474
:1052800049268091F803882311F084E005C08091BD
:10529000E30087FDFACF81E08093FC030E942B237B
:1052A00013C08091FF03813079F481E0933009F0DD
:1052B00080E08093FA031092E9008091E800877FF4
:1052C0008093E8000E9449268091E80083FF0AC08D
:1052D0008091E800877F8093E8008091EB008062F6
:1052E0008093EB00AA960FB6F894DEBF0FBECDBF39
:1052F000DF91CF911F9108950895CF938091FC0382
:105300008823A1F0C091E900CF709091EC00892F23
:10531000817090FD80E8C82B1092E9008091E80030
:1053200083FD0E942B28CF70C093E900CF91089590
:10533000AA1BBB1B51E107C0AA1FBB1FA617B707BB
:1053400010F0A61BB70B881F991F5A95A9F78095D7
:105350009095BC01CD01089597FB072E16F400949B
:1053600007D077FD09D00E94982907FC05D03EF4AC
:10537000909581959F4F0895709561957F4F089501
:10538000EE0FFF1F0590F491E02D0994DC0101C0A0
:105390006D9341505040E0F70895F999FECF92BDCA
:1053A00081BDF89A992780B50895A8E1B0E042E060
:1053B00050E00C94012A262FF999FECF92BD81BDB1
:1053C000F89A019700B4021639F01FBA20BD0FB643
:1053D000F894FA9AF99A0FBE08950396272F0E941F
:1053E000DC290E94DB29252F0E94DC29242F0C9424
:1053F000DC290196272F0E94DC290C94DB29DC0193
:10540000CB01FC01F999FECF06C0F2BDE1BDF89ACF
:10541000319600B40D9241505040B8F70895F89479
:10542000FFCFC808C808C808C808C808C808C808FE
:10543000C808C808C808D508E008EB08EB08EB085E
:10544000EB08EB08EB08EB08EB08EB08EB08EB08C4
:10545000EB08EB08F60808092F092F092F092F0977
:105460002F092F092F092F092F092F092F093D096E
:1054700054096609660966096609660966096609C6
:1054800066096609660966096609660966096609A4
:10549000660978099609A809BE09CF09E009F0094B
:1054A000010A060A0D0A2E0A430A5A0A0F0F150F9F
:1054B000190F270F2B0F2F0F330F390F410F450FE8
:1054C000490F4D0F590F5D0F610F650F6B0F890F5E
:1054D000730F1D0F230F510F550F3D0F6F0F7F0FD0
:1054E000920F960F2312231285128512DA12F612EA
:1054F000531253120113B613C713C71327145312B1
:105500005312301454287C2864297C286429AF283D
:08551000D02864292629322964
:105518002808641E140A321EAA02038340000001F0
:105528000440000001007722D422B522B122AD2226
:1055380001E200E900EA00B500B600B700CD00833B
:1055480001CC008A01920194012102230224022540
:1055580002260227022A02B300B4006F00700097E7
:10556800C634F13795679293E200E900EA00B50086
:10557800B600B700CD008301CC008A0192019401E6
:105588002102230224022502260227022A02B3004E
:10559800B4006F0070000203020000010001010165
:0655A800010100010100F9
:00000001FF
