:100000000C94E7010C942E020C942E020C942E02F8
:100010000C942E020C942E020C942E020C942E02A0
:100020000C942E020C942E020C94B0230C94832476
:100030000C94C71D0C942E020C942E020C942E02CC
:100040000C942E020C942E020C942E020C942E0270
:100050000C942E020C94321E0C942E020C942E0240
:100060000C942E020C942E020C942E020C942E0250
:100070000C942E020C942E020C942E020C942E0240
:100080000C942E020C942E020C942E020C942E0230
:100090000C942E020C942E020C942E020C942E0220
:1000A0000C942E020C942E020C942E025F00600021
:1000B000610056005C005D005E00570059005A0068
:1000C0005B005400530062006300550000005800BC
:1000D0002E000000010001000100010001000100EC
:1000E0000100010001000100010001000100010008
:1000F00001000100000001000100000001000100FA
:1001000001000100010001000100010001000100E7
:1001100001000100010001000100010000000100D8
:1001200001000000010001000100010001000100C8
:1001300001000100010001000100010001000100B7
:1001400001000100000001000100000000000000AB
:10015000000000002A2B2800000000000000000022
:100160000000000000000029000000002C1E3420C8
:10017000212224342627252E362D3738271E1F20EE
:100180002122232425263333362E37381F04050633
:100190000708090A0B0C0D0E0F1011121314151677
:1001A0001718191A1B1C1D2F3130232D3504050675
:1001B0000708090A0B0C0D0E0F1011121314151657
:1001C0001718191A1B1C1D2F3130354C0000000068
:1001D000000000000000000000000000000000001F
:1001E000000000000000000000000000000000000F
:1001F0007E0F00D4FFFFFFC7000000782A037400C1
:1002000065006D0070006F005F0074007500720083
:1002100074006C0065002F006200720061006400D1
:1002200070006100640000001A034D0041004E00A0
:10023000550046004100430054005500520045005F
:10024000520000000403090409025B00030100A03E
:10025000FA09040000010301010009211101000154
:100260002240000705810308000A09040100020377
:10027000000000092111010001222200070582036C
:100280002000010705030320000109040200010307
:1002900000000009211101000122B60007058403B6
:1002A00020000A120110010000000874747062013D
:1002B00000010200010660FF0961A1010962150049
:1002C00026FF009520750881020963150026FF00AE
:1002D000952075089102C005010902A10185020956
:1002E00001A10005091901290815002501950875C6
:1002F0000181020501093009311581257F950275BB
:1003000008810609381581257F9501750881060544
:100310000C0A38021581257F950175088106C0C039
:1003200005010980A101850319012AB700150126DD
:10033000B700950175108100C0050C0901A1018568
:100340000419012AA002150126A002950175108149
:1003500000C005010906A1018505050719E029E787
:10036000150025019508750181020507190029EF7F
:100370001500250195F0750181020508190129056F
:10038000950575019102950175039101C00501095B
:1003900006A101050719E029E71500250195087553
:1003A0000181029501750881010507190029FF15D2
:1003B0000026FF009506750881000508190129052A
:1003C000950575019102950175039101C0001124F5
:1003D0001FBECFEFDAE0DEBFCDBF04B603FE27C0FD
:1003E0008091740290917502A0917602B09177028B
:1003F0008730904BA740B04BD1F41092740210920A
:100400007502109276021092770214BE84B7877F2D
:1004100084BF0FB6F894A89580916000886180939E
:100420006000109260000FBEE0E0F8E3099511E073
:10043000A0E0B1E0ECEEFDE402C005900D92AE3814
:10044000B107D9F722E0AEE8B1E001C01D92A437B0
:10045000B207E1F70E9474200C94AB260C940000C4
:10046000CF93DF939C01FB019A9581159F4160F525
:10047000E901CC27D170D901AA27B270B90166274A
:100480007470A9014427587034FF10C080E1CD2B4F
:1004900009F480E0AB2B09F08062672B09F08064DF
:1004A000452B09F08068DF91CF91099481E0CD2B35
:1004B00009F480E0AB2B09F08260672B09F08460BF
:1004C000452B89F38860EFCFDF91CF910895CF93CB
:1004D000DF93EC01805E9109089720F06DEE74E1E6
:1004E000209711F462E472E1CE010E9430028C2F59
:1004F000DF91CF910C94A711CF93DF93EC010E9471
:10050000F411CE01805E9109089720F064EF74E148
:10051000209711F469E472E1CE01DF91CF910C9440
:100520003002CF93DF93D82FC92F0E9467028D2FFF
:100530009C2FDF91CF910C947C0281E0089581E0A3
:1005400008950C949F0208950C94A3021F93CF93D7
:10055000DF9300D000D00F92CDB7DEB749835A8326
:100560006B833091B80189819A8131111DC0662356
:10057000B9F02223A9F00E94B01A182F682F8981A0
:100580009A810E945B1A69817A81812F0F900F9066
:100590000F900F900F90DF91CF911F910C94E70C6B
:1005A0000E94881A182FEFCF0E94B01A69817A81B1
:1005B000EDCFFC01262F40815181628173818481BE
:1005C0000C94A602CF93DF93D82FC92F60E00E942E
:1005D000D9026D2F7C2FDF91CF910C94A4028F92C2
:1005E0009F92AF92BF92CF92DF92EF92FF920F93C2
:1005F0001F93CF93DF9300D000D0CDB7DEB76B0150
:100600007C0181E090E0A0E0B0E04C015D0104C01D
:10061000880C991CAA1CBB1C4A95D2F7B501A401F1
:100620004C015D0104C0880C991CAA1CBB1C2A95B6
:10063000D2F7482959296A297B2904C0880F991FB4
:10064000AA1FBB1F0A95D2F78A019B010C211D210D
:100650002E213F210417150726073707F9F49C01BF
:10066000AD012C293D294E295F2929833A834B83EB
:100670005C8369817A818B819C810F900F900F90B0
:100680000F90DF91CF911F910F91FF90EF90DF902E
:10069000CF90BF90AF909F908F9008958095909548
:1006A000A095B0954C015D018C209D20AE20BF200F
:1006B00089829A82AB82BC82DCCF0F93CF93DF9387
:1006C00000D000D0CDB7DEB7262F042F4091000216
:1006D00050910102609102027091030249835A8392
:1006E0006B837C83482F69817A818B819C810E94F6
:1006F000EF020F900F900F900F90DF91CF910F911D
:100700000C9415190E94811E0E940A1C811102C0BE
:100710000E94AE1C0E94C60D0C94CE060C94D1060D
:1007200008950E9411150E9490032FEF84E39CE02E
:10073000215080409040E1F700C000000C94561E0C
:100740000F931F93CF93DF93EC0161E00E94D902D6
:100750008C01BE010E94E10A882389F1BE01C80113
:100760000E94A102882359F1BE01C8010E944F0EC8
:10077000882329F1BE01C8010E94D90E8823F9F00F
:10078000BE01C8010E942E0F8823C9F0BE01C80116
:100790000E940110882399F08A81882339F001157D
:1007A0008CE5180751F00E3D1C4579F0CE01DF9124
:1007B000CF911F910F910C949D020E94910380E0B4
:1007C000DF91CF911F910F9108950E94AE1CF7CF3A
:1007D000DF92EF92FF920F931F93CF93DF93E82F57
:1007E000F0E0E45BFE4FD490282F269526952695C1
:1007F00030E0F901E451FE4F0491877010E0082EBB
:1008000002C0159507950A94E2F701701127F901C6
:10081000E452FE4FE490F12C082E02C0F594E794C8
:100820000A94E2F791E0E922FF24F901E453FE4F34
:10083000C491D0E002C0D595C7958A95E2F7C17002
:10084000DD270115110519F081EE0E94A711E114B1
:10085000F10419F086EE0E94A7118D2D0E943A1224
:10086000EF2819F086EE0E94F411012B19F081EEA9
:100870000E94F411CD2B51F08CE2DF91CF911F91AA
:100880000F91FF90EF90DF900C943A12DF91CF918F
:100890001F910F91FF90EF90DF900895EF92FF92DC
:1008A0000F931F93CF93DF93EC01162F0AE08881FB
:1008B000882309F456C0813009F050C08981813005
:1008C000A1F47E0182E0E80EF11C8A810E943A12B6
:1008D000E7012196812F882351F3EFE9FFE031975B
:1008E000F1F700C000008150F6CF823041F47E0164
:1008F000E2E0EE0EF11C8A810E94A711E9CF83305D
:1009000041F47E01F2E0EF0EF11C8A810E94F411A5
:10091000DFCF843011F02196DCCF2A81229680E04F
:1009200090E0AE014F5F5F4F2053330B2A3031050B
:1009300050F0009771F2EFE9FFE03197F1F700C056
:1009400000000197F6CF089FB001099F700D112498
:10095000C901860F971F2981EA01E3CF0E94E803AE
:10096000B8CFDF91CF911F910F91FF90EF90089535
:1009700060E00C944E04982F9F709A50963018F0B7
:10098000805D0C94E803895AFCCF08950C94C5044B
:1009900081E008950C94C804CF93C82F0E94C60428
:1009A0008C2FCF910C94CA0490E080E008950895B4
:1009B000FC01EE0FFF1FE450FE4F859194910895C6
:1009C000CF93DF930E94E70C0E94F205EC018115A2
:1009D00020E5920708F04BC0811530E4930708F03A
:1009E000B2C0803E910518F5803C910508F09FC08B
:1009F000883A910570F4853A910508F095C08130E8
:100A0000910529F10497813A910508F1D0E0C0E001
:100A10001EC08F3B9105D1F3C85AD0E0CC0FDD1F2B
:100A2000C75EDE4F0990D881C02DD46410C08115F7
:100A300040E2940780F48F3F910509F040F4883E2E
:100A4000910528F0805F9109D0654097F8F6CE01B6
:100A5000DF91CF910895C11580E3D80708F46DC0E8
:100A6000CE019927D3FD6CC0EC01D06CF0CFC1153D
:100A700095E5D90760F5C11524E5D20708F094C0C3
:100A8000C11533E5D30778F4C11542E5D40708F062
:100A90007AC0C11581E5D80708F458C0DC2FCC27EF
:100AA000C16FD06AD4CFCE018370992721E030E0A6
:100AB00002C0220F331F8A95E2F7C695C69590E2D1
:100AC000C99FE0011124C22BD32BDA68C0CFC11516
:100AD0002AE5D207B0F4C11539E5D30708F074C090
:100AE000C11546E5D40708F464C0CE0198558F3F80
:100AF000910511F008F08ACFDC2FCC27C06FD06AA7
:100B0000A6CFCE0190568115904208F07FCF8D2F51
:100B10008F710E948A0690E0982F882788279F71FE
:100B20009C012C2BE9014EC0A497D06490CF805C2F
:100B300091090E94D804EC018ACFCE019F70F9CFB1
:100B4000EC01D86C84CFDF70D06A81CFCE0174E025
:100B5000969587957A95E1F783702C2F26952695A3
:100B6000237040E2249F90011124382B8C2F837036
:100B7000C1E0D0E002C0CC0FDD1F8A95E2F7C22BA6
:100B8000D32BDC6864CFCE018370992721E030E05D
:100B900002C0220F331F8A95E2F7C695C69580E200
:100BA000C89FE0011124EBCFDC2FCC27C46FD06AA3
:100BB0004ECF8C2F0E948A06C82FD0E0DC2FCC2786
:100BC000CC27DF71D06243CF8C2F8F700E948A06B2
:100BD00034E0D695C7953A95E1F7CF70DC2FC82F52
:100BE000D06935CF803E910599F1C8F481339105E4
:100BF00009F476C048F48932910509F46AC08A3252
:100C0000910509F474C0089589339105D1F08238B3
:100C10009105B9F08533910509F454C00895843ED7
:100C2000910599F138F4823E9105F9F0833E9105E2
:100C300009F10895863E910599F1873E9105B9F134
:100C40000895209165022370A1F080EE90E0089550
:100C50002091650220FD52C03091660230FF09C02C
:100C600024FF4FC090E080E004C02091650222FD87
:100C7000F7CF08952091650222FD46C030916602AB
:100C800030FDE3CF24FFF5CFEDCF2091660221FFA9
:100C9000F0CF8091650284FDE5CF87EE90E0089566
:100CA0002091650223FFE5CF24FDDCCFF6CF209114
:100CB000650223FD2CC03091660231FFE3CF84EE44
:100CC00090E008952091650225FFD3CF89E290E05E
:100CD00008952091650225FFCCCF85E390E008952B
:100CE0002091650226FFC5CF8AE290E00895209109
:100CF000650226FFBECF81E390E0089589E390E08E
:100D0000089583EE90E0089582EE90E0089586EED7
:100D100090E008959091650292FF06C0282F2871F7
:100D20002830F9F4877F846093FF06C0282F28714C
:100D30002831F1F4877E84612091660220FF06C08D
:100D4000382F38713830D9F4877F816021FF06C091
:100D5000282F28712831D1F4877E816194FD877E08
:100D60000895282F24712430F9F68B7F8860DCCF1A
:100D7000282F2471243101F78B7E8861DDCF382F35
:100D80003171313019F78E7F8860E0CF282F2171C3
:100D9000213121F78E7E8861E1CF08950C94CD0634
:100DA00008950C94D006E82FF0E0EA5AFD4F8081B8
:100DB0000895089580EA8A95F1F7089500C008958E
:100DC0000C94DA06F894E82FE295EF70A1E2AE0FEA
:100DD000B0E04C918F7021E030E0B90102C0660FA5
:100DE000771F8A95E2F7CB01962F909594239C93D9
:100DF000EE5DF0E09081892B80837894089587E9F7
:100E00000E94E20686EC0E94E20684E30E94E2066B
:100E100081EF0E94E20687E30E94E20685E90E94D4
:100E2000E20687E60E94E20682E90E94E20683E982
:100E30000E94E20685E0E1E5F2E0DF01982F1D92D5
:100E40009A95E9F7E6E5F2E0DF011D928A95E9F768
:100E500085E00E94B6070C948203AF92BF92CF92B6
:100E6000DF92EF92FF920F931F93CF93DF9307E4EC
:100E700011E0D0E0C0E0B12CEE24E394F12C96E533
:100E8000C92E92E0D92EF80181918F01F894E82FB4
:100E9000E295EF70A1E2AE0FB0E02C918F70A70148
:100EA00002C0440F551F8A95E2F7CA01922F982B72
:100EB0009C93EE5DF0E09081809589238083789407
:100EC0000E94DE06C7010C2E01C0880F0A94EAF7C3
:100ED000782F682F6095A1E5B2E02BE431E0A12CDA
:100EE0009D91F90181919F01E82FE295EF70E05EFD
:100EF000F0E0408150E08F7002C0559547958A958B
:100F0000E2F7872F892B40FF02C0862F892398178D
:100F100029F0FD0131978083AA24A394CA16DB0629
:100F2000F9F6F801319780810E94E206C33011F092
:100F30000E94E006BA282196C430D10509F0A3CF5B
:100F40002B2D45E066E572E081E592E00E94B7074F
:100F50000E948E038B2DDF91CF911F910F91FF90F7
:100F6000EF90DF90CF90BF90AF9008950895FF92DB
:100F70000F931F93CF93DF93F82E092F162FD72FA0
:100F8000C42F222349F081E0809392010E94F71D33
:100F90009093910180939001809192018823A1F018
:100FA00080919001909191010E94231E069760F01C
:100FB000EF2DF02FA12FBD2FCF018C0F911DE81722
:100FC000F90741F410929201DF91CF911F910F9197
:100FD000FF90089521912D93F2CF8091990180FF88
:100FE00012C06091050185E0689FB00111247595DC
:100FF00067957595679560387105A8F56115710558
:10100000A1F1862F089581FF09C06091050185E057
:10101000689FB001112475956795EDCF609105012A
:1010200082FD0AC0809198018823D1F0909104013B
:1010300060910501891728F085E0689FB0011124AF
:10104000DACF869FB001112485E0869F9001879FAB
:10105000300D1124692F70E0C9010E943426CBCFD6
:1010600065E070E0CECF8FE7089581E0089580912C
:10107000990180FF0CC06091010170E07595679542
:10108000759567956115710549F1862F089581FF62
:1010900006C06091010170E075956795F3CF60918E
:1010A000010182FD0BC0909197019923A1F06091FD
:1010B000000180910101961738F0682F70E06038C8
:1010C000710500F38FE70895899FC001112470E036
:1010D0000E943426F4CF61E070E0D7CF81E008951C
:1010E000803F31F40E94ED07819580939D01089522
:1010F000813F19F40E94ED07F8CF823F31F40E943E
:10110000ED07819580939C010895833F19F40E9417
:10111000ED07F8CF893F29F40E94370880939E019C
:1011200008958A3F21F40E9437088195F7CF8B3FBD
:1011300031F40E943708819580939F0108958C3F78
:1011400019F40E943708F8CF9CE0980F953070F49E
:10115000845F990B21E030E001C0220F8A95EAF705
:1011600080919B01822B80939B0108958D3F31F4E8
:101170008091990181608093990108958E3F21F4B7
:10118000809199018260F7CF8F3FB9F780919901E3
:101190008460F1CF40919C01803F59F480919D0182
:1011A00087FF0DC010929D0141110BC01092980154
:1011B00008C0813F81F480919D0118169CF344235F
:1011C00081F080919E0190919F01892B09F05AC076
:1011D000109297010895823F49F447FFF0CF109293
:1011E0009C0180919D018111ECCFE0CF833F19F4E8
:1011F0001416ACF3E4CF90919E01893F29F419169F
:10120000F4F610929E01DBCF8A3F19F497FFD7CFF7
:10121000F8CF90919F018B3F29F497FFD0CF109288
:101220009F01CDCF8C3F19F41916CCF3C8CF9CE0A9
:10123000980F953090F4845F990B21E030E0B9016C
:1012400002C0660F771F8A95E2F7CB0180959091D7
:101250009B01892380939B01B2CF8D3F31F4809114
:1012600099018E7F80939901AACF8E3F21F48091BE
:1012700099018D7FF7CF8F3F09F0A1CF8091990120
:101280008B7FF0CF08950E94F71D20919C01309133
:101290009D01232B21F0809395019093960120913D
:1012A0009E0130919F01232B21F080939301909315
:1012B00094018AE991E00C946410CF92DF92EF924E
:1012C000FF920F931F93CF93DF9300D000D000D0F5
:1012D000CDB7DEB726E0EAE9F1E0CE010196DC0108
:1012E00001900D922A95E1F7C0909C01D0909D014C
:1012F000E0909E01F0909F0110929C0110929D0140
:1013000010929E0110929F012C2D2D298C0191F09D
:1013100080919501909196010E94231E9C018091DD
:101320009801882309F440C0909106019217130692
:1013300008F448C08E2D8F2991F0809193019091EF
:1013400094010E94231E9C0180919701882309F437
:1013500078C0909102019217130608F480C0809122
:101360009C0190919D01892B90919E01892B9091D8
:101370009F01892B11F00E94430986E0F801AAE938
:10138000B1E001900D928A95E1F726960FB6F89498
:10139000DEBF0FBECDBFDF91CF911F910F91FF90A8
:1013A000EF90DF90CF900895409107019AE0499F18
:1013B000A00111244217530708F0BCCF8F5F809320
:1013C000980102C08F3FD1F7CC2059F00E94ED0761
:1013D0009FEF1C140CF491E0899F802D11248093C1
:1013E0009C01DD2059F00E94ED079FEF1D140CF4C5
:1013F00091E0899F802D112480939D0130919C0163
:10140000332309F497CF20919D01222309F492CF31
:1014100045EB3403C0011124992359F090939C01AA
:1014200045EB240390011124332339F030939D01BF
:1014300081CF81E080939C01F3CF81E080939D0177
:1014400079CF409103019AE0499FA00111244217EE
:10145000530708F084CF8F5F8093970102C08F3FBE
:10146000D1F7EE2059F00E9437089FEF1E140CF4BC
:1014700091E0899F802D112480939E01FF2059F0D7
:101480000E9437089FEF1F140CF491E0899F802D74
:10149000112480939F0130919E01332309F45FCF83
:1014A00020919F01222309F45ACF45EB3403C00158
:1014B0001124992359F090939E0145EB2403900148
:1014C0001124332339F030939F0149CF81E0809379
:1014D0009E01F3CF81E080939F0141CF86E0EAE94E
:1014E000F1E0DF011D928A95E9F7109298011092C0
:1014F000970110929901089582E290E00E94692676
:10150000813289F483E290E00E946926863059F4A2
:1015100084E290E00E94692691E0833009F090E037
:10152000892F8170089580E0FCCFCF93C82F6FEF93
:10153000811161E282E290E00E9477266FEFC11193
:1015400066E083E290E00E9477266FEFC11163E0CE
:1015500084E290E0CF910C94772680E00E94950A77
:101560000C94041C0895CF93DF9300D000D0CDB726
:10157000DEB785E290E00E946926282F30E050E037
:1015800040E0CA01B9010F900F900F900F90DF91CA
:10159000CF91089585E290E00C9477260E94B20ADC
:1015A0000E947C0A81110CC060E070E0CB010E94B7
:1015B000CA0A0E946A0C0E94410D81E00C94950AAF
:1015C0000895CF939C01FB01C281CC2301F182518C
:1015D0009F45409720F58EEE820F0E94510DC0E08E
:1015E0008C2FCF91089581E00E944B1943E062E077
:1015F00081E00E945D03F3CF81E00E947C1943E00B
:1016000062E081E00E945D03EBCF82E0F6CF8031A3
:101610009F4591F321313F45C1F3C1E0E1CF203136
:10162000EFE53E0701F382E021313F45E9F2D8CFF3
:101630002FEFFC0120830895EF92FF920F931F93E9
:10164000CF93DF93CDB7DEB72E970FB6F894DEBFFA
:101650000FBECDBF8D839E83162FAD81BE81EC91D1
:10166000E150E33108F094C0F0E0E355F94D0C94FB
:101670004826ED81FE81118289E08283612F8D8170
:101680009E812E960FB6F894DEBF0FBECDBFDF91C0
:10169000CF911F910F91FF90EF900C946D1FAD8132
:1016A000BE8111968C91823099F0833011F1813096
:1016B00081F50E94031E0E944E266F8378878987DA
:1016C0009A87ED81FE816283738384839583D6CF6D
:1016D0000E94B30A0E944E266B877C878D879E8767
:1016E000AD81BE8112966D937D938D939C931597DA
:1016F000C5CFED80FE80B2E0EB0EF11C00E0802F44
:101700000E94D306F70181937F010F5F0530B9F77F
:10171000B5CF612F8D819E810E94180BAFCFAD8117
:10172000BE8111968C911197823099F712968D9106
:101730009D910D90BC91A02D89839A83AB83BC832E
:10174000BC01CD010E944E260E94CA0A97CFED81AE
:10175000FE814381628181810E943C0C9827892708
:101760009827AD81BE8115969C938E93149786CF52
:10177000ED81FE8124813581322723273227438161
:10178000628181810E94550C79CF0E946A0C76CFCC
:101790008FEFAD81BE818C9371CF0E94F40CED81EF
:1017A000FE8181836BCF0E94F60C982789279827AA
:1017B000AD81BE8112969C938E9311975FCFED8180
:1017C000FE81638170E081819281AF014C5F5F4F48
:1017D0009827892798270E94F90C50CFAD81BE81A8
:1017E00013966C91139770E011968D919C911297BE
:1017F000AD014C5F5F4F9827892798270E941E0DE7
:101800003DCF0E94410D3ACF0E94290CC8CFAD8137
:10181000BE8113966C91139770E011968D919C91F7
:101820001297AD014C5F5F4F9827892798270E9438
:10183000A30C24CFED81FE81638170E081819281D0
:10184000AF014C5F5F4F9827892798270E94C60CED
:1018500015CF84E0089598E0699FB001112450E00D
:10186000440F551F640F751F98E2899F600D711D0D
:101870001124CB01869608950F931F93CF93DF9386
:101880000E942B0C8C010E946926C82FD0E0DC2F0F
:10189000CC27C80101960E9469269E01282BC90108
:1018A000DF91CF911F910F9108950F931F93CF93C5
:1018B000DF93122F032F0E942B0CEC01602F0E944C
:1018C0007726612FCE010196DF91CF911F910F9165
:1018D0000C947726AF92BF92CF92DF92FF920F9334
:1018E0001F93CF93DF93B12CA12C00E0650110E092
:1018F00013C0FE01259134914F2D612F802F0E943E
:10190000550C2296F39484E0F812F3CF84E0C80ECD
:10191000D11C1F5F153039F0E601CC0FDD1FC45517
:10192000DF4FF12CE6CF0F5F84E1A80EB11C04302D
:10193000E9F6DF91CF911F910F91FF90DF90CF904B
:10194000BF90AF900895EF92FF920F931F93CF93A4
:10195000DF938C01EA017A01E60EF71EC801869634
:10196000CE15DF0539F4DF91CF911F910F91FF90D4
:10197000EF900895003A110538F40E946926888393
:1019800021960F5F1F4FEACF1882FACFEF92FF9296
:101990000F931F93CF93DF938C01EA017A01E60E38
:1019A000F71EC8018696CE15DF0539F4DF91CF9179
:1019B0001F910F91FF90EF900895003A110518F4D0
:1019C00068810E94772621960F5F1F4FEACF462F2E
:1019D000672F843030F4753020F4443010F40C94C8
:1019E0003C0C90E080E0089580E108958AE393E064
:1019F0000895EF92FF920F931F93CF93DF938C0183
:101A0000EA017A01E60EF71EC8018A539F4FCE15F0
:101A1000DF0539F4DF91CF911F910F91FF90EF9087
:101A200008950A3323E0120738F40E946926888358
:101A300021960F5F1F4FE8CF1882FACFEF92FF92E7
:101A40000F931F93CF93DF938C01EA017A01E60E87
:101A5000F71EC8018A539F4FCE15DF0539F4DF9179
:101A6000CF911F910F91FF90EF9008950A3323E0DB
:101A7000120718F468810E94772621960F5F1F4F86
:101A8000E8CFCF93DF93C6ECD0E060E0CE010E94B8
:101A900077262196C11584E0D807B9F7DF91CF9159
:101AA0000895DF92EF92FF920F931F93CF93DF93EE
:101AB00000D000D0CDB7DEB7F82E8FE08F1540F004
:101AC0008FEF93E00E94692606EC10E08823C1F0B6
:101AD0000F900F900F900F90DF91CF911F910F916A
:101AE000FF90EF90DF900895011584E0180781F3CF
:101AF000C8010E946926811101C0FA940F5F1F4F2F
:101B0000F110F2CF8091150190911601A09117016B
:101B1000B091180189839A83AB83BC83DD24D3946D
:101B200078018FEFE81AF80AC8010E9469268983B4
:101B30001A82882369F29FEF980F933080F48A838A
:101B4000D9820E5F1F4FC7010E9469268B838823AD
:101B500009F4BECFCE0101960E94B804E1CF8701FF
:101B6000F9CFCF93DF93EC01FB0197FF0BC082818C
:101B7000882341F00E94DC0DCE019F770E94340E35
:101B80000E94160E81E0DF91CF9108958CE090E0E5
:101B90000E94692690E0B0E0A0E080935B02909301
:101BA0005C02A0935D02B0935E02089560915B02B7
:101BB0008CE090E00C9477260E943C108695817012
:101BC0008093600290915B02913029F4882319F090
:101BD00089E30E943A120E944D1B80935F020E948B
:101BE000611B80915B028230A9F030F481110DC03D
:101BF00082EE0E94A71102C0843099F08FE39CE925
:101C00000197F1F700C00000089588E193E00E9479
:101C10009102F4CF82EE0E94A71187E50E943A124A
:101C2000EDCF86EE0E943A1288E1F8CF80915B02F8
:101C3000823019F030F481110AC082EE0E94F41152
:101C400002C0843079F080915F020C945E1B8CE2BC
:101C50000E943A12809160028823A9F389E30E94CE
:101C60003A12F1CF88E2FBCF0F931F93CF93DF930C
:101C70008C01CCE0D0E0C8010C2E02C0969587956F
:101C80000A94E2F78F700E94BB042497CC3F8FEF39
:101C9000D80789F7DF91CF911F910F9108950F9386
:101CA0001F93CF93DF93EC018B01FB01828188238B
:101CB00061F00E944D1BCE01815E9C4585309105EF
:101CC00020F480935B020E94D60DB801CE01DF9113
:101CD000CF911F910F910C94B10D0F931F93CF9340
:101CE000DF93C42FD22FFC0182818823C9F0409357
:101CF000A2010E94F71D9093A1018093A00180E2B0
:101D00008C0F883008F050C0C77081E001C0880F88
:101D1000CA95EAF7DF91CF911F910F910C9442126F
:101D20001091A201141335C08091A0019091A101DE
:101D30000E94231E883C910560F5C0E2CD0F1D175F
:101D4000B9F080E2810F883040F4177081E001C063
:101D5000880F1A95EAF70E944912C83048F481E0CA
:101D60009D2F977001C0880F9A95EAF70E94421242
:101D7000802F0E943A12C830B8F4D77081E001C0B9
:101D8000880FDA95EAF7DF91CF911F910F910C94AC
:101D9000491280E28C0F883038F4C77081E001C0AE
:101DA000880FCA95EAF7EFCFDF91CF911F910F917E
:101DB00008950F939C01CB01233F4CE53407A1F11B
:101DC00090F4283DFCE53F0749F1293D4CE53407F7
:101DD000E9F1273D3C45C1F0FC0182818823E1F116
:101DE0001092A20119C0253FFCE53F0719F1263FDB
:101DF0004CE5340729F1243F3C4571F707E225EE15
:101E000044EE64EF7CE505C006E221EE41EE67EDAD
:101E10007CE50E946D0E80E00F91089507E225EEAB
:101E200045EE68ED7CE5F5CF06E221EE40EE63EF8E
:101E30007CE5EFCF06E221EE42EE65EF7CE5E9CFEF
:101E400007E225EE46EE66EF7CE5E3CF08E221E00F
:101E500045EE69ED7CE5DDCF81E0DECFCF93DF930A
:101E6000EC01FB018281882309F4C9C0C631FCE57D
:101E7000DF07E0F4C2309CE5D907F0F00E941D1C9A
:101E80009093660280936502C631ECE5DE0720F58B
:101E9000C230FCE5DF0798F48091650290916602FC
:101EA0000E942B1C0E94111580E006C09E012A5F33
:101EB0003C452930310510F3DF91CF910895FE01A3
:101EC000E350FC45809165028160E331F10588F4BF
:101ED000E054F94D0C944826CA5FDC45C930D10561
:101EE000D8F6CD52D94DFE010C944826809165025A
:101EF000826080936502D0CF809165028460F9CFC3
:101F0000809165028860F5CF809166028160809340
:101F10006602C2CF809166028260F9CF809165022D
:101F20008061E7CF809165028062E3CF8091650296
:101F30008064DFCF0E941115809165028068D9CF3F
:101F4000809165028C60D5CF809166028360DFCF7F
:101F5000809165028E7FCDCF809165028D7FC9CF44
:101F6000809165028B7FC5CF80916502877FC1CF4D
:101F7000809166028E7FCBCF809166028D7FC7CF26
:101F8000809165028F7EB5CF809165028F7DB1CF44
:101F9000809165028F7BADCF0E9411158091650203
:101FA0008F77A7CF80916502837FA3CF8091660250
:101FB0008C7FADCF8091650282FB992790F921E05B
:101FC000922790FB82F990FB83F993CF8091660270
:101FD000982F909591708E7F892B90FB81F997CFE8
:101FE0000E94111590916502892F97FB87F98058FF
:101FF00080CF81E00E94B01C4FCF80E0FBCF81E01A
:102000005BCFCF93DF93EB0186319C4511F50E94A6
:102010004D1B9A81992399F08A7A91E009F490E016
:102020009093A301811109C089E20E94281B0E949C
:102030009F1B80E0DF91CF91089585E3F6CF8091DB
:10204000A301811104C089E20E942F1BF0CF85E318
:10205000FBCF81E0EFCF9093A9018093A801089571
:10206000E091A801F091A901309721F00190F08151
:10207000E02D099480E00895E091A801F091A90174
:10208000309711F480E008950190F081E02D0995DA
:102090000895DC01E091A801F091A901309799F031
:1020A00080911401882351F08091650287FF06C05A
:1020B0008C9111968C93119785E08C930280F3811B
:1020C000E02DCD0109940895DC01E091A801F09183
:1020D000A901309739F082E08C930480F581E02DDE
:1020E000CD01099408952091A6013091A7012817E8
:1020F000390771F09093A7018093A601E091A801A0
:10210000F091A901309721F00680F781E02D099424
:1021100008952091A4013091A5012817390771F085
:102120009093A5018093A401E091A801F091A901E9
:10213000309721F00084F185E02D099408950E94E4
:10214000031E6093B4017093B5018093B601909320
:10215000B7016093B0017093B1018093B201909385
:10216000B301089585B7806885BF85B7806885BF4E
:102170000895089508950C94B91008950C94BD1015
:102180000E94B21082E09CE10E947A1E0E94BA1066
:102190000C94BB1081E008950C94CA100895089522
:1021A0000E94EE1D0E94FF060E94CE0A0E94981E09
:1021B0000C94BE10AF92BF92CF92DF92EF92FF923B
:1021C0000F931F93CF93DF9300D000D00F92CDB722
:1021D000DEB70E94CE100E94CF100E942D07811101
:1021E0000E949F108BEAA82E81E0B82E10E000E03C
:1021F000C02E802F0E94D306F82EF501E1905F01DA
:10220000E81609F44CC080912D0281FD0E94D90688
:102210008E2D8F25D12CEE24E394982F9E21D1F181
:102220000E94CC10882399F0D982CA82FE2081E0D6
:1022300009F480E08B830E94F71D8160782F9D83D5
:102240008C8349815A816B818D810E947611F801BE
:10225000E555FE4F8081E826E0820E945D090E94DC
:1022600030109091AA01891789F10E943010809353
:10227000AA010F900F900F900F900F90DF91CF91C8
:102280001F910F91FF90EF90DF90CF90BF90AF9094
:102290000C94CC04D394EE0CF4E0DF12BECF0F5FAD
:1022A0001F4F0530110509F0A3CF8FEF89838A8373
:1022B0001B820E94F71D8160782F9D838C8349814A
:1022C0005A816B818D810E947611C7CF0F900F903C
:1022D0000F900F900F90DF91CF911F910F91FF9072
:1022E000EF90DF90CF90BF90AF900895CF93DF93A2
:1022F000CDB7DEB72B970FB6F894DEBF0FBECDBFBC
:102300004F83588769877A878B8761110E94721B78
:102310001E8285E0FE013796DE01119601900D9236
:102320008A95E1F749815A816B817C818D819E81FB
:102330002B960FB6F894DEBF0FBECDBFDF91CF91C5
:102340000C946F17FC01808191810C94F21ACF9349
:10235000C82F882309F446C08CEF8C0F813AA0F473
:102360006C2F80910801909109010E94C91C88235B
:1023700029F08C2F0E942F1B0E949F1B8C2F0E94E4
:10238000281BCF910C949F1B80E28C0F883048F45F
:10239000C77081E001C0880FCA95EAF70E94501B00
:1023A000F0CF8BE58C0F833038F42C2F2452330B75
:1023B000C901CF910C947310E8E5EC0FE73150F4AC
:1023C000F0E0EE0FFF1FE05BFE4F80819181CF9127
:1023D0000C948910C03F30F08C2F0E947008CF9170
:1023E0000C944309CF910895882361F19CEF980FD5
:1023F000913A20F40E942F1B0C949F1B90E2980F9F
:10240000983050F4877091E001C0990F8A95EAF7EF
:10241000892F0E94561BF0CF9BE5980F933020F434
:1024200090E080E00C94731098E5980F973120F4B9
:1024300090E080E00C948910803F20F00E94CA0850
:102440000C94430908951F93CF93DF93182FEB014A
:102450000E94A711209731F4812FDF91CF911F9116
:102460000C94F4118FE99FE00197F1F700C0000090
:102470002197F0CF70E060E0893311F460E570E0FF
:102480000C942312882321F00E94501B0C949F1B54
:102490000895882321F00E94561B0C949F1B0895D9
:1024A000AF92BF92CF92DF92EF92FF920F931F9362
:1024B000CF93DF9300D000D00F92CDB7DEB76C0181
:1024C0006D837983FC011281058102950F700E9452
:1024D000461BE82E8823A1F0E12E112389F0898183
:1024E000807F803429F08D81805EE12C883040F03F
:1024F00082E00E94EA1B0E94461B91E0E82EE9263A
:10250000A980A2949FE0A922B12CF501E452F94DD3
:102510000C94482609810F70F981F07F11F0029523
:10252000007F1123B1F0002361F08D81805E88303F
:1025300018F02D81211109C0802F0E94501B0E948C
:102540009F1B8D810E94A71115C0802F0E94641BC4
:10255000F6CF8D810E94F411002361F08D81805EA1
:10256000883018F04D81411133C0802F0E94561BD6
:102570000E949F1B48E0A41AB10854E0A516B104BC
:1025800020F40E9430100E94CC04EE2009F4D6C141
:102590000E94421B80FDD2C1F60112820E943C1BA8
:1025A0000E944B19C6010E94C5140E943C1B0F904B
:1025B0000F900F900F900F90DF91CF911F910F917F
:1025C000FF90EF90DF90CF90BF90AF900C947C196C
:1025D000802F0E946A1BCCCF59815F70F52E6981D4
:1025E000607F603219F0F29480EFF8227D817723CA
:1025F00069F0713049F1112391F1002351F1F60195
:10260000858180FF9ECF8F70858323C0112381F049
:10261000011106C00E94861B8F290E944212AACF78
:102620000130C1F70E94861B8F290E948C1BA2CF0C
:10263000011106C00E94951B8F2D0E9449129ACF4E
:10264000013009F497CFF6CF112329F0063008F0B6
:1026500091CF8F2DE2CF053008F08CCFEDCF002346
:1026600059F3FD81F93349F42FEF47EE53E0215040
:1026700040405040E1F700C000008D810E94F411FD
:1026800079CF898186958695837069F0813009F0CC
:1026900071CF8D8199819370111102C090E080E01B
:1026A0000E94891067CF8D8199819370111102C0AA
:1026B00090E080E00E9473105DCF8D81112329F09E
:1026C0000E9470080E94430955CF0E94CA08FACFA1
:1026D0008981837009F050C011114CCF4D81429512
:1026E00046954770440F440F8D818F7090E0B0E0A5
:1026F000A0E0042E04C0880F991FAA1FBB1F0A94D4
:10270000D2F76D8100E010E0980164FF0FC00FE088
:1027100010E020E030E004C0000F111F221F331F23
:102720004A95D2F700951095209530957981769548
:10273000769573707D83B901A801482B592B6A2BBC
:102740007B2B49835A836B837C835D8169817A818A
:102750008B819C81523051F0533059F0513019F037
:102760000E94C11807CF0E94991804CF0E94E9184F
:1027700001CF0E949718FECE112309F445C069814C
:1027800060FFF8CE4D81429546954770440F440F47
:102790008D818F7090E0B0E0A0E0042E04C0880F1F
:1027A000991FAA1FBB1F0A94D2F7ED8100E010E029
:1027B0009801E4FF0FC00FE010E020E030E004C01B
:1027C000000F111F221F331F4A95D2F70095109555
:1027D00020953095F981F695F695F370FD83B90152
:1027E000A801482B592B6A2B7B2B49835A836B8377
:1027F0007C83F230A1F0F330C9F0F13049F0CB0125
:10280000BA010E940A1AB6CE798171FFB3CEBACF4F
:1028100069817A818B819C810E94E219ABCE6981AA
:102820007A818B819C810E94321AA4CE69817A813F
:102830008B819C810E9415199DCE59815F705983AF
:10284000112329F0852F0E944B198D81E6CE8D81B1
:102850000E94491289810E947C198CCE6D81623F51
:1028600099F160F4603FD9F0613F39F1112309F427
:1028700044C0011166CE89818F7123C07D81733F71
:1028800041F1743F99F7112371F189818F71898327
:102890000E944B1963E089810E94D51B6BCE1123E6
:1028A00041F0053008F066CE89818F710E94B11920
:1028B00061CE063008F05ECEF7CF89818F7111238B
:1028C00051F20E944B1956CE89818F711123C9F3A1
:1028D000C2CF112329F089818F710E9426194ACE17
:1028E0000E94211947CE81E00E94EA1B023008F4C1
:1028F00041CE82E00E94EA1B3DCE002361F09D8123
:10290000993309F0BACEEFEFF7EE23E0E150F04053
:102910002040E1F7B0CE89818F719DCF49814F7002
:102920006D81C6010E94D4040E94091823CE4981FA
:102930004F706D81C6010E94D7041CCE0F900F907E
:102940000F900F900F90DF91CF911F910F91FF90FB
:10295000EF90DF90CF90BF90AF9008950F931F93AB
:10296000CF93DF93EC01688179818A810E94FE1AFE
:102970008C010E945A1A0E949618B801CE01DF916C
:10298000CF911F910F910C945012CF93DF93EC01D4
:102990008B819C81892B29F08981988189238F3FA4
:1029A00059F4DF91CF910895CE010E94AE14CE016B
:1029B000DF91CF910C94E202CE010E94A00381111D
:1029C000F3CF0E94461B882361F38A81882349F351
:1029D00082E0DF91CF910C94EA1B882321F00E94C2
:1029E000641B0C949F1B0895882321F00E946A1B8E
:1029F0000C949F1B089590E080E00E94731090E07B
:102A000080E00E9489100E94721B0E94831B0E941A
:102A10009F1B0E946E0A0C9443090E94361B0C9463
:102A2000FB140E94611B0C940D15282F892F829591
:102A30008F70903C80F48A30B0F4843020F482307F
:102A400090F480E008958630E1F781E0283E88F038
:102A5000213FB9F70EC08C3011F08F3091F793FB06
:102A6000882780F9089581E0203F39F018F4283E46
:102A700040F70895243F29F7FCCF08950E94F21AE9
:102A80000C941515CF93DF9300D000D00F92CDB7E3
:102A9000DEB70F900F900F900F900F90DF91CF91B6
:102AA0000895CF93DF9300D000D000D0CDB7DEB72C
:102AB00026960FB6F894DEBF0FBECDBFDF91CF9143
:102AC00008951F93CF93DF93E091B90116E08091B1
:102AD000BA018E1304C0DF91CF911F910895CE2FBC
:102AE000D0E01E9FF0011124E554FE4F408151813A
:102AF00062817381848195810E945115FE01319616
:102B0000E770E5CF4091EB015091EC016091ED0150
:102B10007091EE018091EF019091F0010C945115AC
:102B20001F93CF93DF938091F001807FA9F4809170
:102B3000ED01882389F08091B901C091BA017091AB
:102B4000EB016091EC01A091EE01B091EF01D62F65
:102B5000D72316E0C81304C0DF91CF911F910895C9
:102B600090E0109711F0DF3F19F401968770F2CFD3
:102B7000189F9001199F300D1124F901E554FE4F63
:102B800041816413F2CF40814713EFCF428141115D
:102B9000ECCF438154814A1B5B0B483C510528F71D
:102BA0008091F0018F7080618093F001F901E05411
:102BB000FE4F80818F70806180838BEE91E00E9458
:102BC000C514DF91CF911F910C946115AF92BF9204
:102BD000CF92DF92EF92FF920F931F93CF93DF93E9
:102BE000CDB7DEB72B970FB6F894DEBF0FBECDBFC3
:102BF0008C0185E0F801DE01179601900D928A950F
:102C0000E1F7F801E2808BEEA82E81E0B82E60910A
:102C1000EE017091EF016115710549F09091EB01A2
:102C20004091EC01892F84238F3F09F041C1EE20B0
:102C300009F451C18F8198850E943E15F82E882392
:102C400009F449C186E0F801ABEEB1E001900D92C4
:102C50008A95E1F78BEE91E00E94A2110E949015F7
:102C600024C18091F001582F507F683C710508F015
:102C70007AC05111B5C0FE2C241324C0931322C076
:102C8000E11020C08F7080618093F0010E94821556
:102C90008BEE91E00E94C5148091F001F8018583CC
:102CA0008F2D2B960FB6F894DEBF0FBECDBFDF91F0
:102CB000CF911F910F91FF90EF90DF90CF90BF9039
:102CC000AF900895CD2829F0822F83238F3F09F0FC
:102CD00084C080E0F82FF170DF2EE091B9014091BF
:102CE000BA0156E080FD1CC0EE20D1F28091F001C7
:102CF00081608093F001F12CD3CF8E2F90E05E9F06
:102D0000F0011124E554FE4F6181261306C0608155
:102D1000361303C062816E11E7CFFC013196E77074
:102D2000E413EBCF8F8198850E94F21A292F229508
:102D30002F70903260F0225F2F70223078F49F70F5
:102D400051F0F8019581907F31F4D12C0AC09F7029
:102D500011F08823D1F3805E8830B8F3C8010E9457
:102D6000C514FD2C9DCF51116EC04F8158856985CA
:102D70007A858B850E9442158BEE91E00E94C514E6
:102D800086E0F50111928A95E9F70E948215B3CF8A
:102D900086E0F801ABEEB1E001900D928A95E1F783
:102DA0007FCF8F8198850E943E1581113DC0809113
:102DB000F00181608093F001C8010E94C51470CFBA
:102DC0004F81588569857A858B850E94421586E0FA
:102DD000F50111928A95E9F768C081E08E257ACFD6
:102DE000241306C0931304C0F801EE2009F451C067
:102DF0008F8198850E943E15882309F46CC0EE20CF
:102E000009F469C08091F001803270F02091EB01EB
:102E10003091EC013A8329831B82DD82CC828E8340
:102E2000CE0101960E94C51486E0F801ABEEB1E038
:102E300001900D928A95E1F70E9490150E948215EB
:102E4000FF24F3942DCF2413D3CF9313D1CFE110CC
:102E5000CFCFF8018583C8010E94C51486E0F50133
:102E600011928A95E9F71CCF24139BCF931399CF26
:102E70008091F00180FD8CCF982F907F09F488CF4E
:102E8000F8018583903F31F0982F907F905F8F708D
:102E9000892B8583C8010E94C51486E0F801ABEE3A
:102EA000B1E001900D928A95E1F70E948215F8CE6B
:102EB00030812181C380D480F090ED01F601E61BC2
:102EC000F70BBF01F110CDCE683C710508F078CF4B
:102ED000FE2CE110C9CFC8010E94C514B1CF1F93C9
:102EE000CF93DF93CDB7DEB72C970FB6F894DEBF44
:102EF0000FBECDBF4F83588769877A878B879C87A2
:102F0000CE0107960E94E615882369F08A859B8585
:102F1000892B39F058854F81852F84238F3F09F005
:102F200071C016E05FC086E0FE013796DE011196A3
:102F300001900D928A95E1F78A859B85892B89F30B
:102F40008F81988589238F3F61F32091BA0130E00A
:102F5000C9010196877099274091B9014817190650
:102F600071F40E9411151092BA011092B90186E015
:102F7000EBEEF1E0DF011D928A95E9F7D2CF96E002
:102F8000929FD001939FB00D1124A554BE4FFE0116
:102F9000319601900D929A95E1F78093BA010E94C3
:102FA0006115BFCF819FC001112485549E4F0E949F
:102FB000E6158823E9F0E091B9011E9FF001112484
:102FC000E554FE4F408151816281738184819581F6
:102FD0000E9451158091B90190E001968770992760
:102FE0008093B9018091B9019091BA018913DACF28
:102FF0002C960FB6F894DEBF0FBECDBFDF91CF91F8
:103000001F91089569857A858B859C850E9451154D
:1030100088CFEF92FF920F931F93CF93DF938C0192
:10302000892B89F0F12CEE24E394E8012196F80134
:103030008491843709F458C0A0F4823009F43FC069
:1030400048F48130D1F0DF91CF911F910F91FF9023
:10305000EF9008959CEF980F9037A8F70E94A71162
:103060000AC0853709F44EC09CE7980F903758F78F
:103070008F770E94F4118E0116C00E5F1F4FFE0164
:10308000849190E2980F983060F48770FE2D01C013
:10309000FF0F8A95EAF78F2F0E94751B0E949F1BD6
:1030A00002C00E94A7118F2D882309F4BECFEFE93B
:1030B000FFE03197F1F700C000008150F5CF0E5FBF
:1030C0001F4FFE01849190E2980F983050F4877062
:1030D000FE2D01C0FF0F8A95EAF78F2F0E947B1B00
:1030E000DDCF0E94F411DFCF0E5F1F4FFE01C491B0
:1030F000CC23C9F28FE99FE00197F1F700C00000EF
:10310000C150F6CF0E5F1F4FFE01F490CCCF089553
:103110000C9487180E94881860930402709305022B
:1031200080930602909307020C94FB1408950C946C
:103130008A18CF93DF9300D000D0CDB7DEB7698374
:103140007A838B839C838091040290910502A091E5
:103150000602B091070229813A814B815C81282BBC
:10316000392B4A2B5B2B29833A834B835C83CA011F
:10317000B9010F900F900F900F90DF91CF910C94A9
:103180008A18CF93DF9300D000D0CDB7DEB7698324
:103190007A838B839C838091040290910502A09195
:1031A0000602B091070229813A814B815C81282374
:1031B00039234A235B2329833A834B835C83CA01E7
:1031C000B9010F900F900F900F90DF91CF910C9459
:1031D0008A18CF93DF9300D000D0CDB7DEB76983D4
:1031E0007A838B839C838091040290910502A09145
:1031F0000602B091070229813A814B815C81282720
:1032000039274A275B2729833A834B835C83CA018A
:10321000B9010F900F900F900F90DF91CF910C9408
:103220008A180C9487180C9411190E941319609332
:1032300000027093010280930202909303020C94A7
:10324000FB1460E070E0CB010C9415190F931F93F1
:10325000CF93DF9300D000D0CDB7DEB741E050E090
:1032600060E070E08A019B0104C0000F111F221F63
:10327000331F8A95D2F709831A832B833C83C901B4
:10328000B8010F900F900F900F90DF91CF911F9189
:103290000F910C9415190F931F93CF93DF9300D0C8
:1032A00000D0CDB7DEB741E050E060E070E004C090
:1032B000440F551F661F771F8A95D2F78091000231
:1032C00090910102A0910202B09103028A019B0138
:1032D000082B192B2A2B3B2B09831A832B833C8326
:1032E000C901B8010F900F900F900F90DF91CF910F
:1032F0001F910F910C9415190F931F93CF93DF9388
:1033000000D000D0CDB7DEB741E050E060E070E023
:1033100004C0440F551F661F771F8A95D2F740954A
:103320005095609570958091000290910102A09156
:103330000202B09103028A019B01082319232A2368
:103340003B2309831A832B833C83C901B8010F9067
:103350000F900F900F90DF91CF911F910F910C94D0
:1033600015190F931F93CF93DF9300D000D0CDB7E3
:10337000DEB741E050E060E070E004C0440F551F4C
:10338000661F771F8A95D2F7809100029091010203
:10339000A0910202B09103028A019B01082719271C
:1033A0002A273B2709831A832B833C83C901B80151
:1033B0000F900F900F900F90DF91CF911F910F9171
:1033C0000C941519CF93DF9300D000D0CDB7DEB7A2
:1033D00069837A838B839C838091000290910102A0
:1033E000A0910202B091030229813A814B815C8154
:1033F000282B392B4A2B5B2B29833A834B835C8305
:10340000CA01B9010F900F900F900F90DF91CF91EB
:103410000C941519CF93DF9300D000D0CDB7DEB751
:1034200069837A838B839C8380910002909101024F
:10343000A0910202B091030229813A814B815C8103
:10344000282339234A235B2329833A834B835C83D4
:10345000CA01B9010F900F900F900F90DF91CF919B
:103460000C941519CF93DF9300D000D0CDB7DEB701
:1034700069837A838B839C838091000290910102FF
:10348000A0910202B091030229813A814B815C81B3
:10349000282739274A275B2729833A834B835C8374
:1034A000CA01B9010F900F900F900F90DF91CF914B
:1034B0000C9415190895E92FEE0FEE0FE80F8E2FDB
:1034C000877041E001C0440F8A95EAF7E695E695DA
:1034D000E69585E0E89FF0011124EF50FE4F30E0C3
:1034E00020E070E05191DF011197CB01022E02C064
:1034F000969587950A94E2F78170819585278423B4
:1035000085278C932F5F3F4F2530310559F708955C
:10351000E92FEE0FEE0FE80F9E2F9770E695E695D8
:10352000E69585E0E89FF0011124EF50FE4F50E052
:1035300040E080E0219130E0092E02C036952795C9
:103540000A94E2F721703327042E01C0220F0A9457
:10355000EAF7822B4F5F5F4F4530510559F70895C9
:10356000BF92CF92DF92EF92FF920F931F93CF9370
:10357000DF938C01C0900002D0900102E090020223
:10358000F09003028091040290910502A09106023E
:10359000B0910702C82AD92AEA2AFB2ACFE1D0E053
:1035A000BC2ED701C6010C2E04C0B695A7959795E1
:1035B00087950A94D2F780FD0EC0219788F7B12C29
:1035C0008B2DDF91CF911F910F91FF90EF90DF90A6
:1035D000CF90BF900895B8018C2F0E94E00401970E
:1035E00061F3EECFCF93DF93D82FC92F0E94B01A8B
:1035F0006D2F7C2FDF91CF910C94E0041F93CF931C
:10360000DF93162FD72F9091B801992339F0862F89
:10361000972FDF91CF911F910C94F21A882391F08C
:10362000862F972F0E94B01AC82F682F812F9D2FA9
:103630000E945B1A612F7D2F8C2FDF91CF911F91FC
:103640000C94E004862F972F0E94881AC82FF2CF7F
:10365000682F80910801909109010C944D1D682FED
:1036600080910801909109010C94581D80910801E6
:10367000909109010C94631D8091080285958595B0
:1036800085950895809108028770089590910802A9
:10369000977081E009F480E0089580912C020895EC
:1036A00090912C02982B90932C020895982F90952E
:1036B00080912C02892380932C02089580932C0200
:1036C000089510922C02089590912B02982B9093BC
:1036D0002B020895982F909580912B028923809337
:1036E0002B02089510922B02089590912A02982B94
:1036F00090932A020895982F909580912A02892309
:1037000080932A02089510922A0208958091090256
:10371000089508950C94891B90910902981721F03F
:10372000809309020C948A1B0895809109028823D2
:1037300029F01092090280E00C948A1B0895E09110
:103740000801F091090180912C028083E091080129
:10375000F0910901808190912B02892B8083E09167
:103760000801F0910901808190912A02892B8083C0
:1037700090910902992381F0E0910801F0910901EB
:103780008081892B808380910801909109010E949A
:10379000B51C81110E94951B80910801909109012F
:1037A0000C94491008950C94D21B98E0899F9001C5
:1037B0001124622B609308020E944B198091080229
:1037C0008595859585950C94D31B1092080280E011
:1037D0000C94D31B90910802809589238093080252
:1037E000282F277071F4282F082E000C330B921706
:1037F000130639F08595859585950E947C190C9462
:10380000E51B089580E008956FEF7FEF90E080E082
:103810000C94952690E080E00E9471269C0181E046
:103820002B3E3E4F09F080E0089582E090E00C943A
:10383000692683E090E00C946926CF9384E090E0C1
:103840000E946926C82F81E290E00E946926982F85
:103850008C2FCF910895CF93682FC92F84E090E0EB
:103860000E9477266C2F81E290E0CF910C9477260E
:10387000AB01BC018FE090E00C948926AB01BC0148
:1038800083E190E00C94892660E070E0CB010C9419
:103890003E1C60E070E0CB010E94381C0C94441C7C
:1038A0006BEE7EEF90E080E00E94952660E082E083
:1038B00090E00E94772660E083E090E00E94772607
:1038C0001092040210920502109206021092070252
:1038D00060E084E090E00E94772660E081E290E082
:1038E0000E94772660E085E090E00E94772660E005
:1038F00086E090E00E9477266FEF87E090E00E94DC
:10390000772640E050E0BA0188E090E00E948926E6
:1039100060E08DE090E00E94772640E050E0BA0140
:1039200088E190E00E94892660E087E190E00E94B3
:10393000772640E050E0BA018CE190E00E948926B1
:1039400060E080E290E00E94772640E050E0BA011B
:1039500088E190E00E9489260C94491C0C94501C2C
:10396000682F8EE090E00C947726FC0132968091CF
:103970001401882321F0809165029EE187FF96E083
:1039800080E0915008F4089521912223D1F38F5FB4
:10399000F8CF9C01662301F1809114018823F1F096
:1039A0008091650287FF1AC0462F46954695469539
:1039B000603F90F4677081E090E002C0880F991F2B
:1039C0006A95E2F7240F311DF901228130E02823A6
:1039D000392381E0232B71F480E00895F9013296B8
:1039E000285F3F4F8191861721F0E217F307D1F747
:1039F000F3CF81E008959C01FC0132968FEF90E0B7
:103A00004191461751F08F3F19F4411101C0892FA0
:103A10009F5F9630A9F78F3F09F40895280F311D55
:103A200087FD3A95F901628308959C01FC01329665
:103A3000285F3F4F8191861303C0DF0111971C92CD
:103A4000E217F307B9F70895FC01862F869586954E
:103A50008695603F60F4E80FF11D677021E030E06B
:103A600001C0220F6A95EAF78281822B8283089532
:103A7000FC01862F869586958695603F68F4E80F51
:103A8000F11D677081E090E001C0880F6A95EAF748
:103A900080959281892382830895209114012223A5
:103AA00029F02091650227FD0C94241D0C94FB1C29
:103AB00020911401222329F02091650227FD0C9406
:103AC000381D0C94151DFC01329680911401882339
:103AD00051F08091650287FF06C08EE1DF011D92E3
:103AE0008A95E9F7089586E0F9CF089508950C9432
:103AF000761D80916B02843049F10E94771D80E031
:103B00000E94CC0410922E0288E190E020E40FB6CF
:103B1000F894A895809360000FBE2093600083B74F
:103B2000817F846083BF83B7816083BF78948895E9
:103B300083B78E7F83BF0FB6F894A89580916000FD
:103B4000886180936000109260000FBE0895089510
:103B5000CF930E94751D0E942D070E94A71DC0E0F3
:103B60008C2F0E94D306811105C0CF5FC530C1F7ED
:103B7000CF91089581E0FCCF08950C94BC1D0E9464
:103B800011150E9430100E94CC040C94BD1D1F9290
:103B90001FB61F9211248F939F93AF93BF93809171
:103BA0002E02811113C08091610290916202A09156
:103BB0006302B09164024196A11DB11D8093610220
:103BC00090936202A0936302B0936402BF91AF919D
:103BD0009F918F911F901FBE1F90189582E084BD0A
:103BE00093E095BD9AEF97BD80936E0008952FB72F
:103BF000F8948091610290916202A0916302B09169
:103C000064022FBF0895CF93DF9300D000D0CDB7CB
:103C1000DEB78FB7F8942091610230916202409133
:103C200063025091640229833A834B835C838FBF84
:103C300069817A818B819C810F900F900F900F90FA
:103C4000DF91CF9108959C014FB7F8948091610264
:103C500090916202A0916302B09164024FBF821BF7
:103C6000930B089578941F921FB61F9211248F937F
:103C70009F93AF93BF938091610290916202A09154
:103C80006302B09164020196A11DB11D809361028F
:103C900090936202A0936302B0936402BF91AF91CC
:103CA0009F918F911F901FBE1F90189581E0809368
:103CB000E00080E28093D8001092C9008FE19EE47A
:103CC0000197F1F700C0000087E090EBDC018093E2
:103CD000740290937502A0937602B093770288E104
:103CE0009CE00FB6F894A895809360000FBE909367
:103CF0006000FFCF90938F0180938E0108950C9404
:103D0000AD0A0E942D072FEF86E791E021508040F9
:103D10009040E1F700C000000E942D0780E00E9463
:103D2000D30680FF04C00E947F1E0C94561E089587
:103D3000CF93DF9300D000D0CDB7DEB70E940A1C2E
:103D4000811102C00E94AE1C0E94151C80932D029E
:103D50000E941D1C90936602809365020E94191CAC
:103D6000282F30E050E040E0CA01B9010E949718C6
:103D70008091000290910102A0910202B091030291
:103D800089839A83AB83BC83BC01CD010F900F90D4
:103D90000F900F90DF91CF910C94131980914F02E7
:103DA0000895CF93DF9300D00F92CDB7DEB79091F7
:103DB0006B02943011F589836A837B839093E900C9
:103DC0008FEF9091E800815095FD06C095ED9A9592
:103DD000F1F700008111F5CF8091E80085FF0DC05B
:103DE00050E040E063E070E0CE0101960E945E2169
:103DF0008091E8008E778093E8000F900F900F90ED
:103E0000DF91CF910895BC0184E00C94D11EBC01D8
:103E100083E00C94D11E24E02093E9002FEF309131
:103E2000E800215035FD06C035ED3A95F1F7000068
:103E30002111F5CF2091E80025FF0BC050E040E0B4
:103E400066E070E00E945E218091E8008E778093AA
:103E5000E8000895CF93DF93D82FC92F80911401E4
:103E60008823C1F18091650287FF34C060E284E05D
:103E70008093E9008FEF9091E800815095FD06C096
:103E800095ED9A95F1F700008111F5CF8091E8004A
:103E900085FF1DC08091140170E050E040E0811169
:103EA00004C050E040E068E070E08D2F9C2F0E943D
:103EB0005E218091E8008E778093E80080E2ED2F0C
:103EC000FC2FAFE2B2E001900D928A95E1F7DF910D
:103ED000CF91089568E081E0CBCFCF93603219F5A0
:103EE00020916B022430F9F4C091E900CF70309139
:103EF000EC00232F217030FD20E8C22B22E020931C
:103F0000E9002091E80020FF0BC050E040E060E2B3
:103F100070E00E945E218091E8008E778093E80037
:103F2000CF70C093E900CF91089580916A0281110A
:103F300009C00E9435230E9492238091E200846090
:103F40008093E200089510926A02089508950895FA
:103F5000089542E061EC81E00E94B12242E261EC0E
:103F600084E00E94B12242E261EC82E00E94B12230
:103F700042E260EC83E00C94B12280916D028930C2
:103F800089F148F4823009F49EC0833009F459C0A5
:103F9000813041F008958A3009F485C08B3009F4EE
:103FA0006BC0089580916C02813A09F049C08091FC
:103FB000E800877F8093E800809170029091710201
:103FC000892B61F460E28FE292E070E00E94FC21B4
:103FD0008091E8008B778093E800089560E090E09E
:103FE00080E0F3CF80916C02813251F580917002B4
:103FF000909171028D7F892B19F58091E800877F60
:104000008093E8008091E80082FF16C09091F30051
:104010008091F200029729F48091F1008B7F81302A
:1040200021F48091F10080934F028091E8008B771A
:104030008093E8000C94E52280916B028111E2CF1D
:10404000089580916C02813AD9F780917002909125
:104050007102892BA9F78091E800877F8093E8009F
:104060008091E80080FFFCCF809114018093F100E3
:104070008091E8008E77DCCF80916C02813201F76D
:104080008091700290917102892BD1F68091E800A5
:10409000877F8093E8000E94E52280916E028093E2
:1040A00014010C94111580916C02813249F68091B3
:1040B000E800877F8093E8000E94E52280916F02EC
:1040C00080935002089580916C02813A09F0B8CF34
:1040D0008091E800877F8093E8008091E80080FF6E
:1040E000FCCF80915002C2CFCDB7DEB7A0970FB6FC
:1040F000F894DEBF0FBECDBF84B7877F84BF0FB6F5
:10410000F894A89580916000886180936000109277
:1041100060000FBE80E890E00FB6F89480936100D5
:10412000909361000FBE0E94C0100E9435230E9430
:1041300092238091E20084608093E20078940E9450
:1041400019260E94D0108AE091E00E942B1013E003
:1041500080916B028530C9F00E94DA1080916B0269
:104160008430D1F00E94CE100E94CF10F1CF0E9477
:10417000791D80916902882341F00E94A81D88233F
:1041800021F00E9448210E94111580916B02853018
:1041900071F30E94BF1DE0CF1093E9008091E80009
:1041A00082FFE0CF8091E80090E085FF09C050E0F9
:1041B00040E060E270E0CE0101960E94AD2191E006
:1041C0008091E8008B778093E800992359F260E2B0
:1041D000CE0101960E941C0BC5CF0C94EF20FC0170
:1041E000CB01DA012F2F332723303105D1F070F4C2
:1041F0002130310509F447C02230310569F48BE5DF
:1042000090E028E432E02D933C930895213231056B
:10421000E9F02232310539F190E080E030E020E031
:10422000F2CFCF019927E13059F08230910559F052
:10423000E4E4F2E0892B81F7849190E09F01E3CFE1
:10424000E8E2F2E0F9CFECEFF1E0F6CF6330710590
:1042500018F7880F991FFC01E957FE4F2081318123
:1042600089E090E0D0CF63307105B0F6FB01EE0F2E
:10427000FF1FEF57FE4F2081318182589E4FFC0176
:10428000808190E0C0CF82E190E023EA32E0BBCFB2
:1042900080E189BD82E189BD09B400FEFDCF809136
:1042A000D8008F7D8093D8008091E0008260809359
:1042B000E0008091E00081FDFCCF0895AF92BF92B5
:1042C000CF92DF92FF920F931F93CF93DF936C01F6
:1042D000EB018A010E940423F82E811123C00115ED
:1042E000110539F0F80180819181C81BD90BC80EE6
:1042F000D91EB12CA12C2097A9F08091E80085FD52
:1043000022C08091E8008E778093E80001151105A6
:10431000A1F0F80180819181A80EB91EB182A0821E
:1043200085E0F82E8F2DDF91CF911F910F91FF9097
:10433000DF90CF90BF90AF9008950E940423882310
:10434000D1F2F82EEFCFF60181916F018093F10049
:104350002197FFEFAF1ABF0ACECFAF92BF92CF9295
:10436000DF92FF920F931F93CF93DF936C01EB01CA
:104370008A010E940423F82E811123C00115110522
:1043800039F0F80180819181C81BD90BC80ED91E64
:10439000B12CA12C2097A9F08091E80085FD22C0C6
:1043A0008091E8008B778093E80001151105A1F05A
:1043B000F80180819181A80EB91EB182A08285E0AA
:1043C000F82E8F2DDF91CF911F910F91FF90DF90ED
:1043D000CF90BF90AF9008950E9404238823D1F21C
:1043E000F82EEFCF8091F100F60181936F012197B4
:1043F000FFEFAF1ABF0ACECFFC01CB0120917202B2
:10440000309173022617370790F0009729F4209116
:10441000E8002E772093E80040E0009751F4411126
:1044200008C08091E80082FF31C080E00895C90192
:10443000F3CF20916B022223A9F12530A9F120911D
:10444000E80023FD2DC02091E80022FDEACF209155
:10445000E80020FFE2CF3091F3002091F2000097B6
:1044600019F02830310558F041E02830310509F0C5
:1044700040E02091E8002E772093E800CECF4191D4
:104480004093F10001972F5F3F4FE9CF80916B027E
:10449000882341F0853041F08091E80083FFC1CF4F
:1044A00081E0089582E0089583E00895FC01CB0146
:1044B00020917202309173022617370790F000970F
:1044C00029F42091E8002E772093E80040E000973F
:1044D00051F4411108C08091E80082FF32C080E0B1
:1044E0000895C901F3CF20916B022223B1F1253049
:1044F000B1F12091E80023FD2EC02091E80022FDBB
:10450000EACF2091E80020FFE2CF3091F300209124
:10451000F200009719F02830310558F041E02830BA
:10452000310509F040E02091E8002E772093E80063
:10453000CECF44914093F100319601972F5F3F4FCA
:10454000E8CF80916B02882341F0853041F0809163
:10455000E80083FFC0CF81E0089582E0089583E002
:104560000895982F973028F08F708093E90081E0AC
:1045700008959093E900242F762F50E0981731F09A
:104580007091EC002091ED005091F00021FD02C0EF
:104590009F5FE8CF3091EB003E7F3093EB0030918E
:1045A000ED003D7F3093ED003091EB0031603093B2
:1045B000EB007093EC002093ED005093F0002091FD
:1045C000EE0027FDE5CF80E0089580916C0287FF23
:1045D00013C08091E80082FF06C08091E8008B77CD
:1045E0008093E80004C080916B028111F2CF08959E
:1045F00080916B028823D9F38091E80080FFF8CF87
:104600008091E8008E77ECCF2091E4003091E500B6
:1046100095E6A9012091EC00822F817020FF06C051
:104620008091E80080FF06C080E008952091E800B6
:1046300022FD1AC080916B02882389F0853089F0B1
:104640008091EB0085FD0FC02091E4003091E500E2
:1046500042175307F9F29150E1F684E0089582E0A1
:10466000089583E0089581E008950E94A3230E94A5
:10467000AB23E0EEF0E0808181608083E8EDF0E044
:1046800080818F77808319BCA7EDB0E08C918E7FFD
:104690008C9380818F7E808310926A0208950F939D
:1046A0001F93CF93DF930E94A3230E94AB23C8EDF7
:1046B000D0E088818F77888388818068888388812B
:1046C0008F7D888319BC10926B0210926702109242
:1046D00069021092680200EE10E0F80180818B7F81
:1046E000808388818160888342E060E080E00E946E
:1046F000B122E1EEF0E080818E7F8083E2EEF0E097
:10470000808181608083808188608083F8018081DE
:104710008E7F8083888180618883DF91CF911F9114
:104720000F910895E8EDF0E080818F7E8083E7EDC2
:10473000F0E080818160808384E082BF81E08093AB
:104740006A020C944F23E8EDF0E080818E7F808335
:104750001092E20008951092DA001092E10008959C
:104760001F920F920FB60F9211242F933F934F93E6
:104770005F936F937F938F939F93AF93BF93EF93C9
:10478000FF938091E10082FF0BC08091E20082FFE5
:1047900007C08091E1008B7F8093E1000E94182682
:1047A0008091DA0080FF19C08091D80080FF15C089
:1047B0008091DA008E7F8093DA008091D90080FFAB
:1047C00094C080E189BD82E189BD09B400FEFDCFBE
:1047D00081E080936B020E94951F8091E10080FF31
:1047E00019C08091E20080FF15C08091E2008E7FA9
:1047F0008093E2008091E20080618093E2008091EA
:10480000D80080628093D80019BC85E080936B0249
:104810000E94A71F8091E10084FF29C08091E200DF
:1048200084FF25C080E189BD82E189BD09B400FE15
:10483000FDCF8091D8008F7D8093D8008091E100DA
:104840008F7E8093E1008091E2008F7E8093E20072
:104850008091E20081608093E2008091670288236A
:1048600009F449C084E080936B020E94A81F8091E4
:10487000E10083FF29C08091E20083FF25C0809181
:10488000E100877F8093E10082E080936B021092C9
:1048900067028091E1008E7F8093E1008091E200C9
:1048A0008E7F8093E2008091E20080618093E2003D
:1048B00042E060E080E00E94B1228091F0008860D8
:1048C0008093F0000E94A61FFF91EF91BF91AF91DE
:1048D0009F918F917F916F915F914F913F912F9118
:1048E0000F900FBE0F901F90189519BC10926B027D
:1048F0000E94A31F72CF8091E30087FD02C081E078
:10490000B2CF83E0B0CF1F920F920FB60F92112457
:104910002F933F934F935F936F937F938F939F93C7
:10492000AF93BF93CF93DF93EF93FF93D091E900C1
:10493000DF708091EC00C82FC17080FDC0E810923C
:10494000E9008091F000877F8093F00078940E94C6
:10495000C7241092E9008091F00088608093F000F5
:10496000CD2BCF70C093E900FF91EF91DF91CF91F4
:10497000BF91AF919F918F917F916F915F914F9177
:104980003F912F910F900FBE0F901F9018951F937E
:10499000CF93DF93CDB7DEB7AA970FB6F894DEBFFB
:1049A0000FBECDBF8CE692E0FC0101962091F10094
:1049B000208322E084379207B9F70E94BD1F8091BF
:1049C000E80083FF1DC180916C0290916D029A30C6
:1049D00008F016C1E92FF0E0E451F94D0C94482697
:1049E000803899F0823809F00BC1809170028F7085
:1049F000873008F005C18093E9008091EB0085FBCA
:104A0000882780F91092E90006C080916802909191
:104A10006902911182609091E800977F9093E8007D
:104A20008093F1001092F1008091E8008E77E4C04D
:104A3000882309F4D2C0823009F0E2C080916E026E
:104A40008111D5C0809170028F702FEF280F263012
:104A500008F0D6C08093E9002091EB0020FFC7C08A
:104A6000933031F48091EB0080628093EB00BFC003
:104A70009091EB0090619093EB0021E030E001C059
:104A8000220F8A95EAF72093EA001092EA008091BB
:104A9000EB008860EACF8111B3C010916E021F77DE
:104AA0008091E3008078812B8093E3008091E8007F
:104AB000877F8093E8000E94E5228091E80080FFD4
:104AC000FCCF8091E30080688093E30082E01111C5
:104AD00083E080936B0294C08058823008F090C0CD
:104AE00080916E0290916F028C3D23E0920799F5C0
:104AF00083E08A838AE289834FB7F894DE011396B4
:104B000020E03EE051E2E32FF0E050935700849123
:104B100020FF03C082958F703F5F8F708A30C8F08E
:104B2000895C90E08D939D932F5F243161F74FBF97
:104B30008091E800877F8093E8006AE270E0CE0110
:104B400001960E94FC218091E8008B778093E80019
:104B500057C0805DE6CF6091700270917102AE0126
:104B60004F5F5F4F0E94ED20BC01892B09F448C0C4
:104B70008091E800877F8093E80089819A810E9474
:104B80005622E1CF8038E1F58091E800877F80935D
:104B9000E800809167028093F10046CF811130C018
:104BA00090916E02923060F58091E800877F80934B
:104BB000E800909367020E94E522809167028823B3
:104BC00011F084E005C08091E30087FDFACF81E019
:104BD00080936B020E94A91F13C080916E028130E6
:104BE00079F481E0933009F080E0809369021092BB
:104BF000E9008091E800877F8093E8000E94E52229
:104C00008091E80083FF0AC08091E800877F80934D
:104C1000E8008091EB0080628093EB00AA960FB6CB
:104C2000F894DEBF0FBECDBFDF91CF911F910895E5
:104C30000895CF9380916B028823A1F0C091E90081
:104C4000CF709091EC00892F817090FD80E8C82B87
:104C50001092E9008091E80083FD0E94C724CF7084
:104C6000C093E900CF91089597FB072E16F40094A6
:104C700007D077FD09D00E94552607FC05D03EF4E9
:104C8000909581959F4F0895709561957F4F0895F8
:104C9000EE0FFF1F0590F491E02D099469279627E8
:104CA00069277827872778270895AA1BBB1B51E11E
:104CB00007C0AA1FBB1FA617B70710F0A61BB70B8C
:104CC000881F991F5A95A9F780959095BC01CD0131
:104CD0000895F999FECF92BD81BDF89A992780B5C4
:104CE0000895A8E1B0E042E050E00C949D26262F04
:104CF000F999FECF92BD81BDF89A019700B40216D2
:104D000039F01FBA20BD0FB6F894FA9AF99A0FBE7F
:104D100008950396272F0E9478260E947726252F34
:104D20000E947826242F0C9478260196272F0E9423
:104D300078260C947726DC01CB01FC01F999FECF93
:104D400006C0F2BDE1BDF89A319600B40D92415013
:104D50005040B8F70895F894FFCF390B4F0B8F0BE5
:104D6000A70BB80BC50BC80BC80BC80BC80BC80BDF
:104D7000CD0BD30BDF0BEE0B010C040C070C1A0C44
:104D8000760F7C0F800F8E0F920F960F9A0FA00F49
:104D9000A80FAC0FB00FB40FC00FC40FC80FCC0FCB
:104DA000D20FF00FDA0F840F8A0FB80FBC0FA40FC9
:104DB000D60FE60FF90FFD0F8A128A12EC12EC12D1
:104DC00041135D13BA12BA1268131D142E142E1457
:104DD0008E14BA12BA129714F0241825002618253A
:0C4DE00000264B256C250026C225CE25A0
:104DEC002808641E140A321E0A02CE1E2A1F0B1F2C
:104DFC00071F031F0100000000E200E900EA00B5F4
:104E0C0000B600B700CD008301CC008A019201945A
:104E1C00012102230224022502260227022A02B3C0
:104E2C0000B4006F00700097C634F1379567929309
:104E3C00E200E900EA00B500B600B700CD0083013E
:104E4C00CC008A0192019401210223022402250242
:104E5C00260227022A02B300B4006F007000402221
:0E4E6C00B68D03B502D7025A027302930200FC
:00000001FF
